{
  "contractName": "TipBot",
  "abi": [
    {
      "inputs": [],
      "stateMutability": "nonpayable",
      "type": "constructor"
    },
    {
      "anonymous": false,
      "inputs": [
        {
          "indexed": true,
          "internalType": "address",
          "name": "from",
          "type": "address"
        },
        {
          "indexed": true,
          "internalType": "address",
          "name": "toAddress",
          "type": "address"
        },
        {
          "indexed": false,
          "internalType": "uint256",
          "name": "amount",
          "type": "uint256"
        }
      ],
      "name": "AirDrop",
      "type": "event"
    },
    {
      "anonymous": false,
      "inputs": [
        {
          "indexed": true,
          "internalType": "bytes32",
          "name": "role",
          "type": "bytes32"
        },
        {
          "indexed": true,
          "internalType": "bytes32",
          "name": "previousAdminRole",
          "type": "bytes32"
        },
        {
          "indexed": true,
          "internalType": "bytes32",
          "name": "newAdminRole",
          "type": "bytes32"
        }
      ],
      "name": "RoleAdminChanged",
      "type": "event"
    },
    {
      "anonymous": false,
      "inputs": [
        {
          "indexed": true,
          "internalType": "bytes32",
          "name": "role",
          "type": "bytes32"
        },
        {
          "indexed": true,
          "internalType": "address",
          "name": "account",
          "type": "address"
        },
        {
          "indexed": true,
          "internalType": "address",
          "name": "sender",
          "type": "address"
        }
      ],
      "name": "RoleGranted",
      "type": "event"
    },
    {
      "anonymous": false,
      "inputs": [
        {
          "indexed": true,
          "internalType": "bytes32",
          "name": "role",
          "type": "bytes32"
        },
        {
          "indexed": true,
          "internalType": "address",
          "name": "account",
          "type": "address"
        },
        {
          "indexed": true,
          "internalType": "address",
          "name": "sender",
          "type": "address"
        }
      ],
      "name": "RoleRevoked",
      "type": "event"
    },
    {
      "anonymous": false,
      "inputs": [
        {
          "indexed": true,
          "internalType": "address",
          "name": "from",
          "type": "address"
        },
        {
          "indexed": true,
          "internalType": "address",
          "name": "toAddress",
          "type": "address"
        },
        {
          "indexed": false,
          "internalType": "uint256",
          "name": "amount",
          "type": "uint256"
        }
      ],
      "name": "Tip",
      "type": "event"
    },
    {
      "anonymous": false,
      "inputs": [
        {
          "indexed": false,
          "internalType": "uint256",
          "name": "amount",
          "type": "uint256"
        },
        {
          "indexed": true,
          "internalType": "bytes32",
          "name": "reason",
          "type": "bytes32"
        }
      ],
      "name": "Withdraw",
      "type": "event"
    },
    {
      "inputs": [],
      "name": "DEFAULT_ADMIN_ROLE",
      "outputs": [
        {
          "internalType": "bytes32",
          "name": "",
          "type": "bytes32"
        }
      ],
      "stateMutability": "view",
      "type": "function",
      "constant": true
    },
    {
      "inputs": [],
      "name": "airdropRate",
      "outputs": [
        {
          "internalType": "uint256",
          "name": "",
          "type": "uint256"
        }
      ],
      "stateMutability": "view",
      "type": "function",
      "constant": true
    },
    {
      "inputs": [],
      "name": "feeRate",
      "outputs": [
        {
          "internalType": "uint256",
          "name": "",
          "type": "uint256"
        }
      ],
      "stateMutability": "view",
      "type": "function",
      "constant": true
    },
    {
      "inputs": [
        {
          "internalType": "bytes32",
          "name": "role",
          "type": "bytes32"
        }
      ],
      "name": "getRoleAdmin",
      "outputs": [
        {
          "internalType": "bytes32",
          "name": "",
          "type": "bytes32"
        }
      ],
      "stateMutability": "view",
      "type": "function",
      "constant": true
    },
    {
      "inputs": [
        {
          "internalType": "bytes32",
          "name": "role",
          "type": "bytes32"
        },
        {
          "internalType": "uint256",
          "name": "index",
          "type": "uint256"
        }
      ],
      "name": "getRoleMember",
      "outputs": [
        {
          "internalType": "address",
          "name": "",
          "type": "address"
        }
      ],
      "stateMutability": "view",
      "type": "function",
      "constant": true
    },
    {
      "inputs": [
        {
          "internalType": "bytes32",
          "name": "role",
          "type": "bytes32"
        }
      ],
      "name": "getRoleMemberCount",
      "outputs": [
        {
          "internalType": "uint256",
          "name": "",
          "type": "uint256"
        }
      ],
      "stateMutability": "view",
      "type": "function",
      "constant": true
    },
    {
      "inputs": [
        {
          "internalType": "bytes32",
          "name": "role",
          "type": "bytes32"
        },
        {
          "internalType": "address",
          "name": "account",
          "type": "address"
        }
      ],
      "name": "grantRole",
      "outputs": [],
      "stateMutability": "nonpayable",
      "type": "function"
    },
    {
      "inputs": [
        {
          "internalType": "bytes32",
          "name": "role",
          "type": "bytes32"
        },
        {
          "internalType": "address",
          "name": "account",
          "type": "address"
        }
      ],
      "name": "hasRole",
      "outputs": [
        {
          "internalType": "bool",
          "name": "",
          "type": "bool"
        }
      ],
      "stateMutability": "view",
      "type": "function",
      "constant": true
    },
    {
      "inputs": [
        {
          "internalType": "bytes32",
          "name": "role",
          "type": "bytes32"
        },
        {
          "internalType": "address",
          "name": "account",
          "type": "address"
        }
      ],
      "name": "renounceRole",
      "outputs": [],
      "stateMutability": "nonpayable",
      "type": "function"
    },
    {
      "inputs": [
        {
          "internalType": "bytes32",
          "name": "role",
          "type": "bytes32"
        },
        {
          "internalType": "address",
          "name": "account",
          "type": "address"
        }
      ],
      "name": "revokeRole",
      "outputs": [],
      "stateMutability": "nonpayable",
      "type": "function"
    },
    {
      "inputs": [
        {
          "internalType": "bytes4",
          "name": "interfaceId",
          "type": "bytes4"
        }
      ],
      "name": "supportsInterface",
      "outputs": [
        {
          "internalType": "bool",
          "name": "",
          "type": "bool"
        }
      ],
      "stateMutability": "view",
      "type": "function",
      "constant": true
    },
    {
      "inputs": [
        {
          "internalType": "uint256",
          "name": "_feeRate",
          "type": "uint256"
        }
      ],
      "name": "setFeeRate",
      "outputs": [],
      "stateMutability": "nonpayable",
      "type": "function"
    },
    {
      "inputs": [
        {
          "internalType": "uint256",
          "name": "_feeRate",
          "type": "uint256"
        }
      ],
      "name": "setAirdropRate",
      "outputs": [],
      "stateMutability": "nonpayable",
      "type": "function"
    },
    {
      "inputs": [
        {
          "internalType": "address payable",
          "name": "toAddress",
          "type": "address"
        }
      ],
      "name": "tip",
      "outputs": [],
      "stateMutability": "payable",
      "type": "function",
      "payable": true
    },
    {
      "inputs": [
        {
          "internalType": "address payable[]",
          "name": "accountAddress",
          "type": "address[]"
        }
      ],
      "name": "airDrop",
      "outputs": [],
      "stateMutability": "payable",
      "type": "function",
      "payable": true
    },
    {
      "inputs": [
        {
          "internalType": "uint256",
          "name": "amount",
          "type": "uint256"
        },
        {
          "internalType": "bytes32",
          "name": "reason",
          "type": "bytes32"
        },
        {
          "internalType": "bytes",
          "name": "data",
          "type": "bytes"
        },
        {
          "internalType": "bytes[]",
          "name": "signatures",
          "type": "bytes[]"
        }
      ],
      "name": "withdraw",
      "outputs": [],
      "stateMutability": "nonpayable",
      "type": "function"
    }
  ],
  "bytecode": "0x608060405267016345785d8a00006003556702c68af0bb1400006004553480156200002957600080fd5b506001600281905550620000476000801b336200004d60201b60201c565b620002e3565b6200005f82826200006360201b60201c565b5050565b6200007a8282620000ab60201b620010471760201c565b620000a681600160008581526020019081526020016000206200019c60201b620011271790919060201c565b505050565b620000bd8282620001d460201b60201c565b6200019857600160008084815260200190815260200160002060000160008373ffffffffffffffffffffffffffffffffffffffff1673ffffffffffffffffffffffffffffffffffffffff16815260200190815260200160002060006101000a81548160ff0219169083151502179055506200013d6200023e60201b60201c565b73ffffffffffffffffffffffffffffffffffffffff168173ffffffffffffffffffffffffffffffffffffffff16837f2f8788117e7eff1d82e926ec794901d17c78024a50270940304540a733656f0d60405160405180910390a45b5050565b6000620001cc836000018373ffffffffffffffffffffffffffffffffffffffff1660001b6200024660201b60201c565b905092915050565b600080600084815260200190815260200160002060000160008373ffffffffffffffffffffffffffffffffffffffff1673ffffffffffffffffffffffffffffffffffffffff16815260200190815260200160002060009054906101000a900460ff16905092915050565b600033905090565b60006200025a8383620002c060201b60201c565b620002b5578260000182908060018154018082558091505060019003906000526020600020016000909190919091505582600001805490508360010160008481526020019081526020016000208190555060019050620002ba565b600090505b92915050565b600080836001016000848152602001908152602001600020541415905092915050565b61328680620002f36000396000f3fe6080604052600436106100f25760003560e01c80639010d07c1161008a578063ac733ef711610059578063ac733ef71461032c578063ca15c87314610348578063d547741f14610385578063e357dffb146103ae576100f2565b80639010d07c1461025c57806391d1485414610299578063978bbdb9146102d6578063a217fddf14610301576100f2565b806336568abe116100c657806336568abe146101b657806345596e2e146101df5780637659b613146102085780638891cf0d14610231576100f2565b8062b6849f146100f757806301ffc9a714610113578063248a9ca3146101505780632f2ff15d1461018d575b600080fd5b610111600480360381019061010c9190611e7c565b6103d7565b005b34801561011f57600080fd5b5061013a60048036038101906101359190611f1d565b610626565b6040516101479190611f65565b60405180910390f35b34801561015c57600080fd5b5061017760048036038101906101729190611fb6565b6106a0565b6040516101849190611ff2565b60405180910390f35b34801561019957600080fd5b506101b460048036038101906101af919061204b565b6106bf565b005b3480156101c257600080fd5b506101dd60048036038101906101d8919061204b565b6106e8565b005b3480156101eb57600080fd5b50610206600480360381019061020191906120c1565b61076b565b005b34801561021457600080fd5b5061022f600480360381019061022a91906121fe565b6107d5565b005b34801561023d57600080fd5b50610246610d42565b60405161025391906122b1565b60405180910390f35b34801561026857600080fd5b50610283600480360381019061027e91906122cc565b610d48565b604051610290919061231b565b60405180910390f35b3480156102a557600080fd5b506102c060048036038101906102bb919061204b565b610d77565b6040516102cd9190611f65565b60405180910390f35b3480156102e257600080fd5b506102eb610de1565b6040516102f891906122b1565b60405180910390f35b34801561030d57600080fd5b50610316610de7565b6040516103239190611ff2565b60405180910390f35b61034660048036038101906103419190612336565b610dee565b005b34801561035457600080fd5b5061036f600480360381019061036a9190611fb6565b610f90565b60405161037c91906122b1565b60405180910390f35b34801561039157600080fd5b506103ac60048036038101906103a7919061204b565b610fb4565b005b3480156103ba57600080fd5b506103d560048036038101906103d091906120c1565b610fdd565b005b60028054141561041c576040517f08c379a0000000000000000000000000000000000000000000000000000000008152600401610413906123c0565b60405180910390fd5b600280819055506000815111610467576040517f08c379a000000000000000000000000000000000000000000000000000000000815260040161045e9061242c565b60405180910390fd5b60008151670de0b6b3a764000034600454670de0b6b3a764000061048b919061247b565b61049591906124af565b61049f9190612538565b6104a99190612538565b905060005b82518160ff161015610619576000838260ff16815181106104d2576104d1612569565b5b602002602001015173ffffffffffffffffffffffffffffffffffffffff16836040516104fd906125c9565b60006040518083038185875af1925050503d806000811461053a576040519150601f19603f3d011682016040523d82523d6000602084013e61053f565b606091505b5050905080610583576040517f08c379a000000000000000000000000000000000000000000000000000000000815260040161057a9061262a565b60405180910390fd5b838260ff168151811061059957610598612569565b5b602002602001015173ffffffffffffffffffffffffffffffffffffffff163373ffffffffffffffffffffffffffffffffffffffff167f44347b1aec7858b9ab924df67243a402f4afd5e7d5f045176cde4c521350b88b856040516105fd91906122b1565b60405180910390a350808061061190612657565b9150506104ae565b5050600160028190555050565b60007f5a05180f000000000000000000000000000000000000000000000000000000007bffffffffffffffffffffffffffffffffffffffffffffffffffffffff1916827bffffffffffffffffffffffffffffffffffffffffffffffffffffffff19161480610699575061069882611157565b5b9050919050565b6000806000838152602001908152602001600020600101549050919050565b6106c8826106a0565b6106d9816106d46111d1565b6111d9565b6106e38383611276565b505050565b6106f06111d1565b73ffffffffffffffffffffffffffffffffffffffff168173ffffffffffffffffffffffffffffffffffffffff161461075d576040517f08c379a0000000000000000000000000000000000000000000000000000000008152600401610754906126f3565b60405180910390fd5b61076782826112aa565b5050565b6000801b6107808161077b6111d1565b6111d9565b670de0b6b3a764000082106107ca576040517f08c379a00000000000000000000000000000000000000000000000000000000081526004016107c190612785565b60405180910390fd5b816003819055505050565b60028054141561081a576040517f08c379a0000000000000000000000000000000000000000000000000000000008152600401610811906123c0565b60405180910390fd5b60028081905550818190506108316000801b610f90565b14610871576040517f08c379a0000000000000000000000000000000000000000000000000000000008152600401610868906127f1565b60405180910390fd5b6000838051906020012090506000610888826112de565b90506000805b858590508160ff161015610ab85736600087878460ff168181106108b5576108b4612569565b5b90506020028101906108c79190612820565b91509150600061092483838080601f016020809104026020016040519081016040528093929190818152602001838380828437600081840152601f19601f820116905080830192505050505050508761130e90919063ffffffff16565b90506109336000801b82610d77565b610972576040517f08c379a0000000000000000000000000000000000000000000000000000000008152600401610969906128cf565b60405180910390fd5b60058383604051610984929190612914565b908152602001604051809103902060008273ffffffffffffffffffffffffffffffffffffffff1673ffffffffffffffffffffffffffffffffffffffff16815260200190815260200160002060009054906101000a900460ff1615610a1d576040517f08c379a0000000000000000000000000000000000000000000000000000000008152600401610a149061299f565b60405180910390fd5b600185610a2a91906129bf565b9450600160058484604051610a40929190612914565b908152602001604051809103902060008373ffffffffffffffffffffffffffffffffffffffff1673ffffffffffffffffffffffffffffffffffffffff16815260200190815260200160002060006101000a81548160ff0219169083151502179055505050508080610ab090612657565b91505061088e565b50610ac56000801b610f90565b8160ff1614610b09576040517f08c379a0000000000000000000000000000000000000000000000000000000008152600401610b0090612a42565b60405180910390fd5b60008087806020019051810190610b209190612a8c565b91509150898214610b66576040517f08c379a0000000000000000000000000000000000000000000000000000000008152600401610b5d90612b18565b60405180910390fd5b888114610ba8576040517f08c379a0000000000000000000000000000000000000000000000000000000008152600401610b9f90612b84565b60405180910390fd5b6000479050808b1115610bf0576040517f08c379a0000000000000000000000000000000000000000000000000000000008152600401610be790612bf0565b60405180910390fd5b6000610bfe6000801b610f90565b8c610c099190612538565b905060005b610c1a6000801b610f90565b8160ff161015610cf3576000610c366000801b8360ff16610d48565b73ffffffffffffffffffffffffffffffffffffffff1683604051610c59906125c9565b60006040518083038185875af1925050503d8060008114610c96576040519150601f19603f3d011682016040523d82523d6000602084013e610c9b565b606091505b5050905080610cdf576040517f08c379a0000000000000000000000000000000000000000000000000000000008152600401610cd690612c5c565b60405180910390fd5b508080610ceb90612657565b915050610c0e565b508a7f7403cafb32164b082ee581e5bd17d85dd82f2e64cdd8bd729ea9435928f7433a82604051610d2491906122b1565b60405180910390a25050505050505060016002819055505050505050565b60045481565b6000610d6f826001600086815260200190815260200160002061133590919063ffffffff16565b905092915050565b600080600084815260200190815260200160002060000160008373ffffffffffffffffffffffffffffffffffffffff1673ffffffffffffffffffffffffffffffffffffffff16815260200190815260200160002060009054906101000a900460ff16905092915050565b60035481565b6000801b81565b600280541415610e33576040517f08c379a0000000000000000000000000000000000000000000000000000000008152600401610e2a906123c0565b60405180910390fd5b600280819055506000670de0b6b3a764000034600354670de0b6b3a7640000610e5c919061247b565b610e6691906124af565b610e709190612538565b905060008273ffffffffffffffffffffffffffffffffffffffff1682604051610e98906125c9565b60006040518083038185875af1925050503d8060008114610ed5576040519150601f19603f3d011682016040523d82523d6000602084013e610eda565b606091505b5050905080610f1e576040517f08c379a0000000000000000000000000000000000000000000000000000000008152600401610f159061262a565b60405180910390fd5b8273ffffffffffffffffffffffffffffffffffffffff163373ffffffffffffffffffffffffffffffffffffffff167fcbefbf6a902aa93a9aafdd30aefd16e61f6c015bbf5fcaccfdf1d29d0c84e7d084604051610f7b91906122b1565b60405180910390a35050600160028190555050565b6000610fad6001600084815260200190815260200160002061134f565b9050919050565b610fbd826106a0565b610fce81610fc96111d1565b6111d9565b610fd883836112aa565b505050565b6000801b610ff281610fed6111d1565b6111d9565b670de0b6b3a7640000821061103c576040517f08c379a000000000000000000000000000000000000000000000000000000000815260040161103390612785565b60405180910390fd5b816004819055505050565b6110518282610d77565b61112357600160008084815260200190815260200160002060000160008373ffffffffffffffffffffffffffffffffffffffff1673ffffffffffffffffffffffffffffffffffffffff16815260200190815260200160002060006101000a81548160ff0219169083151502179055506110c86111d1565b73ffffffffffffffffffffffffffffffffffffffff168173ffffffffffffffffffffffffffffffffffffffff16837f2f8788117e7eff1d82e926ec794901d17c78024a50270940304540a733656f0d60405160405180910390a45b5050565b600061114f836000018373ffffffffffffffffffffffffffffffffffffffff1660001b611364565b905092915050565b60007f7965db0b000000000000000000000000000000000000000000000000000000007bffffffffffffffffffffffffffffffffffffffffffffffffffffffff1916827bffffffffffffffffffffffffffffffffffffffffffffffffffffffff191614806111ca57506111c9826113d4565b5b9050919050565b600033905090565b6111e38282610d77565b611272576112088173ffffffffffffffffffffffffffffffffffffffff16601461143e565b6112168360001c602061143e565b604051602001611227929190612d8e565b6040516020818303038152906040526040517f08c379a00000000000000000000000000000000000000000000000000000000081526004016112699190612e01565b60405180910390fd5b5050565b6112808282611047565b6112a5816001600085815260200190815260200160002061112790919063ffffffff16565b505050565b6112b4828261167a565b6112d9816001600085815260200190815260200160002061175b90919063ffffffff16565b505050565b6000816040516020016112f19190612e90565b604051602081830303815290604052805190602001209050919050565b600080600061131d858561178b565b9150915061132a8161180e565b819250505092915050565b600061134483600001836119e3565b60001c905092915050565b600061135d82600001611a0e565b9050919050565b60006113708383611a1f565b6113c95782600001829080600181540180825580915050600190039060005260206000200160009091909190915055826000018054905083600101600084815260200190815260200160002081905550600190506113ce565b600090505b92915050565b60007f01ffc9a7000000000000000000000000000000000000000000000000000000007bffffffffffffffffffffffffffffffffffffffffffffffffffffffff1916827bffffffffffffffffffffffffffffffffffffffffffffffffffffffff1916149050919050565b60606000600283600261145191906124af565b61145b9190612eb6565b67ffffffffffffffff81111561147457611473611cdb565b5b6040519080825280601f01601f1916602001820160405280156114a65781602001600182028036833780820191505090505b5090507f3000000000000000000000000000000000000000000000000000000000000000816000815181106114de576114dd612569565b5b60200101907effffffffffffffffffffffffffffffffffffffffffffffffffffffffffffff1916908160001a9053507f78000000000000000000000000000000000000000000000000000000000000008160018151811061154257611541612569565b5b60200101907effffffffffffffffffffffffffffffffffffffffffffffffffffffffffffff1916908160001a9053506000600184600261158291906124af565b61158c9190612eb6565b90505b600181111561162c577f3031323334353637383961626364656600000000000000000000000000000000600f8616601081106115ce576115cd612569565b5b1a60f81b8282815181106115e5576115e4612569565b5b60200101907effffffffffffffffffffffffffffffffffffffffffffffffffffffffffffff1916908160001a905350600485901c94508061162590612f0c565b905061158f565b5060008414611670576040517f08c379a000000000000000000000000000000000000000000000000000000000815260040161166790612f82565b60405180910390fd5b8091505092915050565b6116848282610d77565b1561175757600080600084815260200190815260200160002060000160008373ffffffffffffffffffffffffffffffffffffffff1673ffffffffffffffffffffffffffffffffffffffff16815260200190815260200160002060006101000a81548160ff0219169083151502179055506116fc6111d1565b73ffffffffffffffffffffffffffffffffffffffff168173ffffffffffffffffffffffffffffffffffffffff16837ff6391f5c32d9c69d2a47ea670b442974b53935d1edc7fd64eb21e047a839171b60405160405180910390a45b5050565b6000611783836000018373ffffffffffffffffffffffffffffffffffffffff1660001b611a42565b905092915050565b6000806041835114156117cd5760008060006020860151925060408601519150606086015160001a90506117c187828585611b56565b94509450505050611807565b6040835114156117fe5760008060208501519150604085015190506117f3868383611c63565b935093505050611807565b60006002915091505b9250929050565b6000600481111561182257611821612fa2565b5b81600481111561183557611834612fa2565b5b1415611840576119e0565b6001600481111561185457611853612fa2565b5b81600481111561186757611866612fa2565b5b14156118a8576040517f08c379a000000000000000000000000000000000000000000000000000000000815260040161189f9061301d565b60405180910390fd5b600260048111156118bc576118bb612fa2565b5b8160048111156118cf576118ce612fa2565b5b1415611910576040517f08c379a000000000000000000000000000000000000000000000000000000000815260040161190790613089565b60405180910390fd5b6003600481111561192457611923612fa2565b5b81600481111561193757611936612fa2565b5b1415611978576040517f08c379a000000000000000000000000000000000000000000000000000000000815260040161196f9061311b565b60405180910390fd5b60048081111561198b5761198a612fa2565b5b81600481111561199e5761199d612fa2565b5b14156119df576040517f08c379a00000000000000000000000000000000000000000000000000000000081526004016119d6906131ad565b60405180910390fd5b5b50565b60008260000182815481106119fb576119fa612569565b5b9060005260206000200154905092915050565b600081600001805490509050919050565b600080836001016000848152602001908152602001600020541415905092915050565b60008083600101600084815260200190815260200160002054905060008114611b4a576000600182611a74919061247b565b9050600060018660000180549050611a8c919061247b565b9050818114611afb576000866000018281548110611aad57611aac612569565b5b9060005260206000200154905080876000018481548110611ad157611ad0612569565b5b90600052602060002001819055508387600101600083815260200190815260200160002081905550505b85600001805480611b0f57611b0e6131cd565b5b600190038181906000526020600020016000905590558560010160008681526020019081526020016000206000905560019350505050611b50565b60009150505b92915050565b6000807f7fffffffffffffffffffffffffffffff5d576e7357a4501ddfe92f46681b20a08360001c1115611b91576000600391509150611c5a565b601b8560ff1614158015611ba95750601c8560ff1614155b15611bbb576000600491509150611c5a565b600060018787878760405160008152602001604052604051611be0949392919061320b565b6020604051602081039080840390855afa158015611c02573d6000803e3d6000fd5b505050602060405103519050600073ffffffffffffffffffffffffffffffffffffffff168173ffffffffffffffffffffffffffffffffffffffff161415611c5157600060019250925050611c5a565b80600092509250505b94509492505050565b6000806000807f7fffffffffffffffffffffffffffffffffffffffffffffffffffffffffffffff85169150601b8560ff1c019050611ca387828885611b56565b935093505050935093915050565b6000604051905090565b600080fd5b600080fd5b600080fd5b6000601f19601f8301169050919050565b7f4e487b7100000000000000000000000000000000000000000000000000000000600052604160045260246000fd5b611d1382611cca565b810181811067ffffffffffffffff82111715611d3257611d31611cdb565b5b80604052505050565b6000611d45611cb1565b9050611d518282611d0a565b919050565b600067ffffffffffffffff821115611d7157611d70611cdb565b5b602082029050602081019050919050565b600080fd5b600073ffffffffffffffffffffffffffffffffffffffff82169050919050565b6000611db282611d87565b9050919050565b611dc281611da7565b8114611dcd57600080fd5b50565b600081359050611ddf81611db9565b92915050565b6000611df8611df384611d56565b611d3b565b90508083825260208201905060208402830185811115611e1b57611e1a611d82565b5b835b81811015611e445780611e308882611dd0565b845260208401935050602081019050611e1d565b5050509392505050565b600082601f830112611e6357611e62611cc5565b5b8135611e73848260208601611de5565b91505092915050565b600060208284031215611e9257611e91611cbb565b5b600082013567ffffffffffffffff811115611eb057611eaf611cc0565b5b611ebc84828501611e4e565b91505092915050565b60007fffffffff0000000000000000000000000000000000000000000000000000000082169050919050565b611efa81611ec5565b8114611f0557600080fd5b50565b600081359050611f1781611ef1565b92915050565b600060208284031215611f3357611f32611cbb565b5b6000611f4184828501611f08565b91505092915050565b60008115159050919050565b611f5f81611f4a565b82525050565b6000602082019050611f7a6000830184611f56565b92915050565b6000819050919050565b611f9381611f80565b8114611f9e57600080fd5b50565b600081359050611fb081611f8a565b92915050565b600060208284031215611fcc57611fcb611cbb565b5b6000611fda84828501611fa1565b91505092915050565b611fec81611f80565b82525050565b60006020820190506120076000830184611fe3565b92915050565b600061201882611d87565b9050919050565b6120288161200d565b811461203357600080fd5b50565b6000813590506120458161201f565b92915050565b6000806040838503121561206257612061611cbb565b5b600061207085828601611fa1565b925050602061208185828601612036565b9150509250929050565b6000819050919050565b61209e8161208b565b81146120a957600080fd5b50565b6000813590506120bb81612095565b92915050565b6000602082840312156120d7576120d6611cbb565b5b60006120e5848285016120ac565b91505092915050565b600080fd5b600067ffffffffffffffff82111561210e5761210d611cdb565b5b61211782611cca565b9050602081019050919050565b82818337600083830152505050565b6000612146612141846120f3565b611d3b565b905082815260208101848484011115612162576121616120ee565b5b61216d848285612124565b509392505050565b600082601f83011261218a57612189611cc5565b5b813561219a848260208601612133565b91505092915050565b600080fd5b60008083601f8401126121be576121bd611cc5565b5b8235905067ffffffffffffffff8111156121db576121da6121a3565b5b6020830191508360208202830111156121f7576121f6611d82565b5b9250929050565b60008060008060006080868803121561221a57612219611cbb565b5b6000612228888289016120ac565b955050602061223988828901611fa1565b945050604086013567ffffffffffffffff81111561225a57612259611cc0565b5b61226688828901612175565b935050606086013567ffffffffffffffff81111561228757612286611cc0565b5b612293888289016121a8565b92509250509295509295909350565b6122ab8161208b565b82525050565b60006020820190506122c660008301846122a2565b92915050565b600080604083850312156122e3576122e2611cbb565b5b60006122f185828601611fa1565b9250506020612302858286016120ac565b9150509250929050565b6123158161200d565b82525050565b6000602082019050612330600083018461230c565b92915050565b60006020828403121561234c5761234b611cbb565b5b600061235a84828501611dd0565b91505092915050565b600082825260208201905092915050565b7f5265656e7472616e637947756172643a207265656e7472616e742063616c6c00600082015250565b60006123aa601f83612363565b91506123b582612374565b602082019050919050565b600060208201905081810360008301526123d98161239d565b9050919050565b7f4164647265737365732063616e6e6f7420626520656d70747900000000000000600082015250565b6000612416601983612363565b9150612421826123e0565b602082019050919050565b6000602082019050818103600083015261244581612409565b9050919050565b7f4e487b7100000000000000000000000000000000000000000000000000000000600052601160045260246000fd5b60006124868261208b565b91506124918361208b565b9250828210156124a4576124a361244c565b5b828203905092915050565b60006124ba8261208b565b91506124c58361208b565b9250817fffffffffffffffffffffffffffffffffffffffffffffffffffffffffffffffff04831182151516156124fe576124fd61244c565b5b828202905092915050565b7f4e487b7100000000000000000000000000000000000000000000000000000000600052601260045260246000fd5b60006125438261208b565b915061254e8361208b565b92508261255e5761255d612509565b5b828204905092915050565b7f4e487b7100000000000000000000000000000000000000000000000000000000600052603260045260246000fd5b600081905092915050565b50565b60006125b3600083612598565b91506125be826125a3565b600082019050919050565b60006125d4826125a6565b9150819050919050565b7f4661696c656420746f2073656e6420546f6b656e000000000000000000000000600082015250565b6000612614601483612363565b915061261f826125de565b602082019050919050565b6000602082019050818103600083015261264381612607565b9050919050565b600060ff82169050919050565b60006126628261264a565b915060ff8214156126765761267561244c565b5b600182019050919050565b7f416363657373436f6e74726f6c3a2063616e206f6e6c792072656e6f756e636560008201527f20726f6c657320666f722073656c660000000000000000000000000000000000602082015250565b60006126dd602f83612363565b91506126e882612681565b604082019050919050565b6000602082019050818103600083015261270c816126d0565b9050919050565b7f496e76616c696420616d6f756e742c2063616e6e6f742062652067726561746560008201527f72207468616e2031206574686572000000000000000000000000000000000000602082015250565b600061276f602e83612363565b915061277a82612713565b604082019050919050565b6000602082019050818103600083015261279e81612762565b9050919050565b7f4e6f7420656e6f756768207369676e6174757265730000000000000000000000600082015250565b60006127db601583612363565b91506127e6826127a5565b602082019050919050565b6000602082019050818103600083015261280a816127ce565b9050919050565b600080fd5b600080fd5b600080fd5b6000808335600160200384360303811261283d5761283c612811565b5b80840192508235915067ffffffffffffffff82111561285f5761285e612816565b5b60208301925060018202360383131561287b5761287a61281b565b5b509250929050565b7f5369676e6572206973206e6f742061646d696e00000000000000000000000000600082015250565b60006128b9601383612363565b91506128c482612883565b602082019050919050565b600060208201905081810360008301526128e8816128ac565b9050919050565b60006128fb8385612598565b9350612908838584612124565b82840190509392505050565b60006129218284866128ef565b91508190509392505050565b7f526570656174696e672061646d696e207369676e6174757265206e6f7420766160008201527f6c69640000000000000000000000000000000000000000000000000000000000602082015250565b6000612989602383612363565b91506129948261292d565b604082019050919050565b600060208201905081810360008301526129b88161297c565b9050919050565b60006129ca8261264a565b91506129d58361264a565b92508260ff038211156129eb576129ea61244c565b5b828201905092915050565b7f4e6f7420616c6c207369676e617475726573206172652076616c696400000000600082015250565b6000612a2c601c83612363565b9150612a37826129f6565b602082019050919050565b60006020820190508181036000830152612a5b81612a1f565b9050919050565b600081519050612a7181612095565b92915050565b600081519050612a8681611f8a565b92915050565b60008060408385031215612aa357612aa2611cbb565b5b6000612ab185828601612a62565b9250506020612ac285828601612a77565b9150509250929050565b7f48617368656420616d6f756e74206e6f742076616c6964000000000000000000600082015250565b6000612b02601783612363565b9150612b0d82612acc565b602082019050919050565b60006020820190508181036000830152612b3181612af5565b9050919050565b7f48617368656420726561736f6e206e6f742076616c6964000000000000000000600082015250565b6000612b6e601783612363565b9150612b7982612b38565b602082019050919050565b60006020820190508181036000830152612b9d81612b61565b9050919050565b7f4e6f7420656e6f7567682062616c616e636520746f2077697468647261770000600082015250565b6000612bda601e83612363565b9150612be582612ba4565b602082019050919050565b60006020820190508181036000830152612c0981612bcd565b9050919050565b7f4661696c656420746f2077697468647261770000000000000000000000000000600082015250565b6000612c46601283612363565b9150612c5182612c10565b602082019050919050565b60006020820190508181036000830152612c7581612c39565b9050919050565b600081905092915050565b7f416363657373436f6e74726f6c3a206163636f756e7420000000000000000000600082015250565b6000612cbd601783612c7c565b9150612cc882612c87565b601782019050919050565b600081519050919050565b60005b83811015612cfc578082015181840152602081019050612ce1565b83811115612d0b576000848401525b50505050565b6000612d1c82612cd3565b612d268185612c7c565b9350612d36818560208601612cde565b80840191505092915050565b7f206973206d697373696e6720726f6c6520000000000000000000000000000000600082015250565b6000612d78601183612c7c565b9150612d8382612d42565b601182019050919050565b6000612d9982612cb0565b9150612da58285612d11565b9150612db082612d6b565b9150612dbc8284612d11565b91508190509392505050565b6000612dd382612cd3565b612ddd8185612363565b9350612ded818560208601612cde565b612df681611cca565b840191505092915050565b60006020820190508181036000830152612e1b8184612dc8565b905092915050565b7f19457468657265756d205369676e6564204d6573736167653a0a333200000000600082015250565b6000612e59601c83612c7c565b9150612e6482612e23565b601c82019050919050565b6000819050919050565b612e8a612e8582611f80565b612e6f565b82525050565b6000612e9b82612e4c565b9150612ea78284612e79565b60208201915081905092915050565b6000612ec18261208b565b9150612ecc8361208b565b9250827fffffffffffffffffffffffffffffffffffffffffffffffffffffffffffffffff03821115612f0157612f0061244c565b5b828201905092915050565b6000612f178261208b565b91506000821415612f2b57612f2a61244c565b5b600182039050919050565b7f537472696e67733a20686578206c656e67746820696e73756666696369656e74600082015250565b6000612f6c602083612363565b9150612f7782612f36565b602082019050919050565b60006020820190508181036000830152612f9b81612f5f565b9050919050565b7f4e487b7100000000000000000000000000000000000000000000000000000000600052602160045260246000fd5b7f45434453413a20696e76616c6964207369676e61747572650000000000000000600082015250565b6000613007601883612363565b915061301282612fd1565b602082019050919050565b6000602082019050818103600083015261303681612ffa565b9050919050565b7f45434453413a20696e76616c6964207369676e6174757265206c656e67746800600082015250565b6000613073601f83612363565b915061307e8261303d565b602082019050919050565b600060208201905081810360008301526130a281613066565b9050919050565b7f45434453413a20696e76616c6964207369676e6174757265202773272076616c60008201527f7565000000000000000000000000000000000000000000000000000000000000602082015250565b6000613105602283612363565b9150613110826130a9565b604082019050919050565b60006020820190508181036000830152613134816130f8565b9050919050565b7f45434453413a20696e76616c6964207369676e6174757265202776272076616c60008201527f7565000000000000000000000000000000000000000000000000000000000000602082015250565b6000613197602283612363565b91506131a28261313b565b604082019050919050565b600060208201905081810360008301526131c68161318a565b9050919050565b7f4e487b7100000000000000000000000000000000000000000000000000000000600052603160045260246000fd5b6132058161264a565b82525050565b60006080820190506132206000830187611fe3565b61322d60208301866131fc565b61323a6040830185611fe3565b6132476060830184611fe3565b9594505050505056fea26469706673582212206477d07fa43b11d7e8c8c2bc1dfb1f06320bea63f47bcb320d5b280bd16ae29364736f6c634300080a0033",
  "immutableReferences": {},
  "source": "// SPDX-License-Identifier: MIT\npragma solidity ^0.8.10;\n\nimport \"@openzeppelin/contracts/access/AccessControl.sol\";\nimport \"@openzeppelin/contracts/access/AccessControlEnumerable.sol\";\nimport \"@openzeppelin/contracts/utils/Address.sol\";\nimport \"@openzeppelin/contracts/utils/cryptography/ECDSA.sol\";\nimport \"@openzeppelin/contracts/security/ReentrancyGuard.sol\";\n\ncontract TipBot is AccessControlEnumerable, ReentrancyGuard {\n  using ECDSA for bytes32;\n  using Address for address;\n\n  // Start of events declaration\n  event Tip ( address indexed from,  address indexed toAddress, uint256 amount );\n  event AirDrop ( address indexed from, address indexed toAddress, uint256 amount);\n  event Withdraw ( uint256 amount, bytes32 indexed reason);\n\n  // Global variables used in contract\n  uint256 public feeRate = 0.1 ether;\n  uint256 public airdropRate = 0.2 ether;\n\n  mapping( bytes => mapping(address => bool)) signatureLookup;\n\n  constructor(){\n    _setupRole(DEFAULT_ADMIN_ROLE, msg.sender);\n  }\n\n  function setFeeRate( uint256 _feeRate ) public onlyRole(DEFAULT_ADMIN_ROLE) {\n    require( _feeRate < 1 ether, \"Invalid amount, cannot be greater than 1 ether\");\n    feeRate = _feeRate;\n  }\n\n  function setAirdropRate( uint256 _feeRate ) public onlyRole(DEFAULT_ADMIN_ROLE) {\n    require( _feeRate < 1 ether, \"Invalid amount, cannot be greater than 1 ether\");\n    airdropRate = _feeRate;\n  }\n\n  function tip( address payable toAddress ) public payable nonReentrant {\n\n    uint256 newBalance = ((1 ether - feeRate) * msg.value)/1 ether;\n    (bool success, ) = toAddress.call{value: newBalance }(\"\");\n    require(success, \"Failed to send Token\");\n\n    emit Tip( \n      msg.sender,\n      toAddress,\n      newBalance\n    );\n  }\n\n\n  function airDrop ( \n    address payable[] memory accountAddress\n  ) public payable nonReentrant {\n\n    require(accountAddress.length > 0, \"Addresses cannot be empty\");\n    uint256 distributedAmount = ( ((1 ether - airdropRate) * msg.value ) / 1 ether ) / accountAddress.length;\n\n    for(uint8 i = 0; i < accountAddress.length; i++){\n\n    (bool success, ) = accountAddress[i].call{value: distributedAmount }(\"\");\n    require(success, \"Failed to send Token\");\n\n      emit AirDrop(\n        msg.sender,\n        accountAddress[i],\n        distributedAmount\n      );\n    }\n  }\n\n  function withdraw (\n    uint256 amount, \n    bytes32 reason,\n    bytes memory data,\n    bytes[] calldata signatures\n  ) public nonReentrant {\n\n    require( getRoleMemberCount(DEFAULT_ADMIN_ROLE) == signatures.length, \"Not enough signatures\");\n\n    // Extract and verify each signature is valid\n    bytes32 message = keccak256(data);\n    bytes32 hashed = message.toEthSignedMessageHash();\n\n    uint8 validSignatures = 0;\n\n    for (uint8 i = 0; i < signatures.length; i++) {\n        bytes calldata signature = signatures[i];\n        (address signer) = hashed.recover(signature);\n\n        require(hasRole(DEFAULT_ADMIN_ROLE, signer), \"Signer is not admin\");\n        require(!signatureLookup[signature][signer], \"Repeating admin signature not valid\");\n\n        validSignatures += 1;\n        signatureLookup[signature][signer] = true;\n    }\n\n    require( validSignatures == getRoleMemberCount(DEFAULT_ADMIN_ROLE), \"Not all signatures are valid\");\n\n    (uint256 decode_amount, bytes32 decode_reason) = abi.decode(data, (uint256, bytes32) );\n\n    require( decode_amount == amount, \"Hashed amount not valid\");\n    require( decode_reason == reason, \"Hashed reason not valid\");\n    \n    //Perform withdraw action\n    uint contractAmount = address(this).balance;\n    require( amount <= contractAmount, \"Not enough balance to withdraw\" );\n\n    uint256 distributedAmount =  amount / getRoleMemberCount(DEFAULT_ADMIN_ROLE);\n\n    for(uint8 i = 0; i < getRoleMemberCount(DEFAULT_ADMIN_ROLE); i++){\n      (bool success, ) = getRoleMember(DEFAULT_ADMIN_ROLE, i).call{value: distributedAmount }(\"\");\n      require( success, \"Failed to withdraw\" );\n    }\n\n    emit Withdraw(\n      distributedAmount, \n      reason\n    );\n  }\n\n}\n",
  "sourcePath": "/Volumes/Development/solidity/syscoin-tip-bot/solidity/contracts/TipBot.sol",
  "compiler": {
    "name": "solc",
    "version": "0.8.10+commit.fc410830.Emscripten.clang"
  },
  "schemaVersion": "3.4.3",
  "updatedAt": "2022-03-07T13:41:14.102Z",
  "networkType": "ethereum",
  "devdoc": {
    "kind": "dev",
    "methods": {
      "getRoleAdmin(bytes32)": {
        "details": "Returns the admin role that controls `role`. See {grantRole} and {revokeRole}. To change a role's admin, use {_setRoleAdmin}."
      },
      "getRoleMember(bytes32,uint256)": {
        "details": "Returns one of the accounts that have `role`. `index` must be a value between 0 and {getRoleMemberCount}, non-inclusive. Role bearers are not sorted in any particular way, and their ordering may change at any point. WARNING: When using {getRoleMember} and {getRoleMemberCount}, make sure you perform all queries on the same block. See the following https://forum.openzeppelin.com/t/iterating-over-elements-on-enumerableset-in-openzeppelin-contracts/2296[forum post] for more information."
      },
      "getRoleMemberCount(bytes32)": {
        "details": "Returns the number of accounts that have `role`. Can be used together with {getRoleMember} to enumerate all bearers of a role."
      },
      "grantRole(bytes32,address)": {
        "details": "Grants `role` to `account`. If `account` had not been already granted `role`, emits a {RoleGranted} event. Requirements: - the caller must have ``role``'s admin role."
      },
      "hasRole(bytes32,address)": {
        "details": "Returns `true` if `account` has been granted `role`."
      },
      "renounceRole(bytes32,address)": {
        "details": "Revokes `role` from the calling account. Roles are often managed via {grantRole} and {revokeRole}: this function's purpose is to provide a mechanism for accounts to lose their privileges if they are compromised (such as when a trusted device is misplaced). If the calling account had been revoked `role`, emits a {RoleRevoked} event. Requirements: - the caller must be `account`."
      },
      "revokeRole(bytes32,address)": {
        "details": "Revokes `role` from `account`. If `account` had been granted `role`, emits a {RoleRevoked} event. Requirements: - the caller must have ``role``'s admin role."
      },
      "supportsInterface(bytes4)": {
        "details": "See {IERC165-supportsInterface}."
      }
    },
    "version": 1
  },
  "userdoc": {
    "kind": "user",
    "methods": {},
    "version": 1
  }
}