{
  "contractName": "TipBot",
  "abi": [
    {
      "inputs": [],
      "stateMutability": "nonpayable",
      "type": "constructor"
    },
    {
      "anonymous": false,
      "inputs": [
        {
          "indexed": true,
          "internalType": "address",
          "name": "from",
          "type": "address"
        },
        {
          "indexed": true,
          "internalType": "address",
          "name": "toAddress",
          "type": "address"
        },
        {
          "indexed": false,
          "internalType": "uint256",
          "name": "amount",
          "type": "uint256"
        }
      ],
      "name": "AirDrop",
      "type": "event"
    },
    {
      "anonymous": false,
      "inputs": [
        {
          "indexed": true,
          "internalType": "bytes32",
          "name": "role",
          "type": "bytes32"
        },
        {
          "indexed": true,
          "internalType": "bytes32",
          "name": "previousAdminRole",
          "type": "bytes32"
        },
        {
          "indexed": true,
          "internalType": "bytes32",
          "name": "newAdminRole",
          "type": "bytes32"
        }
      ],
      "name": "RoleAdminChanged",
      "type": "event"
    },
    {
      "anonymous": false,
      "inputs": [
        {
          "indexed": true,
          "internalType": "bytes32",
          "name": "role",
          "type": "bytes32"
        },
        {
          "indexed": true,
          "internalType": "address",
          "name": "account",
          "type": "address"
        },
        {
          "indexed": true,
          "internalType": "address",
          "name": "sender",
          "type": "address"
        }
      ],
      "name": "RoleGranted",
      "type": "event"
    },
    {
      "anonymous": false,
      "inputs": [
        {
          "indexed": true,
          "internalType": "bytes32",
          "name": "role",
          "type": "bytes32"
        },
        {
          "indexed": true,
          "internalType": "address",
          "name": "account",
          "type": "address"
        },
        {
          "indexed": true,
          "internalType": "address",
          "name": "sender",
          "type": "address"
        }
      ],
      "name": "RoleRevoked",
      "type": "event"
    },
    {
      "anonymous": false,
      "inputs": [
        {
          "indexed": true,
          "internalType": "address",
          "name": "from",
          "type": "address"
        },
        {
          "indexed": true,
          "internalType": "address",
          "name": "toAddress",
          "type": "address"
        },
        {
          "indexed": false,
          "internalType": "uint256",
          "name": "amount",
          "type": "uint256"
        }
      ],
      "name": "Tip",
      "type": "event"
    },
    {
      "anonymous": false,
      "inputs": [
        {
          "indexed": false,
          "internalType": "uint256",
          "name": "amount",
          "type": "uint256"
        },
        {
          "indexed": true,
          "internalType": "bytes32",
          "name": "reason",
          "type": "bytes32"
        }
      ],
      "name": "Withdraw",
      "type": "event"
    },
    {
      "inputs": [],
      "name": "DEFAULT_ADMIN_ROLE",
      "outputs": [
        {
          "internalType": "bytes32",
          "name": "",
          "type": "bytes32"
        }
      ],
      "stateMutability": "view",
      "type": "function"
    },
    {
      "inputs": [],
      "name": "airdropRate",
      "outputs": [
        {
          "internalType": "uint256",
          "name": "",
          "type": "uint256"
        }
      ],
      "stateMutability": "view",
      "type": "function"
    },
    {
      "inputs": [],
      "name": "feeRate",
      "outputs": [
        {
          "internalType": "uint256",
          "name": "",
          "type": "uint256"
        }
      ],
      "stateMutability": "view",
      "type": "function"
    },
    {
      "inputs": [
        {
          "internalType": "bytes32",
          "name": "role",
          "type": "bytes32"
        }
      ],
      "name": "getRoleAdmin",
      "outputs": [
        {
          "internalType": "bytes32",
          "name": "",
          "type": "bytes32"
        }
      ],
      "stateMutability": "view",
      "type": "function"
    },
    {
      "inputs": [
        {
          "internalType": "bytes32",
          "name": "role",
          "type": "bytes32"
        },
        {
          "internalType": "uint256",
          "name": "index",
          "type": "uint256"
        }
      ],
      "name": "getRoleMember",
      "outputs": [
        {
          "internalType": "address",
          "name": "",
          "type": "address"
        }
      ],
      "stateMutability": "view",
      "type": "function"
    },
    {
      "inputs": [
        {
          "internalType": "bytes32",
          "name": "role",
          "type": "bytes32"
        }
      ],
      "name": "getRoleMemberCount",
      "outputs": [
        {
          "internalType": "uint256",
          "name": "",
          "type": "uint256"
        }
      ],
      "stateMutability": "view",
      "type": "function"
    },
    {
      "inputs": [
        {
          "internalType": "bytes32",
          "name": "role",
          "type": "bytes32"
        },
        {
          "internalType": "address",
          "name": "account",
          "type": "address"
        }
      ],
      "name": "grantRole",
      "outputs": [],
      "stateMutability": "nonpayable",
      "type": "function"
    },
    {
      "inputs": [
        {
          "internalType": "bytes32",
          "name": "role",
          "type": "bytes32"
        },
        {
          "internalType": "address",
          "name": "account",
          "type": "address"
        }
      ],
      "name": "hasRole",
      "outputs": [
        {
          "internalType": "bool",
          "name": "",
          "type": "bool"
        }
      ],
      "stateMutability": "view",
      "type": "function"
    },
    {
      "inputs": [
        {
          "internalType": "bytes32",
          "name": "role",
          "type": "bytes32"
        },
        {
          "internalType": "address",
          "name": "account",
          "type": "address"
        }
      ],
      "name": "renounceRole",
      "outputs": [],
      "stateMutability": "nonpayable",
      "type": "function"
    },
    {
      "inputs": [
        {
          "internalType": "bytes32",
          "name": "role",
          "type": "bytes32"
        },
        {
          "internalType": "address",
          "name": "account",
          "type": "address"
        }
      ],
      "name": "revokeRole",
      "outputs": [],
      "stateMutability": "nonpayable",
      "type": "function"
    },
    {
      "inputs": [
        {
          "internalType": "bytes4",
          "name": "interfaceId",
          "type": "bytes4"
        }
      ],
      "name": "supportsInterface",
      "outputs": [
        {
          "internalType": "bool",
          "name": "",
          "type": "bool"
        }
      ],
      "stateMutability": "view",
      "type": "function"
    },
    {
      "inputs": [
        {
          "internalType": "uint256",
          "name": "_feeRate",
          "type": "uint256"
        }
      ],
      "name": "setFeeRate",
      "outputs": [],
      "stateMutability": "nonpayable",
      "type": "function"
    },
    {
      "inputs": [
        {
          "internalType": "uint256",
          "name": "_feeRate",
          "type": "uint256"
        }
      ],
      "name": "setAirdropRate",
      "outputs": [],
      "stateMutability": "nonpayable",
      "type": "function"
    },
    {
      "inputs": [
        {
          "internalType": "address payable",
          "name": "toAddress",
          "type": "address"
        }
      ],
      "name": "tip",
      "outputs": [],
      "stateMutability": "payable",
      "type": "function"
    },
    {
      "inputs": [
        {
          "internalType": "address payable[]",
          "name": "accountAddress",
          "type": "address[]"
        }
      ],
      "name": "airDrop",
      "outputs": [],
      "stateMutability": "payable",
      "type": "function"
    },
    {
      "inputs": [
        {
          "internalType": "uint256",
          "name": "amount",
          "type": "uint256"
        },
        {
          "internalType": "bytes",
          "name": "data",
          "type": "bytes"
        },
        {
          "internalType": "bytes[]",
          "name": "signatures",
          "type": "bytes[]"
        },
        {
          "internalType": "bytes32",
          "name": "reason",
          "type": "bytes32"
        }
      ],
      "name": "withdraw",
      "outputs": [],
      "stateMutability": "nonpayable",
      "type": "function"
    }
  ],
  "bytecode": "0x608060405267016345785d8a00006003556702c68af0bb1400006004553480156200002957600080fd5b506001600281905550620000476000801b336200004d60201b60201c565b620002e3565b6200005f82826200006360201b60201c565b5050565b6200007a8282620000ab60201b62000fba1760201c565b620000a681600160008581526020019081526020016000206200019c60201b6200109a1790919060201c565b505050565b620000bd8282620001d460201b60201c565b6200019857600160008084815260200190815260200160002060000160008373ffffffffffffffffffffffffffffffffffffffff1673ffffffffffffffffffffffffffffffffffffffff16815260200190815260200160002060006101000a81548160ff0219169083151502179055506200013d6200023e60201b60201c565b73ffffffffffffffffffffffffffffffffffffffff168173ffffffffffffffffffffffffffffffffffffffff16837f2f8788117e7eff1d82e926ec794901d17c78024a50270940304540a733656f0d60405160405180910390a45b5050565b6000620001cc836000018373ffffffffffffffffffffffffffffffffffffffff1660001b6200024660201b60201c565b905092915050565b600080600084815260200190815260200160002060000160008373ffffffffffffffffffffffffffffffffffffffff1673ffffffffffffffffffffffffffffffffffffffff16815260200190815260200160002060009054906101000a900460ff16905092915050565b600033905090565b60006200025a8383620002c060201b60201c565b620002b5578260000182908060018154018082558091505060019003906000526020600020016000909190919091505582600001805490508360010160008481526020019081526020016000208190555060019050620002ba565b600090505b92915050565b600080836001016000848152602001908152602001600020541415905092915050565b61300d80620002f36000396000f3fe6080604052600436106100f25760003560e01c80639010d07c1161008a578063ac733ef711610059578063ac733ef71461032c578063ca15c87314610348578063d547741f14610385578063e357dffb146103ae576100f2565b80639010d07c1461025c57806391d1485414610299578063978bbdb9146102d6578063a217fddf14610301576100f2565b80632f2ff15d116100c65780632f2ff15d146101b657806336568abe146101df57806345596e2e146102085780638891cf0d14610231576100f2565b8062b6849f146100f757806301ffc9a71461011357806303786fee14610150578063248a9ca314610179575b600080fd5b610111600480360381019061010c9190611def565b6103d7565b005b34801561011f57600080fd5b5061013a60048036038101906101359190611e90565b610626565b6040516101479190611ed8565b60405180910390f35b34801561015c57600080fd5b506101776004803603810190610172919061206f565b6106a0565b005b34801561018557600080fd5b506101a0600480360381019061019b9190612113565b610b80565b6040516101ad919061214f565b60405180910390f35b3480156101c257600080fd5b506101dd60048036038101906101d891906121a8565b610b9f565b005b3480156101eb57600080fd5b50610206600480360381019061020191906121a8565b610bc8565b005b34801561021457600080fd5b5061022f600480360381019061022a91906121e8565b610c4b565b005b34801561023d57600080fd5b50610246610cb5565b6040516102539190612224565b60405180910390f35b34801561026857600080fd5b50610283600480360381019061027e919061223f565b610cbb565b604051610290919061228e565b60405180910390f35b3480156102a557600080fd5b506102c060048036038101906102bb91906121a8565b610cea565b6040516102cd9190611ed8565b60405180910390f35b3480156102e257600080fd5b506102eb610d54565b6040516102f89190612224565b60405180910390f35b34801561030d57600080fd5b50610316610d5a565b604051610323919061214f565b60405180910390f35b610346600480360381019061034191906122a9565b610d61565b005b34801561035457600080fd5b5061036f600480360381019061036a9190612113565b610f03565b60405161037c9190612224565b60405180910390f35b34801561039157600080fd5b506103ac60048036038101906103a791906121a8565b610f27565b005b3480156103ba57600080fd5b506103d560048036038101906103d091906121e8565b610f50565b005b60028054141561041c576040517f08c379a000000000000000000000000000000000000000000000000000000000815260040161041390612333565b60405180910390fd5b600280819055506000815111610467576040517f08c379a000000000000000000000000000000000000000000000000000000000815260040161045e9061239f565b60405180910390fd5b60008151670de0b6b3a764000034600454670de0b6b3a764000061048b91906123ee565b6104959190612422565b61049f91906124ab565b6104a991906124ab565b905060005b82518160ff161015610619576000838260ff16815181106104d2576104d16124dc565b5b602002602001015173ffffffffffffffffffffffffffffffffffffffff16836040516104fd9061253c565b60006040518083038185875af1925050503d806000811461053a576040519150601f19603f3d011682016040523d82523d6000602084013e61053f565b606091505b5050905080610583576040517f08c379a000000000000000000000000000000000000000000000000000000000815260040161057a9061259d565b60405180910390fd5b838260ff1681518110610599576105986124dc565b5b602002602001015173ffffffffffffffffffffffffffffffffffffffff163373ffffffffffffffffffffffffffffffffffffffff167f44347b1aec7858b9ab924df67243a402f4afd5e7d5f045176cde4c521350b88b856040516105fd9190612224565b60405180910390a3508080610611906125ca565b9150506104ae565b5050600160028190555050565b60007f5a05180f000000000000000000000000000000000000000000000000000000007bffffffffffffffffffffffffffffffffffffffffffffffffffffffff1916827bffffffffffffffffffffffffffffffffffffffffffffffffffffffff191614806106995750610698826110ca565b5b9050919050565b6002805414156106e5576040517f08c379a00000000000000000000000000000000000000000000000000000000081526004016106dc90612333565b60405180910390fd5b60028081905550828290506106fc6000801b610f03565b1461073c576040517f08c379a000000000000000000000000000000000000000000000000000000000815260040161073390612640565b60405180910390fd5b600084805190602001209050600061075382611144565b90506000805b868690508160ff1610156109975736600088888460ff168181106107805761077f6124dc565b5b9050602002810190610792919061266f565b9150915060006107ef83838080601f016020809104026020016040519081016040528093929190818152602001838380828437600081840152601f19601f820116905080830192505050505050508761117490919063ffffffff16565b9050600560008273ffffffffffffffffffffffffffffffffffffffff1673ffffffffffffffffffffffffffffffffffffffff168152602001908152602001600020600089815260200190815260200160002060009054906101000a900460ff161561088f576040517f08c379a000000000000000000000000000000000000000000000000000000000815260040161088690612744565b60405180910390fd5b61089c6000801b82610cea565b80156109035750600560008273ffffffffffffffffffffffffffffffffffffffff1673ffffffffffffffffffffffffffffffffffffffff168152602001908152602001600020600089815260200190815260200160002060009054906101000a900460ff16155b15610981576001856109159190612764565b94506001600560008373ffffffffffffffffffffffffffffffffffffffff1673ffffffffffffffffffffffffffffffffffffffff16815260200190815260200160002060008a815260200190815260200160002060006101000a81548160ff0219169083151502179055505b505050808061098f906125ca565b915050610759565b506109a46000801b610f03565b8160ff16146109e8576040517f08c379a00000000000000000000000000000000000000000000000000000000081526004016109df906127e7565b60405180910390fd5b600047905080891115610a30576040517f08c379a0000000000000000000000000000000000000000000000000000000008152600401610a2790612853565b60405180910390fd5b6000610a3e6000801b610f03565b8a610a4991906124ab565b905060005b610a5a6000801b610f03565b8160ff161015610b33576000610a766000801b8360ff16610cbb565b73ffffffffffffffffffffffffffffffffffffffff1683604051610a999061253c565b60006040518083038185875af1925050503d8060008114610ad6576040519150601f19603f3d011682016040523d82523d6000602084013e610adb565b606091505b5050905080610b1f576040517f08c379a0000000000000000000000000000000000000000000000000000000008152600401610b16906128bf565b60405180910390fd5b508080610b2b906125ca565b915050610a4e565b50857f7403cafb32164b082ee581e5bd17d85dd82f2e64cdd8bd729ea9435928f7433a82604051610b649190612224565b60405180910390a2505050505060016002819055505050505050565b6000806000838152602001908152602001600020600101549050919050565b610ba882610b80565b610bb981610bb461119b565b6111a3565b610bc38383611240565b505050565b610bd061119b565b73ffffffffffffffffffffffffffffffffffffffff168173ffffffffffffffffffffffffffffffffffffffff1614610c3d576040517f08c379a0000000000000000000000000000000000000000000000000000000008152600401610c3490612951565b60405180910390fd5b610c478282611274565b5050565b6000801b610c6081610c5b61119b565b6111a3565b670de0b6b3a76400008210610caa576040517f08c379a0000000000000000000000000000000000000000000000000000000008152600401610ca1906129e3565b60405180910390fd5b816003819055505050565b60045481565b6000610ce282600160008681526020019081526020016000206112a890919063ffffffff16565b905092915050565b600080600084815260200190815260200160002060000160008373ffffffffffffffffffffffffffffffffffffffff1673ffffffffffffffffffffffffffffffffffffffff16815260200190815260200160002060009054906101000a900460ff16905092915050565b60035481565b6000801b81565b600280541415610da6576040517f08c379a0000000000000000000000000000000000000000000000000000000008152600401610d9d90612333565b60405180910390fd5b600280819055506000670de0b6b3a764000034600354670de0b6b3a7640000610dcf91906123ee565b610dd99190612422565b610de391906124ab565b905060008273ffffffffffffffffffffffffffffffffffffffff1682604051610e0b9061253c565b60006040518083038185875af1925050503d8060008114610e48576040519150601f19603f3d011682016040523d82523d6000602084013e610e4d565b606091505b5050905080610e91576040517f08c379a0000000000000000000000000000000000000000000000000000000008152600401610e889061259d565b60405180910390fd5b8273ffffffffffffffffffffffffffffffffffffffff163373ffffffffffffffffffffffffffffffffffffffff167fcbefbf6a902aa93a9aafdd30aefd16e61f6c015bbf5fcaccfdf1d29d0c84e7d084604051610eee9190612224565b60405180910390a35050600160028190555050565b6000610f20600160008481526020019081526020016000206112c2565b9050919050565b610f3082610b80565b610f4181610f3c61119b565b6111a3565b610f4b8383611274565b505050565b6000801b610f6581610f6061119b565b6111a3565b670de0b6b3a76400008210610faf576040517f08c379a0000000000000000000000000000000000000000000000000000000008152600401610fa6906129e3565b60405180910390fd5b816004819055505050565b610fc48282610cea565b61109657600160008084815260200190815260200160002060000160008373ffffffffffffffffffffffffffffffffffffffff1673ffffffffffffffffffffffffffffffffffffffff16815260200190815260200160002060006101000a81548160ff02191690831515021790555061103b61119b565b73ffffffffffffffffffffffffffffffffffffffff168173ffffffffffffffffffffffffffffffffffffffff16837f2f8788117e7eff1d82e926ec794901d17c78024a50270940304540a733656f0d60405160405180910390a45b5050565b60006110c2836000018373ffffffffffffffffffffffffffffffffffffffff1660001b6112d7565b905092915050565b60007f7965db0b000000000000000000000000000000000000000000000000000000007bffffffffffffffffffffffffffffffffffffffffffffffffffffffff1916827bffffffffffffffffffffffffffffffffffffffffffffffffffffffff1916148061113d575061113c82611347565b5b9050919050565b6000816040516020016111579190612a7b565b604051602081830303815290604052805190602001209050919050565b600080600061118385856113b1565b9150915061119081611434565b819250505092915050565b600033905090565b6111ad8282610cea565b61123c576111d28173ffffffffffffffffffffffffffffffffffffffff166014611609565b6111e08360001c6020611609565b6040516020016111f1929190612ba8565b6040516020818303038152906040526040517f08c379a00000000000000000000000000000000000000000000000000000000081526004016112339190612c1b565b60405180910390fd5b5050565b61124a8282610fba565b61126f816001600085815260200190815260200160002061109a90919063ffffffff16565b505050565b61127e8282611845565b6112a3816001600085815260200190815260200160002061192690919063ffffffff16565b505050565b60006112b78360000183611956565b60001c905092915050565b60006112d082600001611981565b9050919050565b60006112e38383611992565b61133c578260000182908060018154018082558091505060019003906000526020600020016000909190919091505582600001805490508360010160008481526020019081526020016000208190555060019050611341565b600090505b92915050565b60007f01ffc9a7000000000000000000000000000000000000000000000000000000007bffffffffffffffffffffffffffffffffffffffffffffffffffffffff1916827bffffffffffffffffffffffffffffffffffffffffffffffffffffffff1916149050919050565b6000806041835114156113f35760008060006020860151925060408601519150606086015160001a90506113e7878285856119b5565b9450945050505061142d565b604083511415611424576000806020850151915060408501519050611419868383611ac2565b93509350505061142d565b60006002915091505b9250929050565b6000600481111561144857611447612c3d565b5b81600481111561145b5761145a612c3d565b5b141561146657611606565b6001600481111561147a57611479612c3d565b5b81600481111561148d5761148c612c3d565b5b14156114ce576040517f08c379a00000000000000000000000000000000000000000000000000000000081526004016114c590612cb8565b60405180910390fd5b600260048111156114e2576114e1612c3d565b5b8160048111156114f5576114f4612c3d565b5b1415611536576040517f08c379a000000000000000000000000000000000000000000000000000000000815260040161152d90612d24565b60405180910390fd5b6003600481111561154a57611549612c3d565b5b81600481111561155d5761155c612c3d565b5b141561159e576040517f08c379a000000000000000000000000000000000000000000000000000000000815260040161159590612db6565b60405180910390fd5b6004808111156115b1576115b0612c3d565b5b8160048111156115c4576115c3612c3d565b5b1415611605576040517f08c379a00000000000000000000000000000000000000000000000000000000081526004016115fc90612e48565b60405180910390fd5b5b50565b60606000600283600261161c9190612422565b6116269190612e68565b67ffffffffffffffff81111561163f5761163e611c4e565b5b6040519080825280601f01601f1916602001820160405280156116715781602001600182028036833780820191505090505b5090507f3000000000000000000000000000000000000000000000000000000000000000816000815181106116a9576116a86124dc565b5b60200101907effffffffffffffffffffffffffffffffffffffffffffffffffffffffffffff1916908160001a9053507f78000000000000000000000000000000000000000000000000000000000000008160018151811061170d5761170c6124dc565b5b60200101907effffffffffffffffffffffffffffffffffffffffffffffffffffffffffffff1916908160001a9053506000600184600261174d9190612422565b6117579190612e68565b90505b60018111156117f7577f3031323334353637383961626364656600000000000000000000000000000000600f861660108110611799576117986124dc565b5b1a60f81b8282815181106117b0576117af6124dc565b5b60200101907effffffffffffffffffffffffffffffffffffffffffffffffffffffffffffff1916908160001a905350600485901c9450806117f090612ebe565b905061175a565b506000841461183b576040517f08c379a000000000000000000000000000000000000000000000000000000000815260040161183290612f34565b60405180910390fd5b8091505092915050565b61184f8282610cea565b1561192257600080600084815260200190815260200160002060000160008373ffffffffffffffffffffffffffffffffffffffff1673ffffffffffffffffffffffffffffffffffffffff16815260200190815260200160002060006101000a81548160ff0219169083151502179055506118c761119b565b73ffffffffffffffffffffffffffffffffffffffff168173ffffffffffffffffffffffffffffffffffffffff16837ff6391f5c32d9c69d2a47ea670b442974b53935d1edc7fd64eb21e047a839171b60405160405180910390a45b5050565b600061194e836000018373ffffffffffffffffffffffffffffffffffffffff1660001b611b10565b905092915050565b600082600001828154811061196e5761196d6124dc565b5b9060005260206000200154905092915050565b600081600001805490509050919050565b600080836001016000848152602001908152602001600020541415905092915050565b6000807f7fffffffffffffffffffffffffffffff5d576e7357a4501ddfe92f46681b20a08360001c11156119f0576000600391509150611ab9565b601b8560ff1614158015611a085750601c8560ff1614155b15611a1a576000600491509150611ab9565b600060018787878760405160008152602001604052604051611a3f9493929190612f63565b6020604051602081039080840390855afa158015611a61573d6000803e3d6000fd5b505050602060405103519050600073ffffffffffffffffffffffffffffffffffffffff168173ffffffffffffffffffffffffffffffffffffffff161415611ab057600060019250925050611ab9565b80600092509250505b94509492505050565b6000806000807f7fffffffffffffffffffffffffffffffffffffffffffffffffffffffffffffff85169150601b8560ff1c019050611b02878288856119b5565b935093505050935093915050565b60008083600101600084815260200190815260200160002054905060008114611c18576000600182611b4291906123ee565b9050600060018660000180549050611b5a91906123ee565b9050818114611bc9576000866000018281548110611b7b57611b7a6124dc565b5b9060005260206000200154905080876000018481548110611b9f57611b9e6124dc565b5b90600052602060002001819055508387600101600083815260200190815260200160002081905550505b85600001805480611bdd57611bdc612fa8565b5b600190038181906000526020600020016000905590558560010160008681526020019081526020016000206000905560019350505050611c1e565b60009150505b92915050565b6000604051905090565b600080fd5b600080fd5b600080fd5b6000601f19601f8301169050919050565b7f4e487b7100000000000000000000000000000000000000000000000000000000600052604160045260246000fd5b611c8682611c3d565b810181811067ffffffffffffffff82111715611ca557611ca4611c4e565b5b80604052505050565b6000611cb8611c24565b9050611cc48282611c7d565b919050565b600067ffffffffffffffff821115611ce457611ce3611c4e565b5b602082029050602081019050919050565b600080fd5b600073ffffffffffffffffffffffffffffffffffffffff82169050919050565b6000611d2582611cfa565b9050919050565b611d3581611d1a565b8114611d4057600080fd5b50565b600081359050611d5281611d2c565b92915050565b6000611d6b611d6684611cc9565b611cae565b90508083825260208201905060208402830185811115611d8e57611d8d611cf5565b5b835b81811015611db75780611da38882611d43565b845260208401935050602081019050611d90565b5050509392505050565b600082601f830112611dd657611dd5611c38565b5b8135611de6848260208601611d58565b91505092915050565b600060208284031215611e0557611e04611c2e565b5b600082013567ffffffffffffffff811115611e2357611e22611c33565b5b611e2f84828501611dc1565b91505092915050565b60007fffffffff0000000000000000000000000000000000000000000000000000000082169050919050565b611e6d81611e38565b8114611e7857600080fd5b50565b600081359050611e8a81611e64565b92915050565b600060208284031215611ea657611ea5611c2e565b5b6000611eb484828501611e7b565b91505092915050565b60008115159050919050565b611ed281611ebd565b82525050565b6000602082019050611eed6000830184611ec9565b92915050565b6000819050919050565b611f0681611ef3565b8114611f1157600080fd5b50565b600081359050611f2381611efd565b92915050565b600080fd5b600067ffffffffffffffff821115611f4957611f48611c4e565b5b611f5282611c3d565b9050602081019050919050565b82818337600083830152505050565b6000611f81611f7c84611f2e565b611cae565b905082815260208101848484011115611f9d57611f9c611f29565b5b611fa8848285611f5f565b509392505050565b600082601f830112611fc557611fc4611c38565b5b8135611fd5848260208601611f6e565b91505092915050565b600080fd5b60008083601f840112611ff957611ff8611c38565b5b8235905067ffffffffffffffff81111561201657612015611fde565b5b60208301915083602082028301111561203257612031611cf5565b5b9250929050565b6000819050919050565b61204c81612039565b811461205757600080fd5b50565b60008135905061206981612043565b92915050565b60008060008060006080868803121561208b5761208a611c2e565b5b600061209988828901611f14565b955050602086013567ffffffffffffffff8111156120ba576120b9611c33565b5b6120c688828901611fb0565b945050604086013567ffffffffffffffff8111156120e7576120e6611c33565b5b6120f388828901611fe3565b935093505060606121068882890161205a565b9150509295509295909350565b60006020828403121561212957612128611c2e565b5b60006121378482850161205a565b91505092915050565b61214981612039565b82525050565b60006020820190506121646000830184612140565b92915050565b600061217582611cfa565b9050919050565b6121858161216a565b811461219057600080fd5b50565b6000813590506121a28161217c565b92915050565b600080604083850312156121bf576121be611c2e565b5b60006121cd8582860161205a565b92505060206121de85828601612193565b9150509250929050565b6000602082840312156121fe576121fd611c2e565b5b600061220c84828501611f14565b91505092915050565b61221e81611ef3565b82525050565b60006020820190506122396000830184612215565b92915050565b6000806040838503121561225657612255611c2e565b5b60006122648582860161205a565b925050602061227585828601611f14565b9150509250929050565b6122888161216a565b82525050565b60006020820190506122a3600083018461227f565b92915050565b6000602082840312156122bf576122be611c2e565b5b60006122cd84828501611d43565b91505092915050565b600082825260208201905092915050565b7f5265656e7472616e637947756172643a207265656e7472616e742063616c6c00600082015250565b600061231d601f836122d6565b9150612328826122e7565b602082019050919050565b6000602082019050818103600083015261234c81612310565b9050919050565b7f4164647265737365732063616e6e6f7420626520656d70747900000000000000600082015250565b60006123896019836122d6565b915061239482612353565b602082019050919050565b600060208201905081810360008301526123b88161237c565b9050919050565b7f4e487b7100000000000000000000000000000000000000000000000000000000600052601160045260246000fd5b60006123f982611ef3565b915061240483611ef3565b925082821015612417576124166123bf565b5b828203905092915050565b600061242d82611ef3565b915061243883611ef3565b9250817fffffffffffffffffffffffffffffffffffffffffffffffffffffffffffffffff0483118215151615612471576124706123bf565b5b828202905092915050565b7f4e487b7100000000000000000000000000000000000000000000000000000000600052601260045260246000fd5b60006124b682611ef3565b91506124c183611ef3565b9250826124d1576124d061247c565b5b828204905092915050565b7f4e487b7100000000000000000000000000000000000000000000000000000000600052603260045260246000fd5b600081905092915050565b50565b600061252660008361250b565b915061253182612516565b600082019050919050565b600061254782612519565b9150819050919050565b7f4661696c656420746f2073656e6420546f6b656e000000000000000000000000600082015250565b60006125876014836122d6565b915061259282612551565b602082019050919050565b600060208201905081810360008301526125b68161257a565b9050919050565b600060ff82169050919050565b60006125d5826125bd565b915060ff8214156125e9576125e86123bf565b5b600182019050919050565b7f4e6f7420656e6f756768207369676e6174757265730000000000000000000000600082015250565b600061262a6015836122d6565b9150612635826125f4565b602082019050919050565b600060208201905081810360008301526126598161261d565b9050919050565b600080fd5b600080fd5b600080fd5b6000808335600160200384360303811261268c5761268b612660565b5b80840192508235915067ffffffffffffffff8211156126ae576126ad612665565b5b6020830192506001820236038313156126ca576126c961266a565b5b509250929050565b7f526570656174696e672061646d696e207369676e6174757265206e6f7420766160008201527f6c69640000000000000000000000000000000000000000000000000000000000602082015250565b600061272e6023836122d6565b9150612739826126d2565b604082019050919050565b6000602082019050818103600083015261275d81612721565b9050919050565b600061276f826125bd565b915061277a836125bd565b92508260ff038211156127905761278f6123bf565b5b828201905092915050565b7f4e6f7420616c6c207369676e617475726573206172652076616c696400000000600082015250565b60006127d1601c836122d6565b91506127dc8261279b565b602082019050919050565b60006020820190508181036000830152612800816127c4565b9050919050565b7f4e6f7420656e6f7567682062616c616e636520746f2077697468647261770000600082015250565b600061283d601e836122d6565b915061284882612807565b602082019050919050565b6000602082019050818103600083015261286c81612830565b9050919050565b7f4661696c656420746f2077697468647261770000000000000000000000000000600082015250565b60006128a96012836122d6565b91506128b482612873565b602082019050919050565b600060208201905081810360008301526128d88161289c565b9050919050565b7f416363657373436f6e74726f6c3a2063616e206f6e6c792072656e6f756e636560008201527f20726f6c657320666f722073656c660000000000000000000000000000000000602082015250565b600061293b602f836122d6565b9150612946826128df565b604082019050919050565b6000602082019050818103600083015261296a8161292e565b9050919050565b7f496e76616c696420616d6f756e742c2063616e6e6f742062652067726561746560008201527f72207468616e2031206574686572000000000000000000000000000000000000602082015250565b60006129cd602e836122d6565b91506129d882612971565b604082019050919050565b600060208201905081810360008301526129fc816129c0565b9050919050565b600081905092915050565b7f19457468657265756d205369676e6564204d6573736167653a0a333200000000600082015250565b6000612a44601c83612a03565b9150612a4f82612a0e565b601c82019050919050565b6000819050919050565b612a75612a7082612039565b612a5a565b82525050565b6000612a8682612a37565b9150612a928284612a64565b60208201915081905092915050565b7f416363657373436f6e74726f6c3a206163636f756e7420000000000000000000600082015250565b6000612ad7601783612a03565b9150612ae282612aa1565b601782019050919050565b600081519050919050565b60005b83811015612b16578082015181840152602081019050612afb565b83811115612b25576000848401525b50505050565b6000612b3682612aed565b612b408185612a03565b9350612b50818560208601612af8565b80840191505092915050565b7f206973206d697373696e6720726f6c6520000000000000000000000000000000600082015250565b6000612b92601183612a03565b9150612b9d82612b5c565b601182019050919050565b6000612bb382612aca565b9150612bbf8285612b2b565b9150612bca82612b85565b9150612bd68284612b2b565b91508190509392505050565b6000612bed82612aed565b612bf781856122d6565b9350612c07818560208601612af8565b612c1081611c3d565b840191505092915050565b60006020820190508181036000830152612c358184612be2565b905092915050565b7f4e487b7100000000000000000000000000000000000000000000000000000000600052602160045260246000fd5b7f45434453413a20696e76616c6964207369676e61747572650000000000000000600082015250565b6000612ca26018836122d6565b9150612cad82612c6c565b602082019050919050565b60006020820190508181036000830152612cd181612c95565b9050919050565b7f45434453413a20696e76616c6964207369676e6174757265206c656e67746800600082015250565b6000612d0e601f836122d6565b9150612d1982612cd8565b602082019050919050565b60006020820190508181036000830152612d3d81612d01565b9050919050565b7f45434453413a20696e76616c6964207369676e6174757265202773272076616c60008201527f7565000000000000000000000000000000000000000000000000000000000000602082015250565b6000612da06022836122d6565b9150612dab82612d44565b604082019050919050565b60006020820190508181036000830152612dcf81612d93565b9050919050565b7f45434453413a20696e76616c6964207369676e6174757265202776272076616c60008201527f7565000000000000000000000000000000000000000000000000000000000000602082015250565b6000612e326022836122d6565b9150612e3d82612dd6565b604082019050919050565b60006020820190508181036000830152612e6181612e25565b9050919050565b6000612e7382611ef3565b9150612e7e83611ef3565b9250827fffffffffffffffffffffffffffffffffffffffffffffffffffffffffffffffff03821115612eb357612eb26123bf565b5b828201905092915050565b6000612ec982611ef3565b91506000821415612edd57612edc6123bf565b5b600182039050919050565b7f537472696e67733a20686578206c656e67746820696e73756666696369656e74600082015250565b6000612f1e6020836122d6565b9150612f2982612ee8565b602082019050919050565b60006020820190508181036000830152612f4d81612f11565b9050919050565b612f5d816125bd565b82525050565b6000608082019050612f786000830187612140565b612f856020830186612f54565b612f926040830185612140565b612f9f6060830184612140565b95945050505050565b7f4e487b7100000000000000000000000000000000000000000000000000000000600052603160045260246000fdfea2646970667358221220d6cf62a06c5ae115a74eb73b2908779c2875293b04f306d2e01ff94fe9244a4664736f6c634300080a0033",
  "immutableReferences": {},
  "source": "// SPDX-License-Identifier: MIT\npragma solidity ^0.8.10;\n\nimport \"@openzeppelin/contracts/access/AccessControl.sol\";\nimport \"@openzeppelin/contracts/access/AccessControlEnumerable.sol\";\nimport \"@openzeppelin/contracts/utils/Address.sol\";\nimport \"@openzeppelin/contracts/utils/cryptography/ECDSA.sol\";\nimport \"@openzeppelin/contracts/security/ReentrancyGuard.sol\";\n\ncontract TipBot is AccessControlEnumerable, ReentrancyGuard {\n  using ECDSA for bytes32;\n  using Address for address;\n\n  // Start of events declaration\n  event Tip ( address indexed from,  address indexed toAddress, uint256 amount );\n  event AirDrop ( address indexed from, address indexed toAddress, uint256 amount);\n  event Withdraw ( uint256 amount, bytes32 indexed reason);\n\n  // Global variables used in contract\n  uint256 public feeRate = 0.1 ether;\n  uint256 public airdropRate = 0.2 ether;\n\n  //TODO: added new mapping\n  // mapping( bytes32 => mapping(address => bool)) signatureLookup;\n  mapping( address => mapping(bytes32 => bool)) signatureLookup;\n\n  constructor(){\n    _setupRole(DEFAULT_ADMIN_ROLE, msg.sender);\n  }\n\n  function setFeeRate( uint256 _feeRate ) public onlyRole(DEFAULT_ADMIN_ROLE) {\n    require( _feeRate < 1 ether, \"Invalid amount, cannot be greater than 1 ether\");\n    feeRate = _feeRate;\n  }\n\n  function setAirdropRate( uint256 _feeRate ) public onlyRole(DEFAULT_ADMIN_ROLE) {\n    require( _feeRate < 1 ether, \"Invalid amount, cannot be greater than 1 ether\");\n    airdropRate = _feeRate;\n  }\n\n  function tip( address payable toAddress ) public payable nonReentrant {\n\n    uint256 newBalance = ((1 ether - feeRate) * msg.value)/1 ether;\n    (bool success, ) = toAddress.call{value: newBalance }(\"\");\n    require(success, \"Failed to send Token\");\n\n    emit Tip( \n      msg.sender,\n      toAddress,\n      newBalance\n    );\n  }\n\n\n  function airDrop ( \n    address payable[] memory accountAddress\n  ) public payable nonReentrant {\n\n    require(accountAddress.length > 0, \"Addresses cannot be empty\");\n    uint256 distributedAmount = ( ((1 ether - airdropRate) * msg.value ) / 1 ether ) / accountAddress.length;\n\n    for(uint8 i = 0; i < accountAddress.length; i++){\n\n    (bool success, ) = accountAddress[i].call{value: distributedAmount }(\"\");\n    require(success, \"Failed to send Token\");\n\n      emit AirDrop(\n        msg.sender,\n        accountAddress[i],\n        distributedAmount\n      );\n    }\n  }\n\n  //TODO: add parameter reason\n  function withdraw (\n    uint256 amount, \n    bytes memory data,\n    bytes[] calldata signatures,\n    bytes32 reason\n  ) public nonReentrant {\n\n    require( getRoleMemberCount(DEFAULT_ADMIN_ROLE) == signatures.length, \"Not enough signatures\");\n\n    // Extract and verify each signature is valid\n    bytes32 message = keccak256(data);\n    bytes32 hashed = message.toEthSignedMessageHash();\n\n    uint8 validSignatures = 0;\n    for (uint8 i = 0; i < signatures.length; i++) {\n        bytes calldata signature = signatures[i];\n        (address signer) = hashed.recover(signature);\n\n        require( !signatureLookup[signer][reason], \"Repeating admin signature not valid\");\n\n        if (hasRole(DEFAULT_ADMIN_ROLE, signer) && !signatureLookup[signer][reason]) {\n            validSignatures += 1;\n            signatureLookup[signer][reason] = true;\n        }\n    }\n    require( validSignatures == getRoleMemberCount(DEFAULT_ADMIN_ROLE), \"Not all signatures are valid\");\n    \n    //Perform withdraw action\n    uint contractAmount = address(this).balance;\n    require( amount <= contractAmount, \"Not enough balance to withdraw\" );\n\n    uint256 distributedAmount =  amount / getRoleMemberCount(DEFAULT_ADMIN_ROLE);\n\n    for(uint8 i = 0; i < getRoleMemberCount(DEFAULT_ADMIN_ROLE); i++){\n      (bool success, ) = getRoleMember(DEFAULT_ADMIN_ROLE, i).call{value: distributedAmount }(\"\");\n      require( success, \"Failed to withdraw\" );\n    }\n\n    emit Withdraw(\n      distributedAmount, \n      reason\n    );\n\n\n  }\n\n}\n",
  "sourcePath": "/Volumes/Development/solidity/syscoin-tip-bot/solidity/contracts/TipBot.sol",
  "compiler": {
    "name": "solc",
    "version": "0.8.10+commit.fc410830.Emscripten.clang"
  },
  "schemaVersion": "3.4.3",
  "updatedAt": "2022-03-04T13:19:09.977Z",
  "devdoc": {
    "kind": "dev",
    "methods": {
      "getRoleAdmin(bytes32)": {
        "details": "Returns the admin role that controls `role`. See {grantRole} and {revokeRole}. To change a role's admin, use {_setRoleAdmin}."
      },
      "getRoleMember(bytes32,uint256)": {
        "details": "Returns one of the accounts that have `role`. `index` must be a value between 0 and {getRoleMemberCount}, non-inclusive. Role bearers are not sorted in any particular way, and their ordering may change at any point. WARNING: When using {getRoleMember} and {getRoleMemberCount}, make sure you perform all queries on the same block. See the following https://forum.openzeppelin.com/t/iterating-over-elements-on-enumerableset-in-openzeppelin-contracts/2296[forum post] for more information."
      },
      "getRoleMemberCount(bytes32)": {
        "details": "Returns the number of accounts that have `role`. Can be used together with {getRoleMember} to enumerate all bearers of a role."
      },
      "grantRole(bytes32,address)": {
        "details": "Grants `role` to `account`. If `account` had not been already granted `role`, emits a {RoleGranted} event. Requirements: - the caller must have ``role``'s admin role."
      },
      "hasRole(bytes32,address)": {
        "details": "Returns `true` if `account` has been granted `role`."
      },
      "renounceRole(bytes32,address)": {
        "details": "Revokes `role` from the calling account. Roles are often managed via {grantRole} and {revokeRole}: this function's purpose is to provide a mechanism for accounts to lose their privileges if they are compromised (such as when a trusted device is misplaced). If the calling account had been revoked `role`, emits a {RoleRevoked} event. Requirements: - the caller must be `account`."
      },
      "revokeRole(bytes32,address)": {
        "details": "Revokes `role` from `account`. If `account` had been granted `role`, emits a {RoleRevoked} event. Requirements: - the caller must have ``role``'s admin role."
      },
      "supportsInterface(bytes4)": {
        "details": "See {IERC165-supportsInterface}."
      }
    },
    "version": 1
  },
  "userdoc": {
    "kind": "user",
    "methods": {},
    "version": 1
  }
}