{
  "contractName": "TipBot",
  "abi": [
    {
      "inputs": [],
      "stateMutability": "nonpayable",
      "type": "constructor"
    },
    {
      "anonymous": false,
      "inputs": [
        {
          "indexed": true,
          "internalType": "address[]",
          "name": "accounts",
          "type": "address[]"
        }
      ],
      "name": "AirDrop",
      "type": "event"
    },
    {
      "anonymous": false,
      "inputs": [
        {
          "indexed": true,
          "internalType": "bytes32",
          "name": "role",
          "type": "bytes32"
        },
        {
          "indexed": true,
          "internalType": "bytes32",
          "name": "previousAdminRole",
          "type": "bytes32"
        },
        {
          "indexed": true,
          "internalType": "bytes32",
          "name": "newAdminRole",
          "type": "bytes32"
        }
      ],
      "name": "RoleAdminChanged",
      "type": "event"
    },
    {
      "anonymous": false,
      "inputs": [
        {
          "indexed": true,
          "internalType": "bytes32",
          "name": "role",
          "type": "bytes32"
        },
        {
          "indexed": true,
          "internalType": "address",
          "name": "account",
          "type": "address"
        },
        {
          "indexed": true,
          "internalType": "address",
          "name": "sender",
          "type": "address"
        }
      ],
      "name": "RoleGranted",
      "type": "event"
    },
    {
      "anonymous": false,
      "inputs": [
        {
          "indexed": true,
          "internalType": "bytes32",
          "name": "role",
          "type": "bytes32"
        },
        {
          "indexed": true,
          "internalType": "address",
          "name": "account",
          "type": "address"
        },
        {
          "indexed": true,
          "internalType": "address",
          "name": "sender",
          "type": "address"
        }
      ],
      "name": "RoleRevoked",
      "type": "event"
    },
    {
      "anonymous": false,
      "inputs": [
        {
          "indexed": true,
          "internalType": "address",
          "name": "from",
          "type": "address"
        },
        {
          "indexed": true,
          "internalType": "address",
          "name": "toAddress",
          "type": "address"
        },
        {
          "indexed": false,
          "internalType": "uint256",
          "name": "amount",
          "type": "uint256"
        }
      ],
      "name": "Tip",
      "type": "event"
    },
    {
      "inputs": [],
      "name": "DEFAULT_ADMIN_ROLE",
      "outputs": [
        {
          "internalType": "bytes32",
          "name": "",
          "type": "bytes32"
        }
      ],
      "stateMutability": "view",
      "type": "function",
      "constant": true
    },
    {
      "inputs": [],
      "name": "airdropRate",
      "outputs": [
        {
          "internalType": "uint256",
          "name": "",
          "type": "uint256"
        }
      ],
      "stateMutability": "view",
      "type": "function",
      "constant": true
    },
    {
      "inputs": [],
      "name": "feeRate",
      "outputs": [
        {
          "internalType": "uint256",
          "name": "",
          "type": "uint256"
        }
      ],
      "stateMutability": "view",
      "type": "function",
      "constant": true
    },
    {
      "inputs": [
        {
          "internalType": "bytes32",
          "name": "role",
          "type": "bytes32"
        }
      ],
      "name": "getRoleAdmin",
      "outputs": [
        {
          "internalType": "bytes32",
          "name": "",
          "type": "bytes32"
        }
      ],
      "stateMutability": "view",
      "type": "function",
      "constant": true
    },
    {
      "inputs": [
        {
          "internalType": "bytes32",
          "name": "role",
          "type": "bytes32"
        },
        {
          "internalType": "uint256",
          "name": "index",
          "type": "uint256"
        }
      ],
      "name": "getRoleMember",
      "outputs": [
        {
          "internalType": "address",
          "name": "",
          "type": "address"
        }
      ],
      "stateMutability": "view",
      "type": "function",
      "constant": true
    },
    {
      "inputs": [
        {
          "internalType": "bytes32",
          "name": "role",
          "type": "bytes32"
        }
      ],
      "name": "getRoleMemberCount",
      "outputs": [
        {
          "internalType": "uint256",
          "name": "",
          "type": "uint256"
        }
      ],
      "stateMutability": "view",
      "type": "function",
      "constant": true
    },
    {
      "inputs": [
        {
          "internalType": "bytes32",
          "name": "role",
          "type": "bytes32"
        },
        {
          "internalType": "address",
          "name": "account",
          "type": "address"
        }
      ],
      "name": "grantRole",
      "outputs": [],
      "stateMutability": "nonpayable",
      "type": "function"
    },
    {
      "inputs": [
        {
          "internalType": "bytes32",
          "name": "role",
          "type": "bytes32"
        },
        {
          "internalType": "address",
          "name": "account",
          "type": "address"
        }
      ],
      "name": "hasRole",
      "outputs": [
        {
          "internalType": "bool",
          "name": "",
          "type": "bool"
        }
      ],
      "stateMutability": "view",
      "type": "function",
      "constant": true
    },
    {
      "inputs": [
        {
          "internalType": "bytes32",
          "name": "role",
          "type": "bytes32"
        },
        {
          "internalType": "address",
          "name": "account",
          "type": "address"
        }
      ],
      "name": "renounceRole",
      "outputs": [],
      "stateMutability": "nonpayable",
      "type": "function"
    },
    {
      "inputs": [
        {
          "internalType": "bytes32",
          "name": "role",
          "type": "bytes32"
        },
        {
          "internalType": "address",
          "name": "account",
          "type": "address"
        }
      ],
      "name": "revokeRole",
      "outputs": [],
      "stateMutability": "nonpayable",
      "type": "function"
    },
    {
      "inputs": [
        {
          "internalType": "bytes4",
          "name": "interfaceId",
          "type": "bytes4"
        }
      ],
      "name": "supportsInterface",
      "outputs": [
        {
          "internalType": "bool",
          "name": "",
          "type": "bool"
        }
      ],
      "stateMutability": "view",
      "type": "function",
      "constant": true
    },
    {
      "inputs": [
        {
          "internalType": "uint256",
          "name": "_feeRate",
          "type": "uint256"
        }
      ],
      "name": "setFeeRate",
      "outputs": [],
      "stateMutability": "nonpayable",
      "type": "function"
    },
    {
      "inputs": [
        {
          "internalType": "uint256",
          "name": "_feeRate",
          "type": "uint256"
        }
      ],
      "name": "setAirdropRate",
      "outputs": [],
      "stateMutability": "nonpayable",
      "type": "function"
    },
    {
      "inputs": [
        {
          "internalType": "address payable",
          "name": "toAddress",
          "type": "address"
        }
      ],
      "name": "tip",
      "outputs": [],
      "stateMutability": "payable",
      "type": "function",
      "payable": true
    },
    {
      "inputs": [
        {
          "internalType": "address payable[]",
          "name": "accountAddress",
          "type": "address[]"
        }
      ],
      "name": "airDrop",
      "outputs": [],
      "stateMutability": "payable",
      "type": "function",
      "payable": true
    },
    {
      "inputs": [
        {
          "internalType": "uint256",
          "name": "amount",
          "type": "uint256"
        },
        {
          "internalType": "bytes",
          "name": "data",
          "type": "bytes"
        },
        {
          "internalType": "bytes[]",
          "name": "signatures",
          "type": "bytes[]"
        }
      ],
      "name": "withdraw",
      "outputs": [],
      "stateMutability": "nonpayable",
      "type": "function"
    }
  ],
  "bytecode": "0x608060405267016345785d8a00006003556702c68af0bb1400006004553480156200002957600080fd5b506001600281905550620000476000801b336200004d60201b60201c565b620002e3565b6200005f82826200006360201b60201c565b5050565b6200007a8282620000ab60201b62000d251760201c565b620000a681600160008581526020019081526020016000206200019c60201b62000e051790919060201c565b505050565b620000bd8282620001d460201b60201c565b6200019857600160008084815260200190815260200160002060000160008373ffffffffffffffffffffffffffffffffffffffff1673ffffffffffffffffffffffffffffffffffffffff16815260200190815260200160002060006101000a81548160ff0219169083151502179055506200013d6200023e60201b60201c565b73ffffffffffffffffffffffffffffffffffffffff168173ffffffffffffffffffffffffffffffffffffffff16837f2f8788117e7eff1d82e926ec794901d17c78024a50270940304540a733656f0d60405160405180910390a45b5050565b6000620001cc836000018373ffffffffffffffffffffffffffffffffffffffff1660001b6200024660201b60201c565b905092915050565b600080600084815260200190815260200160002060000160008373ffffffffffffffffffffffffffffffffffffffff1673ffffffffffffffffffffffffffffffffffffffff16815260200190815260200160002060009054906101000a900460ff16905092915050565b600033905090565b60006200025a8383620002c060201b60201c565b620002b5578260000182908060018154018082558091505060019003906000526020600020016000909190919091505582600001805490508360010160008481526020019081526020016000208190555060019050620002ba565b600090505b92915050565b600080836001016000848152602001908152602001600020541415905092915050565b612c6680620002f36000396000f3fe6080604052600436106100f25760003560e01c80639010d07c1161008a578063ac733ef711610059578063ac733ef71461032c578063ca15c87314610348578063d547741f14610385578063e357dffb146103ae576100f2565b80639010d07c1461025c57806391d1485414610299578063978bbdb9146102d6578063a217fddf14610301576100f2565b806336568abe116100c657806336568abe146101b657806345596e2e146101df57806363425ab4146102085780638891cf0d14610231576100f2565b8062b6849f146100f757806301ffc9a714610113578063248a9ca3146101505780632f2ff15d1461018d575b600080fd5b610111600480360381019061010c9190611b5a565b6103d7565b005b34801561011f57600080fd5b5061013a60048036038101906101359190611bfb565b6105e2565b6040516101479190611c43565b60405180910390f35b34801561015c57600080fd5b5061017760048036038101906101729190611c94565b61065c565b6040516101849190611cd0565b60405180910390f35b34801561019957600080fd5b506101b460048036038101906101af9190611d29565b61067b565b005b3480156101c257600080fd5b506101dd60048036038101906101d89190611d29565b6106a4565b005b3480156101eb57600080fd5b5061020660048036038101906102019190611d9f565b610727565b005b34801561021457600080fd5b5061022f600480360381019061022a9190611edc565b610792565b005b34801561023d57600080fd5b50610246610a1f565b6040516102539190611f7b565b60405180910390f35b34801561026857600080fd5b50610283600480360381019061027e9190611f96565b610a25565b6040516102909190611fe5565b60405180910390f35b3480156102a557600080fd5b506102c060048036038101906102bb9190611d29565b610a54565b6040516102cd9190611c43565b60405180910390f35b3480156102e257600080fd5b506102eb610abe565b6040516102f89190611f7b565b60405180910390f35b34801561030d57600080fd5b50610316610ac4565b6040516103239190611cd0565b60405180910390f35b61034660048036038101906103419190612000565b610acb565b005b34801561035457600080fd5b5061036f600480360381019061036a9190611c94565b610c6d565b60405161037c9190611f7b565b60405180910390f35b34801561039157600080fd5b506103ac60048036038101906103a79190611d29565b610c91565b005b3480156103ba57600080fd5b506103d560048036038101906103d09190611d9f565b610cba565b005b60028054141561041c576040517f08c379a00000000000000000000000000000000000000000000000000000000081526004016104139061208a565b60405180910390fd5b6002808190555060008151670de0b6b3a764000034600454670de0b6b3a764000061044791906120d9565b610451919061210d565b61045b9190612196565b6104659190612196565b905060005b82518160ff1610156105d5576000838260ff168151811061048e5761048d6121c7565b5b602002602001015173ffffffffffffffffffffffffffffffffffffffff16836040516104b990612227565b60006040518083038185875af1925050503d80600081146104f6576040519150601f19603f3d011682016040523d82523d6000602084013e6104fb565b606091505b505090508061053f576040517f08c379a000000000000000000000000000000000000000000000000000000000815260040161053690612288565b60405180910390fd5b838260ff1681518110610555576105546121c7565b5b602002602001015173ffffffffffffffffffffffffffffffffffffffff163373ffffffffffffffffffffffffffffffffffffffff167fcbefbf6a902aa93a9aafdd30aefd16e61f6c015bbf5fcaccfdf1d29d0c84e7d0346040516105b99190611f7b565b60405180910390a35080806105cd906122b5565b91505061046a565b5050600160028190555050565b60007f5a05180f000000000000000000000000000000000000000000000000000000007bffffffffffffffffffffffffffffffffffffffffffffffffffffffff1916827bffffffffffffffffffffffffffffffffffffffffffffffffffffffff19161480610655575061065482610e35565b5b9050919050565b6000806000838152602001908152602001600020600101549050919050565b6106848261065c565b61069581610690610eaf565b610eb7565b61069f8383610f54565b505050565b6106ac610eaf565b73ffffffffffffffffffffffffffffffffffffffff168173ffffffffffffffffffffffffffffffffffffffff1614610719576040517f08c379a000000000000000000000000000000000000000000000000000000000815260040161071090612351565b60405180910390fd5b6107238282610f88565b5050565b6000801b61073c81610737610eaf565b610eb7565b670de0b6b3a7640000821115610787576040517f08c379a000000000000000000000000000000000000000000000000000000000815260040161077e906123e3565b60405180910390fd5b816003819055505050565b818190506107a26000801b610c6d565b146107e2576040517f08c379a00000000000000000000000000000000000000000000000000000000081526004016107d99061244f565b60405180910390fd5b60008380519060200120905060006107f982610fbc565b90506000805b858590508160ff1610156108cf5736600087878460ff16818110610826576108256121c7565b5b9050602002810190610838919061247e565b91509150600061089583838080601f016020809104026020016040519081016040528093929190818152602001838380828437600081840152601f19601f8201169050808301925050505050505087610fec90919063ffffffff16565b90506108a46000801b82610a54565b156108b9576001856108b691906124e1565b94505b50505080806108c7906122b5565b9150506107ff565b506108dc6000801b610c6d565b8160ff1614610920576040517f08c379a000000000000000000000000000000000000000000000000000000000815260040161091790612564565b60405180910390fd5b600047905080881115610968576040517f08c379a000000000000000000000000000000000000000000000000000000000815260040161095f906125d0565b60405180910390fd5b60003373ffffffffffffffffffffffffffffffffffffffff168960405161098e90612227565b60006040518083038185875af1925050503d80600081146109cb576040519150601f19603f3d011682016040523d82523d6000602084013e6109d0565b606091505b5050905080610a14576040517f08c379a0000000000000000000000000000000000000000000000000000000008152600401610a0b9061263c565b60405180910390fd5b505050505050505050565b60045481565b6000610a4c826001600086815260200190815260200160002061101390919063ffffffff16565b905092915050565b600080600084815260200190815260200160002060000160008373ffffffffffffffffffffffffffffffffffffffff1673ffffffffffffffffffffffffffffffffffffffff16815260200190815260200160002060009054906101000a900460ff16905092915050565b60035481565b6000801b81565b600280541415610b10576040517f08c379a0000000000000000000000000000000000000000000000000000000008152600401610b079061208a565b60405180910390fd5b600280819055506000670de0b6b3a764000034600354670de0b6b3a7640000610b3991906120d9565b610b43919061210d565b610b4d9190612196565b905060008273ffffffffffffffffffffffffffffffffffffffff1682604051610b7590612227565b60006040518083038185875af1925050503d8060008114610bb2576040519150601f19603f3d011682016040523d82523d6000602084013e610bb7565b606091505b5050905080610bfb576040517f08c379a0000000000000000000000000000000000000000000000000000000008152600401610bf290612288565b60405180910390fd5b8273ffffffffffffffffffffffffffffffffffffffff163373ffffffffffffffffffffffffffffffffffffffff167fcbefbf6a902aa93a9aafdd30aefd16e61f6c015bbf5fcaccfdf1d29d0c84e7d034604051610c589190611f7b565b60405180910390a35050600160028190555050565b6000610c8a6001600084815260200190815260200160002061102d565b9050919050565b610c9a8261065c565b610cab81610ca6610eaf565b610eb7565b610cb58383610f88565b505050565b6000801b610ccf81610cca610eaf565b610eb7565b670de0b6b3a7640000821115610d1a576040517f08c379a0000000000000000000000000000000000000000000000000000000008152600401610d11906123e3565b60405180910390fd5b816004819055505050565b610d2f8282610a54565b610e0157600160008084815260200190815260200160002060000160008373ffffffffffffffffffffffffffffffffffffffff1673ffffffffffffffffffffffffffffffffffffffff16815260200190815260200160002060006101000a81548160ff021916908315150217905550610da6610eaf565b73ffffffffffffffffffffffffffffffffffffffff168173ffffffffffffffffffffffffffffffffffffffff16837f2f8788117e7eff1d82e926ec794901d17c78024a50270940304540a733656f0d60405160405180910390a45b5050565b6000610e2d836000018373ffffffffffffffffffffffffffffffffffffffff1660001b611042565b905092915050565b60007f7965db0b000000000000000000000000000000000000000000000000000000007bffffffffffffffffffffffffffffffffffffffffffffffffffffffff1916827bffffffffffffffffffffffffffffffffffffffffffffffffffffffff19161480610ea85750610ea7826110b2565b5b9050919050565b600033905090565b610ec18282610a54565b610f5057610ee68173ffffffffffffffffffffffffffffffffffffffff16601461111c565b610ef48360001c602061111c565b604051602001610f0592919061276e565b6040516020818303038152906040526040517f08c379a0000000000000000000000000000000000000000000000000000000008152600401610f4791906127e1565b60405180910390fd5b5050565b610f5e8282610d25565b610f838160016000858152602001908152602001600020610e0590919063ffffffff16565b505050565b610f928282611358565b610fb7816001600085815260200190815260200160002061143990919063ffffffff16565b505050565b600081604051602001610fcf9190612870565b604051602081830303815290604052805190602001209050919050565b6000806000610ffb8585611469565b91509150611008816114ec565b819250505092915050565b600061102283600001836116c1565b60001c905092915050565b600061103b826000016116ec565b9050919050565b600061104e83836116fd565b6110a75782600001829080600181540180825580915050600190039060005260206000200160009091909190915055826000018054905083600101600084815260200190815260200160002081905550600190506110ac565b600090505b92915050565b60007f01ffc9a7000000000000000000000000000000000000000000000000000000007bffffffffffffffffffffffffffffffffffffffffffffffffffffffff1916827bffffffffffffffffffffffffffffffffffffffffffffffffffffffff1916149050919050565b60606000600283600261112f919061210d565b6111399190612896565b67ffffffffffffffff811115611152576111516119b9565b5b6040519080825280601f01601f1916602001820160405280156111845781602001600182028036833780820191505090505b5090507f3000000000000000000000000000000000000000000000000000000000000000816000815181106111bc576111bb6121c7565b5b60200101907effffffffffffffffffffffffffffffffffffffffffffffffffffffffffffff1916908160001a9053507f7800000000000000000000000000000000000000000000000000000000000000816001815181106112205761121f6121c7565b5b60200101907effffffffffffffffffffffffffffffffffffffffffffffffffffffffffffff1916908160001a90535060006001846002611260919061210d565b61126a9190612896565b90505b600181111561130a577f3031323334353637383961626364656600000000000000000000000000000000600f8616601081106112ac576112ab6121c7565b5b1a60f81b8282815181106112c3576112c26121c7565b5b60200101907effffffffffffffffffffffffffffffffffffffffffffffffffffffffffffff1916908160001a905350600485901c945080611303906128ec565b905061126d565b506000841461134e576040517f08c379a000000000000000000000000000000000000000000000000000000000815260040161134590612962565b60405180910390fd5b8091505092915050565b6113628282610a54565b1561143557600080600084815260200190815260200160002060000160008373ffffffffffffffffffffffffffffffffffffffff1673ffffffffffffffffffffffffffffffffffffffff16815260200190815260200160002060006101000a81548160ff0219169083151502179055506113da610eaf565b73ffffffffffffffffffffffffffffffffffffffff168173ffffffffffffffffffffffffffffffffffffffff16837ff6391f5c32d9c69d2a47ea670b442974b53935d1edc7fd64eb21e047a839171b60405160405180910390a45b5050565b6000611461836000018373ffffffffffffffffffffffffffffffffffffffff1660001b611720565b905092915050565b6000806041835114156114ab5760008060006020860151925060408601519150606086015160001a905061149f87828585611834565b945094505050506114e5565b6040835114156114dc5760008060208501519150604085015190506114d1868383611941565b9350935050506114e5565b60006002915091505b9250929050565b60006004811115611500576114ff612982565b5b81600481111561151357611512612982565b5b141561151e576116be565b6001600481111561153257611531612982565b5b81600481111561154557611544612982565b5b1415611586576040517f08c379a000000000000000000000000000000000000000000000000000000000815260040161157d906129fd565b60405180910390fd5b6002600481111561159a57611599612982565b5b8160048111156115ad576115ac612982565b5b14156115ee576040517f08c379a00000000000000000000000000000000000000000000000000000000081526004016115e590612a69565b60405180910390fd5b6003600481111561160257611601612982565b5b81600481111561161557611614612982565b5b1415611656576040517f08c379a000000000000000000000000000000000000000000000000000000000815260040161164d90612afb565b60405180910390fd5b60048081111561166957611668612982565b5b81600481111561167c5761167b612982565b5b14156116bd576040517f08c379a00000000000000000000000000000000000000000000000000000000081526004016116b490612b8d565b60405180910390fd5b5b50565b60008260000182815481106116d9576116d86121c7565b5b9060005260206000200154905092915050565b600081600001805490509050919050565b600080836001016000848152602001908152602001600020541415905092915050565b6000808360010160008481526020019081526020016000205490506000811461182857600060018261175291906120d9565b905060006001866000018054905061176a91906120d9565b90508181146117d957600086600001828154811061178b5761178a6121c7565b5b90600052602060002001549050808760000184815481106117af576117ae6121c7565b5b90600052602060002001819055508387600101600083815260200190815260200160002081905550505b856000018054806117ed576117ec612bad565b5b60019003818190600052602060002001600090559055856001016000868152602001908152602001600020600090556001935050505061182e565b60009150505b92915050565b6000807f7fffffffffffffffffffffffffffffff5d576e7357a4501ddfe92f46681b20a08360001c111561186f576000600391509150611938565b601b8560ff16141580156118875750601c8560ff1614155b15611899576000600491509150611938565b6000600187878787604051600081526020016040526040516118be9493929190612beb565b6020604051602081039080840390855afa1580156118e0573d6000803e3d6000fd5b505050602060405103519050600073ffffffffffffffffffffffffffffffffffffffff168173ffffffffffffffffffffffffffffffffffffffff16141561192f57600060019250925050611938565b80600092509250505b94509492505050565b6000806000807f7fffffffffffffffffffffffffffffffffffffffffffffffffffffffffffffff85169150601b8560ff1c01905061198187828885611834565b935093505050935093915050565b6000604051905090565b600080fd5b600080fd5b600080fd5b6000601f19601f8301169050919050565b7f4e487b7100000000000000000000000000000000000000000000000000000000600052604160045260246000fd5b6119f1826119a8565b810181811067ffffffffffffffff82111715611a1057611a0f6119b9565b5b80604052505050565b6000611a2361198f565b9050611a2f82826119e8565b919050565b600067ffffffffffffffff821115611a4f57611a4e6119b9565b5b602082029050602081019050919050565b600080fd5b600073ffffffffffffffffffffffffffffffffffffffff82169050919050565b6000611a9082611a65565b9050919050565b611aa081611a85565b8114611aab57600080fd5b50565b600081359050611abd81611a97565b92915050565b6000611ad6611ad184611a34565b611a19565b90508083825260208201905060208402830185811115611af957611af8611a60565b5b835b81811015611b225780611b0e8882611aae565b845260208401935050602081019050611afb565b5050509392505050565b600082601f830112611b4157611b406119a3565b5b8135611b51848260208601611ac3565b91505092915050565b600060208284031215611b7057611b6f611999565b5b600082013567ffffffffffffffff811115611b8e57611b8d61199e565b5b611b9a84828501611b2c565b91505092915050565b60007fffffffff0000000000000000000000000000000000000000000000000000000082169050919050565b611bd881611ba3565b8114611be357600080fd5b50565b600081359050611bf581611bcf565b92915050565b600060208284031215611c1157611c10611999565b5b6000611c1f84828501611be6565b91505092915050565b60008115159050919050565b611c3d81611c28565b82525050565b6000602082019050611c586000830184611c34565b92915050565b6000819050919050565b611c7181611c5e565b8114611c7c57600080fd5b50565b600081359050611c8e81611c68565b92915050565b600060208284031215611caa57611ca9611999565b5b6000611cb884828501611c7f565b91505092915050565b611cca81611c5e565b82525050565b6000602082019050611ce56000830184611cc1565b92915050565b6000611cf682611a65565b9050919050565b611d0681611ceb565b8114611d1157600080fd5b50565b600081359050611d2381611cfd565b92915050565b60008060408385031215611d4057611d3f611999565b5b6000611d4e85828601611c7f565b9250506020611d5f85828601611d14565b9150509250929050565b6000819050919050565b611d7c81611d69565b8114611d8757600080fd5b50565b600081359050611d9981611d73565b92915050565b600060208284031215611db557611db4611999565b5b6000611dc384828501611d8a565b91505092915050565b600080fd5b600067ffffffffffffffff821115611dec57611deb6119b9565b5b611df5826119a8565b9050602081019050919050565b82818337600083830152505050565b6000611e24611e1f84611dd1565b611a19565b905082815260208101848484011115611e4057611e3f611dcc565b5b611e4b848285611e02565b509392505050565b600082601f830112611e6857611e676119a3565b5b8135611e78848260208601611e11565b91505092915050565b600080fd5b60008083601f840112611e9c57611e9b6119a3565b5b8235905067ffffffffffffffff811115611eb957611eb8611e81565b5b602083019150836020820283011115611ed557611ed4611a60565b5b9250929050565b60008060008060608587031215611ef657611ef5611999565b5b6000611f0487828801611d8a565b945050602085013567ffffffffffffffff811115611f2557611f2461199e565b5b611f3187828801611e53565b935050604085013567ffffffffffffffff811115611f5257611f5161199e565b5b611f5e87828801611e86565b925092505092959194509250565b611f7581611d69565b82525050565b6000602082019050611f906000830184611f6c565b92915050565b60008060408385031215611fad57611fac611999565b5b6000611fbb85828601611c7f565b9250506020611fcc85828601611d8a565b9150509250929050565b611fdf81611ceb565b82525050565b6000602082019050611ffa6000830184611fd6565b92915050565b60006020828403121561201657612015611999565b5b600061202484828501611aae565b91505092915050565b600082825260208201905092915050565b7f5265656e7472616e637947756172643a207265656e7472616e742063616c6c00600082015250565b6000612074601f8361202d565b915061207f8261203e565b602082019050919050565b600060208201905081810360008301526120a381612067565b9050919050565b7f4e487b7100000000000000000000000000000000000000000000000000000000600052601160045260246000fd5b60006120e482611d69565b91506120ef83611d69565b925082821015612102576121016120aa565b5b828203905092915050565b600061211882611d69565b915061212383611d69565b9250817fffffffffffffffffffffffffffffffffffffffffffffffffffffffffffffffff048311821515161561215c5761215b6120aa565b5b828202905092915050565b7f4e487b7100000000000000000000000000000000000000000000000000000000600052601260045260246000fd5b60006121a182611d69565b91506121ac83611d69565b9250826121bc576121bb612167565b5b828204905092915050565b7f4e487b7100000000000000000000000000000000000000000000000000000000600052603260045260246000fd5b600081905092915050565b50565b60006122116000836121f6565b915061221c82612201565b600082019050919050565b600061223282612204565b9150819050919050565b7f4661696c656420746f2073656e6420546f6b656e000000000000000000000000600082015250565b600061227260148361202d565b915061227d8261223c565b602082019050919050565b600060208201905081810360008301526122a181612265565b9050919050565b600060ff82169050919050565b60006122c0826122a8565b915060ff8214156122d4576122d36120aa565b5b600182019050919050565b7f416363657373436f6e74726f6c3a2063616e206f6e6c792072656e6f756e636560008201527f20726f6c657320666f722073656c660000000000000000000000000000000000602082015250565b600061233b602f8361202d565b9150612346826122df565b604082019050919050565b6000602082019050818103600083015261236a8161232e565b9050919050565b7f496e76616c696420616d6f756e742c2063616e6e6f742062652067726561746560008201527f72207468616e2031206574686572000000000000000000000000000000000000602082015250565b60006123cd602e8361202d565b91506123d882612371565b604082019050919050565b600060208201905081810360008301526123fc816123c0565b9050919050565b7f4e6f7420656e6f756768207369676e6174757265730000000000000000000000600082015250565b600061243960158361202d565b915061244482612403565b602082019050919050565b600060208201905081810360008301526124688161242c565b9050919050565b600080fd5b600080fd5b600080fd5b6000808335600160200384360303811261249b5761249a61246f565b5b80840192508235915067ffffffffffffffff8211156124bd576124bc612474565b5b6020830192506001820236038313156124d9576124d8612479565b5b509250929050565b60006124ec826122a8565b91506124f7836122a8565b92508260ff0382111561250d5761250c6120aa565b5b828201905092915050565b7f4e6f7420616c6c207369676e617475726573206172652076616c696400000000600082015250565b600061254e601c8361202d565b915061255982612518565b602082019050919050565b6000602082019050818103600083015261257d81612541565b9050919050565b7f4e6f7420656e6f7567682062616c616e636520746f2077697468647261770000600082015250565b60006125ba601e8361202d565b91506125c582612584565b602082019050919050565b600060208201905081810360008301526125e9816125ad565b9050919050565b7f4661696c656420746f2077697468647261770000000000000000000000000000600082015250565b600061262660128361202d565b9150612631826125f0565b602082019050919050565b6000602082019050818103600083015261265581612619565b9050919050565b600081905092915050565b7f416363657373436f6e74726f6c3a206163636f756e7420000000000000000000600082015250565b600061269d60178361265c565b91506126a882612667565b601782019050919050565b600081519050919050565b60005b838110156126dc5780820151818401526020810190506126c1565b838111156126eb576000848401525b50505050565b60006126fc826126b3565b612706818561265c565b93506127168185602086016126be565b80840191505092915050565b7f206973206d697373696e6720726f6c6520000000000000000000000000000000600082015250565b600061275860118361265c565b915061276382612722565b601182019050919050565b600061277982612690565b915061278582856126f1565b91506127908261274b565b915061279c82846126f1565b91508190509392505050565b60006127b3826126b3565b6127bd818561202d565b93506127cd8185602086016126be565b6127d6816119a8565b840191505092915050565b600060208201905081810360008301526127fb81846127a8565b905092915050565b7f19457468657265756d205369676e6564204d6573736167653a0a333200000000600082015250565b6000612839601c8361265c565b915061284482612803565b601c82019050919050565b6000819050919050565b61286a61286582611c5e565b61284f565b82525050565b600061287b8261282c565b91506128878284612859565b60208201915081905092915050565b60006128a182611d69565b91506128ac83611d69565b9250827fffffffffffffffffffffffffffffffffffffffffffffffffffffffffffffffff038211156128e1576128e06120aa565b5b828201905092915050565b60006128f782611d69565b9150600082141561290b5761290a6120aa565b5b600182039050919050565b7f537472696e67733a20686578206c656e67746820696e73756666696369656e74600082015250565b600061294c60208361202d565b915061295782612916565b602082019050919050565b6000602082019050818103600083015261297b8161293f565b9050919050565b7f4e487b7100000000000000000000000000000000000000000000000000000000600052602160045260246000fd5b7f45434453413a20696e76616c6964207369676e61747572650000000000000000600082015250565b60006129e760188361202d565b91506129f2826129b1565b602082019050919050565b60006020820190508181036000830152612a16816129da565b9050919050565b7f45434453413a20696e76616c6964207369676e6174757265206c656e67746800600082015250565b6000612a53601f8361202d565b9150612a5e82612a1d565b602082019050919050565b60006020820190508181036000830152612a8281612a46565b9050919050565b7f45434453413a20696e76616c6964207369676e6174757265202773272076616c60008201527f7565000000000000000000000000000000000000000000000000000000000000602082015250565b6000612ae560228361202d565b9150612af082612a89565b604082019050919050565b60006020820190508181036000830152612b1481612ad8565b9050919050565b7f45434453413a20696e76616c6964207369676e6174757265202776272076616c60008201527f7565000000000000000000000000000000000000000000000000000000000000602082015250565b6000612b7760228361202d565b9150612b8282612b1b565b604082019050919050565b60006020820190508181036000830152612ba681612b6a565b9050919050565b7f4e487b7100000000000000000000000000000000000000000000000000000000600052603160045260246000fd5b612be5816122a8565b82525050565b6000608082019050612c006000830187611cc1565b612c0d6020830186612bdc565b612c1a6040830185611cc1565b612c276060830184611cc1565b9594505050505056fea26469706673582212202a162c4a6fd674f1b963e3b739012f40284eb819ca4e031e1a647a7e1433955264736f6c634300080a0033",
  "immutableReferences": {},
  "source": "// SPDX-License-Identifier: MIT\r\npragma solidity ^0.8.10;\r\n\r\nimport \"@openzeppelin/contracts/access/AccessControl.sol\";\r\nimport \"@openzeppelin/contracts/access/AccessControlEnumerable.sol\";\r\nimport \"@openzeppelin/contracts/utils/Address.sol\";\r\nimport \"@openzeppelin/contracts/utils/cryptography/ECDSA.sol\";\r\nimport \"@openzeppelin/contracts/security/ReentrancyGuard.sol\";\r\nimport \"@openzeppelin/contracts/token/ERC20/extensions/ERC20Burnable.sol\";\r\n\r\nabstract contract BridgeERC20 is ERC20Burnable {\r\n  function mint( address account, uint256 amount ) public virtual;\r\n}\r\n\r\ncontract TipBot is AccessControlEnumerable, ReentrancyGuard {\r\n  using ECDSA for bytes32;\r\n  using Address for address;\r\n\r\n  // Start of events declaration\r\n  event Tip ( address indexed from,  address indexed toAddress, uint256 amount );\r\n  event AirDrop ( address[] indexed accounts);\r\n\r\n  // Global variables used in contract\r\n  uint256 public feeRate = 0.1 ether;\r\n  uint256 public airdropRate = 0.2 ether;\r\n\r\n  constructor(){\r\n    _setupRole(DEFAULT_ADMIN_ROLE, msg.sender);\r\n  }\r\n\r\n  function setFeeRate( uint256 _feeRate ) public onlyRole(DEFAULT_ADMIN_ROLE) {\r\n    require( _feeRate <= 1 ether, \"Invalid amount, cannot be greater than 1 ether\");\r\n    feeRate = _feeRate;\r\n  }\r\n\r\n  function setAirdropRate( uint256 _feeRate ) public onlyRole(DEFAULT_ADMIN_ROLE) {\r\n    require( _feeRate <= 1 ether, \"Invalid amount, cannot be greater than 1 ether\");\r\n    airdropRate = _feeRate;\r\n  }\r\n\r\n  function tip( address payable toAddress ) public payable nonReentrant {\r\n\r\n    uint256 newBalance = ((1 ether - feeRate) * msg.value)/1 ether;\r\n    (bool success, ) = toAddress.call{value: newBalance }(\"\");\r\n    require(success, \"Failed to send Token\");\r\n\r\n    emit Tip( \r\n      msg.sender,\r\n      toAddress,\r\n      msg.value \r\n    );\r\n  }\r\n\r\n\r\n  function airDrop ( \r\n    address payable[] memory accountAddress\r\n  ) public payable nonReentrant {\r\n\r\n    uint256 distributedAmount = ( ((1 ether - airdropRate) * msg.value ) / 1 ether ) / accountAddress.length;\r\n\r\n    for(uint8 i = 0; i < accountAddress.length; i++){\r\n\r\n      (bool success, ) = accountAddress[i].call{value: distributedAmount }(\"\");\r\n      require(success, \"Failed to send Token\");\r\n\r\n      emit Tip( \r\n        msg.sender,\r\n        accountAddress[i],\r\n        msg.value \r\n      );\r\n    }\r\n  }\r\n\r\n  function withdraw (\r\n    uint256 amount, \r\n    bytes memory data,\r\n    bytes[] calldata signatures\r\n  ) public {\r\n\r\n    require( getRoleMemberCount(DEFAULT_ADMIN_ROLE) == signatures.length, \"Not enough signatures\");\r\n\r\n    // Extract and verify each signature is valid\r\n    bytes32 message = keccak256(data);\r\n    bytes32 hashed = message.toEthSignedMessageHash();\r\n\r\n    uint8 validSignatures = 0;\r\n    for (uint8 i = 0; i < signatures.length; i++) {\r\n        bytes calldata signature = signatures[i];\r\n        address signer = hashed.recover(signature);\r\n        if (hasRole(DEFAULT_ADMIN_ROLE, signer)) {\r\n            validSignatures += 1;\r\n        }\r\n    }\r\n    require( validSignatures == getRoleMemberCount(DEFAULT_ADMIN_ROLE), \"Not all signatures are valid\");\r\n    \r\n    //Perform withdraw action\r\n    uint contractAmount = address(this).balance;\r\n    require( amount <= contractAmount, \"Not enough balance to withdraw\" );\r\n\r\n    (bool success, ) =  msg.sender.call{ value: amount }(\"\");\r\n    require( success, \"Failed to withdraw\" );\r\n  }\r\n\r\n}\r\n",
  "sourcePath": "/mnt/c/Users/rapha/Documents/Software_Development/work_folder/OsCorpLLC/syscoin-tip-bot/solidity/contracts/TipBot.sol",
  "compiler": {
    "name": "solc",
    "version": "0.8.10+commit.fc410830.Emscripten.clang"
  },
  "schemaVersion": "3.4.3",
  "updatedAt": "2022-02-18T14:31:19.367Z",
  "networkType": "ethereum",
  "devdoc": {
    "kind": "dev",
    "methods": {
      "getRoleAdmin(bytes32)": {
        "details": "Returns the admin role that controls `role`. See {grantRole} and {revokeRole}. To change a role's admin, use {_setRoleAdmin}."
      },
      "getRoleMember(bytes32,uint256)": {
        "details": "Returns one of the accounts that have `role`. `index` must be a value between 0 and {getRoleMemberCount}, non-inclusive. Role bearers are not sorted in any particular way, and their ordering may change at any point. WARNING: When using {getRoleMember} and {getRoleMemberCount}, make sure you perform all queries on the same block. See the following https://forum.openzeppelin.com/t/iterating-over-elements-on-enumerableset-in-openzeppelin-contracts/2296[forum post] for more information."
      },
      "getRoleMemberCount(bytes32)": {
        "details": "Returns the number of accounts that have `role`. Can be used together with {getRoleMember} to enumerate all bearers of a role."
      },
      "grantRole(bytes32,address)": {
        "details": "Grants `role` to `account`. If `account` had not been already granted `role`, emits a {RoleGranted} event. Requirements: - the caller must have ``role``'s admin role."
      },
      "hasRole(bytes32,address)": {
        "details": "Returns `true` if `account` has been granted `role`."
      },
      "renounceRole(bytes32,address)": {
        "details": "Revokes `role` from the calling account. Roles are often managed via {grantRole} and {revokeRole}: this function's purpose is to provide a mechanism for accounts to lose their privileges if they are compromised (such as when a trusted device is misplaced). If the calling account had been revoked `role`, emits a {RoleRevoked} event. Requirements: - the caller must be `account`."
      },
      "revokeRole(bytes32,address)": {
        "details": "Revokes `role` from `account`. If `account` had been granted `role`, emits a {RoleRevoked} event. Requirements: - the caller must have ``role``'s admin role."
      },
      "supportsInterface(bytes4)": {
        "details": "See {IERC165-supportsInterface}."
      }
    },
    "version": 1
  },
  "userdoc": {
    "kind": "user",
    "methods": {},
    "version": 1
  }
}