{
  "contractName": "TipBot",
  "abi": [
    {
      "inputs": [],
      "stateMutability": "nonpayable",
      "type": "constructor"
    },
    {
      "anonymous": false,
      "inputs": [
        {
          "indexed": true,
          "internalType": "address[]",
          "name": "accounts",
          "type": "address[]"
        }
      ],
      "name": "AirDrop",
      "type": "event"
    },
    {
      "anonymous": false,
      "inputs": [
        {
          "indexed": true,
          "internalType": "bytes32",
          "name": "role",
          "type": "bytes32"
        },
        {
          "indexed": true,
          "internalType": "bytes32",
          "name": "previousAdminRole",
          "type": "bytes32"
        },
        {
          "indexed": true,
          "internalType": "bytes32",
          "name": "newAdminRole",
          "type": "bytes32"
        }
      ],
      "name": "RoleAdminChanged",
      "type": "event"
    },
    {
      "anonymous": false,
      "inputs": [
        {
          "indexed": true,
          "internalType": "bytes32",
          "name": "role",
          "type": "bytes32"
        },
        {
          "indexed": true,
          "internalType": "address",
          "name": "account",
          "type": "address"
        },
        {
          "indexed": true,
          "internalType": "address",
          "name": "sender",
          "type": "address"
        }
      ],
      "name": "RoleGranted",
      "type": "event"
    },
    {
      "anonymous": false,
      "inputs": [
        {
          "indexed": true,
          "internalType": "bytes32",
          "name": "role",
          "type": "bytes32"
        },
        {
          "indexed": true,
          "internalType": "address",
          "name": "account",
          "type": "address"
        },
        {
          "indexed": true,
          "internalType": "address",
          "name": "sender",
          "type": "address"
        }
      ],
      "name": "RoleRevoked",
      "type": "event"
    },
    {
      "anonymous": false,
      "inputs": [
        {
          "indexed": true,
          "internalType": "address",
          "name": "from",
          "type": "address"
        },
        {
          "indexed": true,
          "internalType": "address",
          "name": "toAddress",
          "type": "address"
        },
        {
          "indexed": false,
          "internalType": "uint256",
          "name": "amount",
          "type": "uint256"
        }
      ],
      "name": "Tip",
      "type": "event"
    },
    {
      "inputs": [],
      "name": "DEFAULT_ADMIN_ROLE",
      "outputs": [
        {
          "internalType": "bytes32",
          "name": "",
          "type": "bytes32"
        }
      ],
      "stateMutability": "view",
      "type": "function"
    },
    {
      "inputs": [],
      "name": "airdropRate",
      "outputs": [
        {
          "internalType": "uint256",
          "name": "",
          "type": "uint256"
        }
      ],
      "stateMutability": "view",
      "type": "function"
    },
    {
      "inputs": [],
      "name": "feeRate",
      "outputs": [
        {
          "internalType": "uint256",
          "name": "",
          "type": "uint256"
        }
      ],
      "stateMutability": "view",
      "type": "function"
    },
    {
      "inputs": [
        {
          "internalType": "bytes32",
          "name": "role",
          "type": "bytes32"
        }
      ],
      "name": "getRoleAdmin",
      "outputs": [
        {
          "internalType": "bytes32",
          "name": "",
          "type": "bytes32"
        }
      ],
      "stateMutability": "view",
      "type": "function"
    },
    {
      "inputs": [
        {
          "internalType": "bytes32",
          "name": "role",
          "type": "bytes32"
        },
        {
          "internalType": "uint256",
          "name": "index",
          "type": "uint256"
        }
      ],
      "name": "getRoleMember",
      "outputs": [
        {
          "internalType": "address",
          "name": "",
          "type": "address"
        }
      ],
      "stateMutability": "view",
      "type": "function"
    },
    {
      "inputs": [
        {
          "internalType": "bytes32",
          "name": "role",
          "type": "bytes32"
        }
      ],
      "name": "getRoleMemberCount",
      "outputs": [
        {
          "internalType": "uint256",
          "name": "",
          "type": "uint256"
        }
      ],
      "stateMutability": "view",
      "type": "function"
    },
    {
      "inputs": [
        {
          "internalType": "bytes32",
          "name": "role",
          "type": "bytes32"
        },
        {
          "internalType": "address",
          "name": "account",
          "type": "address"
        }
      ],
      "name": "grantRole",
      "outputs": [],
      "stateMutability": "nonpayable",
      "type": "function"
    },
    {
      "inputs": [
        {
          "internalType": "bytes32",
          "name": "role",
          "type": "bytes32"
        },
        {
          "internalType": "address",
          "name": "account",
          "type": "address"
        }
      ],
      "name": "hasRole",
      "outputs": [
        {
          "internalType": "bool",
          "name": "",
          "type": "bool"
        }
      ],
      "stateMutability": "view",
      "type": "function"
    },
    {
      "inputs": [
        {
          "internalType": "bytes32",
          "name": "role",
          "type": "bytes32"
        },
        {
          "internalType": "address",
          "name": "account",
          "type": "address"
        }
      ],
      "name": "renounceRole",
      "outputs": [],
      "stateMutability": "nonpayable",
      "type": "function"
    },
    {
      "inputs": [
        {
          "internalType": "bytes32",
          "name": "role",
          "type": "bytes32"
        },
        {
          "internalType": "address",
          "name": "account",
          "type": "address"
        }
      ],
      "name": "revokeRole",
      "outputs": [],
      "stateMutability": "nonpayable",
      "type": "function"
    },
    {
      "inputs": [
        {
          "internalType": "bytes4",
          "name": "interfaceId",
          "type": "bytes4"
        }
      ],
      "name": "supportsInterface",
      "outputs": [
        {
          "internalType": "bool",
          "name": "",
          "type": "bool"
        }
      ],
      "stateMutability": "view",
      "type": "function"
    },
    {
      "inputs": [
        {
          "internalType": "uint256",
          "name": "_feeRate",
          "type": "uint256"
        }
      ],
      "name": "setFeeRate",
      "outputs": [],
      "stateMutability": "nonpayable",
      "type": "function"
    },
    {
      "inputs": [
        {
          "internalType": "uint256",
          "name": "_feeRate",
          "type": "uint256"
        }
      ],
      "name": "setAirdropRate",
      "outputs": [],
      "stateMutability": "nonpayable",
      "type": "function"
    },
    {
      "inputs": [
        {
          "internalType": "address payable",
          "name": "toAddress",
          "type": "address"
        }
      ],
      "name": "tip",
      "outputs": [],
      "stateMutability": "payable",
      "type": "function"
    },
    {
      "inputs": [
        {
          "internalType": "address payable[]",
          "name": "accountAddress",
          "type": "address[]"
        }
      ],
      "name": "airDrop",
      "outputs": [],
      "stateMutability": "payable",
      "type": "function"
    },
    {
      "inputs": [
        {
          "internalType": "uint256",
          "name": "amount",
          "type": "uint256"
        },
        {
          "internalType": "bytes",
          "name": "data",
          "type": "bytes"
        },
        {
          "internalType": "bytes[]",
          "name": "signatures",
          "type": "bytes[]"
        }
      ],
      "name": "withdraw",
      "outputs": [],
      "stateMutability": "nonpayable",
      "type": "function"
    }
  ],
  "bytecode": "0x608060405267016345785d8a00006003556702c68af0bb1400006004553480156200002957600080fd5b506001600281905550620000476000801b336200004d60201b60201c565b620002e3565b6200005f82826200006360201b60201c565b5050565b6200007a8282620000ab60201b62000eb21760201c565b620000a681600160008581526020019081526020016000206200019c60201b62000f921790919060201c565b505050565b620000bd8282620001d460201b60201c565b6200019857600160008084815260200190815260200160002060000160008373ffffffffffffffffffffffffffffffffffffffff1673ffffffffffffffffffffffffffffffffffffffff16815260200190815260200160002060006101000a81548160ff0219169083151502179055506200013d6200023e60201b60201c565b73ffffffffffffffffffffffffffffffffffffffff168173ffffffffffffffffffffffffffffffffffffffff16837f2f8788117e7eff1d82e926ec794901d17c78024a50270940304540a733656f0d60405160405180910390a45b5050565b6000620001cc836000018373ffffffffffffffffffffffffffffffffffffffff1660001b6200024660201b60201c565b905092915050565b600080600084815260200190815260200160002060000160008373ffffffffffffffffffffffffffffffffffffffff1673ffffffffffffffffffffffffffffffffffffffff16815260200190815260200160002060009054906101000a900460ff16905092915050565b600033905090565b60006200025a8383620002c060201b60201c565b620002b5578260000182908060018154018082558091505060019003906000526020600020016000909190919091505582600001805490508360010160008481526020019081526020016000208190555060019050620002ba565b600090505b92915050565b600080836001016000848152602001908152602001600020541415905092915050565b612e8580620002f36000396000f3fe6080604052600436106100f25760003560e01c80639010d07c1161008a578063ac733ef711610059578063ac733ef71461032c578063ca15c87314610348578063d547741f14610385578063e357dffb146103ae576100f2565b80639010d07c1461025c57806391d1485414610299578063978bbdb9146102d6578063a217fddf14610301576100f2565b806336568abe116100c657806336568abe146101b657806345596e2e146101df57806363425ab4146102085780638891cf0d14610231576100f2565b8062b6849f146100f757806301ffc9a714610113578063248a9ca3146101505780632f2ff15d1461018d575b600080fd5b610111600480360381019061010c9190611ce7565b6103d7565b005b34801561011f57600080fd5b5061013a60048036038101906101359190611d88565b6105e2565b6040516101479190611dd0565b60405180910390f35b34801561015c57600080fd5b5061017760048036038101906101729190611e21565b61065c565b6040516101849190611e5d565b60405180910390f35b34801561019957600080fd5b506101b460048036038101906101af9190611eb6565b61067b565b005b3480156101c257600080fd5b506101dd60048036038101906101d89190611eb6565b6106a4565b005b3480156101eb57600080fd5b5061020660048036038101906102019190611f2c565b610727565b005b34801561021457600080fd5b5061022f600480360381019061022a9190612069565b610791565b005b34801561023d57600080fd5b50610246610bad565b6040516102539190612108565b60405180910390f35b34801561026857600080fd5b50610283600480360381019061027e9190612123565b610bb3565b6040516102909190612172565b60405180910390f35b3480156102a557600080fd5b506102c060048036038101906102bb9190611eb6565b610be2565b6040516102cd9190611dd0565b60405180910390f35b3480156102e257600080fd5b506102eb610c4c565b6040516102f89190612108565b60405180910390f35b34801561030d57600080fd5b50610316610c52565b6040516103239190611e5d565b60405180910390f35b6103466004803603810190610341919061218d565b610c59565b005b34801561035457600080fd5b5061036f600480360381019061036a9190611e21565b610dfb565b60405161037c9190612108565b60405180910390f35b34801561039157600080fd5b506103ac60048036038101906103a79190611eb6565b610e1f565b005b3480156103ba57600080fd5b506103d560048036038101906103d09190611f2c565b610e48565b005b60028054141561041c576040517f08c379a000000000000000000000000000000000000000000000000000000000815260040161041390612217565b60405180910390fd5b6002808190555060008151670de0b6b3a764000034600454670de0b6b3a76400006104479190612266565b610451919061229a565b61045b9190612323565b6104659190612323565b905060005b82518160ff1610156105d5576000838260ff168151811061048e5761048d612354565b5b602002602001015173ffffffffffffffffffffffffffffffffffffffff16836040516104b9906123b4565b60006040518083038185875af1925050503d80600081146104f6576040519150601f19603f3d011682016040523d82523d6000602084013e6104fb565b606091505b505090508061053f576040517f08c379a000000000000000000000000000000000000000000000000000000000815260040161053690612415565b60405180910390fd5b838260ff168151811061055557610554612354565b5b602002602001015173ffffffffffffffffffffffffffffffffffffffff163373ffffffffffffffffffffffffffffffffffffffff167fcbefbf6a902aa93a9aafdd30aefd16e61f6c015bbf5fcaccfdf1d29d0c84e7d0856040516105b99190612108565b60405180910390a35080806105cd90612442565b91505061046a565b5050600160028190555050565b60007f5a05180f000000000000000000000000000000000000000000000000000000007bffffffffffffffffffffffffffffffffffffffffffffffffffffffff1916827bffffffffffffffffffffffffffffffffffffffffffffffffffffffff19161480610655575061065482610fc2565b5b9050919050565b6000806000838152602001908152602001600020600101549050919050565b6106848261065c565b6106958161069061103c565b611044565b61069f83836110e1565b505050565b6106ac61103c565b73ffffffffffffffffffffffffffffffffffffffff168173ffffffffffffffffffffffffffffffffffffffff1614610719576040517f08c379a0000000000000000000000000000000000000000000000000000000008152600401610710906124de565b60405180910390fd5b6107238282611115565b5050565b6000801b61073c8161073761103c565b611044565b670de0b6b3a76400008210610786576040517f08c379a000000000000000000000000000000000000000000000000000000000815260040161077d90612570565b60405180910390fd5b816003819055505050565b6002805414156107d6576040517f08c379a00000000000000000000000000000000000000000000000000000000081526004016107cd90612217565b60405180910390fd5b60028081905550818190506107ed6000801b610dfb565b1461082d576040517f08c379a0000000000000000000000000000000000000000000000000000000008152600401610824906125dc565b60405180910390fd5b600083805190602001209050600061084482611149565b90506000805b858590508160ff161015610a555736600087878460ff1681811061087157610870612354565b5b9050602002810190610883919061260b565b9150915060006108e083838080601f016020809104026020016040519081016040528093929190818152602001838380828437600081840152601f19601f820116905080830192505050505050508761117990919063ffffffff16565b9050600560008273ffffffffffffffffffffffffffffffffffffffff1673ffffffffffffffffffffffffffffffffffffffff16815260200190815260200160002060009054906101000a900460ff161561096f576040517f08c379a0000000000000000000000000000000000000000000000000000000008152600401610966906126e0565b60405180910390fd5b61097c6000801b82610be2565b80156109d25750600560008273ffffffffffffffffffffffffffffffffffffffff1673ffffffffffffffffffffffffffffffffffffffff16815260200190815260200160002060009054906101000a900460ff16155b15610a3f576001856109e49190612700565b94506001600560008373ffffffffffffffffffffffffffffffffffffffff1673ffffffffffffffffffffffffffffffffffffffff16815260200190815260200160002060006101000a81548160ff0219169083151502179055505b5050508080610a4d90612442565b91505061084a565b50610a626000801b610dfb565b8160ff1614610aa6576040517f08c379a0000000000000000000000000000000000000000000000000000000008152600401610a9d90612783565b60405180910390fd5b600047905080881115610aee576040517f08c379a0000000000000000000000000000000000000000000000000000000008152600401610ae5906127ef565b60405180910390fd5b60003373ffffffffffffffffffffffffffffffffffffffff1689604051610b14906123b4565b60006040518083038185875af1925050503d8060008114610b51576040519150601f19603f3d011682016040523d82523d6000602084013e610b56565b606091505b5050905080610b9a576040517f08c379a0000000000000000000000000000000000000000000000000000000008152600401610b919061285b565b60405180910390fd5b5050505050600160028190555050505050565b60045481565b6000610bda82600160008681526020019081526020016000206111a090919063ffffffff16565b905092915050565b600080600084815260200190815260200160002060000160008373ffffffffffffffffffffffffffffffffffffffff1673ffffffffffffffffffffffffffffffffffffffff16815260200190815260200160002060009054906101000a900460ff16905092915050565b60035481565b6000801b81565b600280541415610c9e576040517f08c379a0000000000000000000000000000000000000000000000000000000008152600401610c9590612217565b60405180910390fd5b600280819055506000670de0b6b3a764000034600354670de0b6b3a7640000610cc79190612266565b610cd1919061229a565b610cdb9190612323565b905060008273ffffffffffffffffffffffffffffffffffffffff1682604051610d03906123b4565b60006040518083038185875af1925050503d8060008114610d40576040519150601f19603f3d011682016040523d82523d6000602084013e610d45565b606091505b5050905080610d89576040517f08c379a0000000000000000000000000000000000000000000000000000000008152600401610d8090612415565b60405180910390fd5b8273ffffffffffffffffffffffffffffffffffffffff163373ffffffffffffffffffffffffffffffffffffffff167fcbefbf6a902aa93a9aafdd30aefd16e61f6c015bbf5fcaccfdf1d29d0c84e7d084604051610de69190612108565b60405180910390a35050600160028190555050565b6000610e18600160008481526020019081526020016000206111ba565b9050919050565b610e288261065c565b610e3981610e3461103c565b611044565b610e438383611115565b505050565b6000801b610e5d81610e5861103c565b611044565b670de0b6b3a76400008210610ea7576040517f08c379a0000000000000000000000000000000000000000000000000000000008152600401610e9e90612570565b60405180910390fd5b816004819055505050565b610ebc8282610be2565b610f8e57600160008084815260200190815260200160002060000160008373ffffffffffffffffffffffffffffffffffffffff1673ffffffffffffffffffffffffffffffffffffffff16815260200190815260200160002060006101000a81548160ff021916908315150217905550610f3361103c565b73ffffffffffffffffffffffffffffffffffffffff168173ffffffffffffffffffffffffffffffffffffffff16837f2f8788117e7eff1d82e926ec794901d17c78024a50270940304540a733656f0d60405160405180910390a45b5050565b6000610fba836000018373ffffffffffffffffffffffffffffffffffffffff1660001b6111cf565b905092915050565b60007f7965db0b000000000000000000000000000000000000000000000000000000007bffffffffffffffffffffffffffffffffffffffffffffffffffffffff1916827bffffffffffffffffffffffffffffffffffffffffffffffffffffffff1916148061103557506110348261123f565b5b9050919050565b600033905090565b61104e8282610be2565b6110dd576110738173ffffffffffffffffffffffffffffffffffffffff1660146112a9565b6110818360001c60206112a9565b60405160200161109292919061298d565b6040516020818303038152906040526040517f08c379a00000000000000000000000000000000000000000000000000000000081526004016110d49190612a00565b60405180910390fd5b5050565b6110eb8282610eb2565b6111108160016000858152602001908152602001600020610f9290919063ffffffff16565b505050565b61111f82826114e5565b61114481600160008581526020019081526020016000206115c690919063ffffffff16565b505050565b60008160405160200161115c9190612a8f565b604051602081830303815290604052805190602001209050919050565b600080600061118885856115f6565b9150915061119581611679565b819250505092915050565b60006111af836000018361184e565b60001c905092915050565b60006111c882600001611879565b9050919050565b60006111db838361188a565b611234578260000182908060018154018082558091505060019003906000526020600020016000909190919091505582600001805490508360010160008481526020019081526020016000208190555060019050611239565b600090505b92915050565b60007f01ffc9a7000000000000000000000000000000000000000000000000000000007bffffffffffffffffffffffffffffffffffffffffffffffffffffffff1916827bffffffffffffffffffffffffffffffffffffffffffffffffffffffff1916149050919050565b6060600060028360026112bc919061229a565b6112c69190612ab5565b67ffffffffffffffff8111156112df576112de611b46565b5b6040519080825280601f01601f1916602001820160405280156113115781602001600182028036833780820191505090505b5090507f30000000000000000000000000000000000000000000000000000000000000008160008151811061134957611348612354565b5b60200101907effffffffffffffffffffffffffffffffffffffffffffffffffffffffffffff1916908160001a9053507f7800000000000000000000000000000000000000000000000000000000000000816001815181106113ad576113ac612354565b5b60200101907effffffffffffffffffffffffffffffffffffffffffffffffffffffffffffff1916908160001a905350600060018460026113ed919061229a565b6113f79190612ab5565b90505b6001811115611497577f3031323334353637383961626364656600000000000000000000000000000000600f86166010811061143957611438612354565b5b1a60f81b8282815181106114505761144f612354565b5b60200101907effffffffffffffffffffffffffffffffffffffffffffffffffffffffffffff1916908160001a905350600485901c94508061149090612b0b565b90506113fa565b50600084146114db576040517f08c379a00000000000000000000000000000000000000000000000000000000081526004016114d290612b81565b60405180910390fd5b8091505092915050565b6114ef8282610be2565b156115c257600080600084815260200190815260200160002060000160008373ffffffffffffffffffffffffffffffffffffffff1673ffffffffffffffffffffffffffffffffffffffff16815260200190815260200160002060006101000a81548160ff02191690831515021790555061156761103c565b73ffffffffffffffffffffffffffffffffffffffff168173ffffffffffffffffffffffffffffffffffffffff16837ff6391f5c32d9c69d2a47ea670b442974b53935d1edc7fd64eb21e047a839171b60405160405180910390a45b5050565b60006115ee836000018373ffffffffffffffffffffffffffffffffffffffff1660001b6118ad565b905092915050565b6000806041835114156116385760008060006020860151925060408601519150606086015160001a905061162c878285856119c1565b94509450505050611672565b60408351141561166957600080602085015191506040850151905061165e868383611ace565b935093505050611672565b60006002915091505b9250929050565b6000600481111561168d5761168c612ba1565b5b8160048111156116a05761169f612ba1565b5b14156116ab5761184b565b600160048111156116bf576116be612ba1565b5b8160048111156116d2576116d1612ba1565b5b1415611713576040517f08c379a000000000000000000000000000000000000000000000000000000000815260040161170a90612c1c565b60405180910390fd5b6002600481111561172757611726612ba1565b5b81600481111561173a57611739612ba1565b5b141561177b576040517f08c379a000000000000000000000000000000000000000000000000000000000815260040161177290612c88565b60405180910390fd5b6003600481111561178f5761178e612ba1565b5b8160048111156117a2576117a1612ba1565b5b14156117e3576040517f08c379a00000000000000000000000000000000000000000000000000000000081526004016117da90612d1a565b60405180910390fd5b6004808111156117f6576117f5612ba1565b5b81600481111561180957611808612ba1565b5b141561184a576040517f08c379a000000000000000000000000000000000000000000000000000000000815260040161184190612dac565b60405180910390fd5b5b50565b600082600001828154811061186657611865612354565b5b9060005260206000200154905092915050565b600081600001805490509050919050565b600080836001016000848152602001908152602001600020541415905092915050565b600080836001016000848152602001908152602001600020549050600081146119b55760006001826118df9190612266565b90506000600186600001805490506118f79190612266565b905081811461196657600086600001828154811061191857611917612354565b5b906000526020600020015490508087600001848154811061193c5761193b612354565b5b90600052602060002001819055508387600101600083815260200190815260200160002081905550505b8560000180548061197a57611979612dcc565b5b6001900381819060005260206000200160009055905585600101600086815260200190815260200160002060009055600193505050506119bb565b60009150505b92915050565b6000807f7fffffffffffffffffffffffffffffff5d576e7357a4501ddfe92f46681b20a08360001c11156119fc576000600391509150611ac5565b601b8560ff1614158015611a145750601c8560ff1614155b15611a26576000600491509150611ac5565b600060018787878760405160008152602001604052604051611a4b9493929190612e0a565b6020604051602081039080840390855afa158015611a6d573d6000803e3d6000fd5b505050602060405103519050600073ffffffffffffffffffffffffffffffffffffffff168173ffffffffffffffffffffffffffffffffffffffff161415611abc57600060019250925050611ac5565b80600092509250505b94509492505050565b6000806000807f7fffffffffffffffffffffffffffffffffffffffffffffffffffffffffffffff85169150601b8560ff1c019050611b0e878288856119c1565b935093505050935093915050565b6000604051905090565b600080fd5b600080fd5b600080fd5b6000601f19601f8301169050919050565b7f4e487b7100000000000000000000000000000000000000000000000000000000600052604160045260246000fd5b611b7e82611b35565b810181811067ffffffffffffffff82111715611b9d57611b9c611b46565b5b80604052505050565b6000611bb0611b1c565b9050611bbc8282611b75565b919050565b600067ffffffffffffffff821115611bdc57611bdb611b46565b5b602082029050602081019050919050565b600080fd5b600073ffffffffffffffffffffffffffffffffffffffff82169050919050565b6000611c1d82611bf2565b9050919050565b611c2d81611c12565b8114611c3857600080fd5b50565b600081359050611c4a81611c24565b92915050565b6000611c63611c5e84611bc1565b611ba6565b90508083825260208201905060208402830185811115611c8657611c85611bed565b5b835b81811015611caf5780611c9b8882611c3b565b845260208401935050602081019050611c88565b5050509392505050565b600082601f830112611cce57611ccd611b30565b5b8135611cde848260208601611c50565b91505092915050565b600060208284031215611cfd57611cfc611b26565b5b600082013567ffffffffffffffff811115611d1b57611d1a611b2b565b5b611d2784828501611cb9565b91505092915050565b60007fffffffff0000000000000000000000000000000000000000000000000000000082169050919050565b611d6581611d30565b8114611d7057600080fd5b50565b600081359050611d8281611d5c565b92915050565b600060208284031215611d9e57611d9d611b26565b5b6000611dac84828501611d73565b91505092915050565b60008115159050919050565b611dca81611db5565b82525050565b6000602082019050611de56000830184611dc1565b92915050565b6000819050919050565b611dfe81611deb565b8114611e0957600080fd5b50565b600081359050611e1b81611df5565b92915050565b600060208284031215611e3757611e36611b26565b5b6000611e4584828501611e0c565b91505092915050565b611e5781611deb565b82525050565b6000602082019050611e726000830184611e4e565b92915050565b6000611e8382611bf2565b9050919050565b611e9381611e78565b8114611e9e57600080fd5b50565b600081359050611eb081611e8a565b92915050565b60008060408385031215611ecd57611ecc611b26565b5b6000611edb85828601611e0c565b9250506020611eec85828601611ea1565b9150509250929050565b6000819050919050565b611f0981611ef6565b8114611f1457600080fd5b50565b600081359050611f2681611f00565b92915050565b600060208284031215611f4257611f41611b26565b5b6000611f5084828501611f17565b91505092915050565b600080fd5b600067ffffffffffffffff821115611f7957611f78611b46565b5b611f8282611b35565b9050602081019050919050565b82818337600083830152505050565b6000611fb1611fac84611f5e565b611ba6565b905082815260208101848484011115611fcd57611fcc611f59565b5b611fd8848285611f8f565b509392505050565b600082601f830112611ff557611ff4611b30565b5b8135612005848260208601611f9e565b91505092915050565b600080fd5b60008083601f84011261202957612028611b30565b5b8235905067ffffffffffffffff8111156120465761204561200e565b5b60208301915083602082028301111561206257612061611bed565b5b9250929050565b6000806000806060858703121561208357612082611b26565b5b600061209187828801611f17565b945050602085013567ffffffffffffffff8111156120b2576120b1611b2b565b5b6120be87828801611fe0565b935050604085013567ffffffffffffffff8111156120df576120de611b2b565b5b6120eb87828801612013565b925092505092959194509250565b61210281611ef6565b82525050565b600060208201905061211d60008301846120f9565b92915050565b6000806040838503121561213a57612139611b26565b5b600061214885828601611e0c565b925050602061215985828601611f17565b9150509250929050565b61216c81611e78565b82525050565b60006020820190506121876000830184612163565b92915050565b6000602082840312156121a3576121a2611b26565b5b60006121b184828501611c3b565b91505092915050565b600082825260208201905092915050565b7f5265656e7472616e637947756172643a207265656e7472616e742063616c6c00600082015250565b6000612201601f836121ba565b915061220c826121cb565b602082019050919050565b60006020820190508181036000830152612230816121f4565b9050919050565b7f4e487b7100000000000000000000000000000000000000000000000000000000600052601160045260246000fd5b600061227182611ef6565b915061227c83611ef6565b92508282101561228f5761228e612237565b5b828203905092915050565b60006122a582611ef6565b91506122b083611ef6565b9250817fffffffffffffffffffffffffffffffffffffffffffffffffffffffffffffffff04831182151516156122e9576122e8612237565b5b828202905092915050565b7f4e487b7100000000000000000000000000000000000000000000000000000000600052601260045260246000fd5b600061232e82611ef6565b915061233983611ef6565b925082612349576123486122f4565b5b828204905092915050565b7f4e487b7100000000000000000000000000000000000000000000000000000000600052603260045260246000fd5b600081905092915050565b50565b600061239e600083612383565b91506123a98261238e565b600082019050919050565b60006123bf82612391565b9150819050919050565b7f4661696c656420746f2073656e6420546f6b656e000000000000000000000000600082015250565b60006123ff6014836121ba565b915061240a826123c9565b602082019050919050565b6000602082019050818103600083015261242e816123f2565b9050919050565b600060ff82169050919050565b600061244d82612435565b915060ff82141561246157612460612237565b5b600182019050919050565b7f416363657373436f6e74726f6c3a2063616e206f6e6c792072656e6f756e636560008201527f20726f6c657320666f722073656c660000000000000000000000000000000000602082015250565b60006124c8602f836121ba565b91506124d38261246c565b604082019050919050565b600060208201905081810360008301526124f7816124bb565b9050919050565b7f496e76616c696420616d6f756e742c2063616e6e6f742062652067726561746560008201527f72207468616e2031206574686572000000000000000000000000000000000000602082015250565b600061255a602e836121ba565b9150612565826124fe565b604082019050919050565b600060208201905081810360008301526125898161254d565b9050919050565b7f4e6f7420656e6f756768207369676e6174757265730000000000000000000000600082015250565b60006125c66015836121ba565b91506125d182612590565b602082019050919050565b600060208201905081810360008301526125f5816125b9565b9050919050565b600080fd5b600080fd5b600080fd5b60008083356001602003843603038112612628576126276125fc565b5b80840192508235915067ffffffffffffffff82111561264a57612649612601565b5b60208301925060018202360383131561266657612665612606565b5b509250929050565b7f526570656174696e672061646d696e207369676e6174757265206e6f7420766160008201527f6c69640000000000000000000000000000000000000000000000000000000000602082015250565b60006126ca6023836121ba565b91506126d58261266e565b604082019050919050565b600060208201905081810360008301526126f9816126bd565b9050919050565b600061270b82612435565b915061271683612435565b92508260ff0382111561272c5761272b612237565b5b828201905092915050565b7f4e6f7420616c6c207369676e617475726573206172652076616c696400000000600082015250565b600061276d601c836121ba565b915061277882612737565b602082019050919050565b6000602082019050818103600083015261279c81612760565b9050919050565b7f4e6f7420656e6f7567682062616c616e636520746f2077697468647261770000600082015250565b60006127d9601e836121ba565b91506127e4826127a3565b602082019050919050565b60006020820190508181036000830152612808816127cc565b9050919050565b7f4661696c656420746f2077697468647261770000000000000000000000000000600082015250565b60006128456012836121ba565b91506128508261280f565b602082019050919050565b6000602082019050818103600083015261287481612838565b9050919050565b600081905092915050565b7f416363657373436f6e74726f6c3a206163636f756e7420000000000000000000600082015250565b60006128bc60178361287b565b91506128c782612886565b601782019050919050565b600081519050919050565b60005b838110156128fb5780820151818401526020810190506128e0565b8381111561290a576000848401525b50505050565b600061291b826128d2565b612925818561287b565b93506129358185602086016128dd565b80840191505092915050565b7f206973206d697373696e6720726f6c6520000000000000000000000000000000600082015250565b600061297760118361287b565b915061298282612941565b601182019050919050565b6000612998826128af565b91506129a48285612910565b91506129af8261296a565b91506129bb8284612910565b91508190509392505050565b60006129d2826128d2565b6129dc81856121ba565b93506129ec8185602086016128dd565b6129f581611b35565b840191505092915050565b60006020820190508181036000830152612a1a81846129c7565b905092915050565b7f19457468657265756d205369676e6564204d6573736167653a0a333200000000600082015250565b6000612a58601c8361287b565b9150612a6382612a22565b601c82019050919050565b6000819050919050565b612a89612a8482611deb565b612a6e565b82525050565b6000612a9a82612a4b565b9150612aa68284612a78565b60208201915081905092915050565b6000612ac082611ef6565b9150612acb83611ef6565b9250827fffffffffffffffffffffffffffffffffffffffffffffffffffffffffffffffff03821115612b0057612aff612237565b5b828201905092915050565b6000612b1682611ef6565b91506000821415612b2a57612b29612237565b5b600182039050919050565b7f537472696e67733a20686578206c656e67746820696e73756666696369656e74600082015250565b6000612b6b6020836121ba565b9150612b7682612b35565b602082019050919050565b60006020820190508181036000830152612b9a81612b5e565b9050919050565b7f4e487b7100000000000000000000000000000000000000000000000000000000600052602160045260246000fd5b7f45434453413a20696e76616c6964207369676e61747572650000000000000000600082015250565b6000612c066018836121ba565b9150612c1182612bd0565b602082019050919050565b60006020820190508181036000830152612c3581612bf9565b9050919050565b7f45434453413a20696e76616c6964207369676e6174757265206c656e67746800600082015250565b6000612c72601f836121ba565b9150612c7d82612c3c565b602082019050919050565b60006020820190508181036000830152612ca181612c65565b9050919050565b7f45434453413a20696e76616c6964207369676e6174757265202773272076616c60008201527f7565000000000000000000000000000000000000000000000000000000000000602082015250565b6000612d046022836121ba565b9150612d0f82612ca8565b604082019050919050565b60006020820190508181036000830152612d3381612cf7565b9050919050565b7f45434453413a20696e76616c6964207369676e6174757265202776272076616c60008201527f7565000000000000000000000000000000000000000000000000000000000000602082015250565b6000612d966022836121ba565b9150612da182612d3a565b604082019050919050565b60006020820190508181036000830152612dc581612d89565b9050919050565b7f4e487b7100000000000000000000000000000000000000000000000000000000600052603160045260246000fd5b612e0481612435565b82525050565b6000608082019050612e1f6000830187611e4e565b612e2c6020830186612dfb565b612e396040830185611e4e565b612e466060830184611e4e565b9594505050505056fea264697066735822122010cf7f713a5782ae0de7132f47596100657a8c6e60d2fac776f25e84632c57c464736f6c634300080a0033",
  "immutableReferences": {},
  "source": "// SPDX-License-Identifier: MIT\npragma solidity ^0.8.10;\n\nimport \"@openzeppelin/contracts/access/AccessControl.sol\";\nimport \"@openzeppelin/contracts/access/AccessControlEnumerable.sol\";\nimport \"@openzeppelin/contracts/utils/Address.sol\";\nimport \"@openzeppelin/contracts/utils/cryptography/ECDSA.sol\";\nimport \"@openzeppelin/contracts/security/ReentrancyGuard.sol\";\n\ncontract TipBot is AccessControlEnumerable, ReentrancyGuard {\n  using ECDSA for bytes32;\n  using Address for address;\n\n  // Start of events declaration\n  event Tip ( address indexed from,  address indexed toAddress, uint256 amount );\n  event AirDrop ( address[] indexed accounts);\n\n  // Global variables used in contract\n  uint256 public feeRate = 0.1 ether;\n  uint256 public airdropRate = 0.2 ether;\n\n  mapping(address => bool) signatureLookup;\n\n  constructor(){\n    _setupRole(DEFAULT_ADMIN_ROLE, msg.sender);\n  }\n\n  function setFeeRate( uint256 _feeRate ) public onlyRole(DEFAULT_ADMIN_ROLE) {\n    require( _feeRate < 1 ether, \"Invalid amount, cannot be greater than 1 ether\");\n    feeRate = _feeRate;\n  }\n\n  function setAirdropRate( uint256 _feeRate ) public onlyRole(DEFAULT_ADMIN_ROLE) {\n    require( _feeRate < 1 ether, \"Invalid amount, cannot be greater than 1 ether\");\n    airdropRate = _feeRate;\n  }\n\n  function tip( address payable toAddress ) public payable nonReentrant {\n\n    uint256 newBalance = ((1 ether - feeRate) * msg.value)/1 ether;\n    (bool success, ) = toAddress.call{value: newBalance }(\"\");\n    require(success, \"Failed to send Token\");\n\n    emit Tip( \n      msg.sender,\n      toAddress,\n      newBalance\n    );\n  }\n\n\n  function airDrop ( \n    address payable[] memory accountAddress\n  ) public payable nonReentrant {\n\n    uint256 distributedAmount = ( ((1 ether - airdropRate) * msg.value ) / 1 ether ) / accountAddress.length;\n\n    for(uint8 i = 0; i < accountAddress.length; i++){\n\n      (bool success, ) = accountAddress[i].call{value: distributedAmount }(\"\");\n      require(success, \"Failed to send Token\");\n\n      emit Tip( \n        msg.sender,\n        accountAddress[i],\n        distributedAmount\n      );\n    }\n  }\n\n  function withdraw (\n    uint256 amount, \n    bytes memory data,\n    bytes[] calldata signatures\n  ) public nonReentrant {\n\n    require( getRoleMemberCount(DEFAULT_ADMIN_ROLE) == signatures.length, \"Not enough signatures\");\n\n    // Extract and verify each signature is valid\n    bytes32 message = keccak256(data);\n    bytes32 hashed = message.toEthSignedMessageHash();\n\n    uint8 validSignatures = 0;\n    for (uint8 i = 0; i < signatures.length; i++) {\n        bytes calldata signature = signatures[i];\n        address signer = hashed.recover(signature);\n\n        require( !signatureLookup[signer], \"Repeating admin signature not valid\");\n\n        if (hasRole(DEFAULT_ADMIN_ROLE, signer) && !signatureLookup[signer]) {\n            validSignatures += 1;\n            signatureLookup[signer] = true;\n        }\n    }\n    require( validSignatures == getRoleMemberCount(DEFAULT_ADMIN_ROLE), \"Not all signatures are valid\");\n    \n    //Perform withdraw action\n    uint contractAmount = address(this).balance;\n    require( amount <= contractAmount, \"Not enough balance to withdraw\" );\n\n    (bool success, ) =  msg.sender.call{ value: amount }(\"\");\n    require( success, \"Failed to withdraw\" );\n  }\n\n}\n",
  "sourcePath": "/Volumes/Development/solidity/syscoin-tip-bot/solidity/contracts/TipBot.sol",
  "compiler": {
    "name": "solc",
    "version": "0.8.10+commit.fc410830.Emscripten.clang"
  },
  "schemaVersion": "3.4.3",
  "updatedAt": "2022-02-24T13:53:59.319Z",
  "devdoc": {
    "kind": "dev",
    "methods": {
      "getRoleAdmin(bytes32)": {
        "details": "Returns the admin role that controls `role`. See {grantRole} and {revokeRole}. To change a role's admin, use {_setRoleAdmin}."
      },
      "getRoleMember(bytes32,uint256)": {
        "details": "Returns one of the accounts that have `role`. `index` must be a value between 0 and {getRoleMemberCount}, non-inclusive. Role bearers are not sorted in any particular way, and their ordering may change at any point. WARNING: When using {getRoleMember} and {getRoleMemberCount}, make sure you perform all queries on the same block. See the following https://forum.openzeppelin.com/t/iterating-over-elements-on-enumerableset-in-openzeppelin-contracts/2296[forum post] for more information."
      },
      "getRoleMemberCount(bytes32)": {
        "details": "Returns the number of accounts that have `role`. Can be used together with {getRoleMember} to enumerate all bearers of a role."
      },
      "grantRole(bytes32,address)": {
        "details": "Grants `role` to `account`. If `account` had not been already granted `role`, emits a {RoleGranted} event. Requirements: - the caller must have ``role``'s admin role."
      },
      "hasRole(bytes32,address)": {
        "details": "Returns `true` if `account` has been granted `role`."
      },
      "renounceRole(bytes32,address)": {
        "details": "Revokes `role` from the calling account. Roles are often managed via {grantRole} and {revokeRole}: this function's purpose is to provide a mechanism for accounts to lose their privileges if they are compromised (such as when a trusted device is misplaced). If the calling account had been revoked `role`, emits a {RoleRevoked} event. Requirements: - the caller must be `account`."
      },
      "revokeRole(bytes32,address)": {
        "details": "Revokes `role` from `account`. If `account` had been granted `role`, emits a {RoleRevoked} event. Requirements: - the caller must have ``role``'s admin role."
      },
      "supportsInterface(bytes4)": {
        "details": "See {IERC165-supportsInterface}."
      }
    },
    "version": 1
  },
  "userdoc": {
    "kind": "user",
    "methods": {},
    "version": 1
  }
}