{
  "contractName": "TipBot",
  "abi": [
    {
      "inputs": [],
      "stateMutability": "nonpayable",
      "type": "constructor"
    },
    {
      "anonymous": false,
      "inputs": [
        {
          "indexed": true,
          "internalType": "address",
          "name": "from",
          "type": "address"
        },
        {
          "indexed": true,
          "internalType": "address",
          "name": "toAddress",
          "type": "address"
        },
        {
          "indexed": false,
          "internalType": "uint256",
          "name": "amount",
          "type": "uint256"
        }
      ],
      "name": "AirDrop",
      "type": "event"
    },
    {
      "anonymous": false,
      "inputs": [
        {
          "indexed": true,
          "internalType": "address",
          "name": "from",
          "type": "address"
        },
        {
          "indexed": true,
          "internalType": "address",
          "name": "toAddress",
          "type": "address"
        },
        {
          "indexed": false,
          "internalType": "uint256",
          "name": "amount",
          "type": "uint256"
        }
      ],
      "name": "AirDropToken",
      "type": "event"
    },
    {
      "anonymous": false,
      "inputs": [
        {
          "indexed": true,
          "internalType": "bytes32",
          "name": "role",
          "type": "bytes32"
        },
        {
          "indexed": true,
          "internalType": "bytes32",
          "name": "previousAdminRole",
          "type": "bytes32"
        },
        {
          "indexed": true,
          "internalType": "bytes32",
          "name": "newAdminRole",
          "type": "bytes32"
        }
      ],
      "name": "RoleAdminChanged",
      "type": "event"
    },
    {
      "anonymous": false,
      "inputs": [
        {
          "indexed": true,
          "internalType": "bytes32",
          "name": "role",
          "type": "bytes32"
        },
        {
          "indexed": true,
          "internalType": "address",
          "name": "account",
          "type": "address"
        },
        {
          "indexed": true,
          "internalType": "address",
          "name": "sender",
          "type": "address"
        }
      ],
      "name": "RoleGranted",
      "type": "event"
    },
    {
      "anonymous": false,
      "inputs": [
        {
          "indexed": true,
          "internalType": "bytes32",
          "name": "role",
          "type": "bytes32"
        },
        {
          "indexed": true,
          "internalType": "address",
          "name": "account",
          "type": "address"
        },
        {
          "indexed": true,
          "internalType": "address",
          "name": "sender",
          "type": "address"
        }
      ],
      "name": "RoleRevoked",
      "type": "event"
    },
    {
      "anonymous": false,
      "inputs": [
        {
          "indexed": true,
          "internalType": "address",
          "name": "from",
          "type": "address"
        },
        {
          "indexed": true,
          "internalType": "address",
          "name": "toAddress",
          "type": "address"
        },
        {
          "indexed": false,
          "internalType": "uint256",
          "name": "amount",
          "type": "uint256"
        }
      ],
      "name": "Tip",
      "type": "event"
    },
    {
      "anonymous": false,
      "inputs": [
        {
          "indexed": true,
          "internalType": "address",
          "name": "from",
          "type": "address"
        },
        {
          "indexed": true,
          "internalType": "address",
          "name": "toAddress",
          "type": "address"
        },
        {
          "indexed": false,
          "internalType": "uint256",
          "name": "amount",
          "type": "uint256"
        }
      ],
      "name": "TipToken",
      "type": "event"
    },
    {
      "anonymous": false,
      "inputs": [
        {
          "indexed": false,
          "internalType": "uint256",
          "name": "amount",
          "type": "uint256"
        },
        {
          "indexed": true,
          "internalType": "bytes32",
          "name": "reason",
          "type": "bytes32"
        }
      ],
      "name": "Withdraw",
      "type": "event"
    },
    {
      "inputs": [],
      "name": "DEFAULT_ADMIN_ROLE",
      "outputs": [
        {
          "internalType": "bytes32",
          "name": "",
          "type": "bytes32"
        }
      ],
      "stateMutability": "view",
      "type": "function"
    },
    {
      "inputs": [],
      "name": "airdropRate",
      "outputs": [
        {
          "internalType": "uint256",
          "name": "",
          "type": "uint256"
        }
      ],
      "stateMutability": "view",
      "type": "function"
    },
    {
      "inputs": [],
      "name": "feeRate",
      "outputs": [
        {
          "internalType": "uint256",
          "name": "",
          "type": "uint256"
        }
      ],
      "stateMutability": "view",
      "type": "function"
    },
    {
      "inputs": [
        {
          "internalType": "bytes32",
          "name": "role",
          "type": "bytes32"
        }
      ],
      "name": "getRoleAdmin",
      "outputs": [
        {
          "internalType": "bytes32",
          "name": "",
          "type": "bytes32"
        }
      ],
      "stateMutability": "view",
      "type": "function"
    },
    {
      "inputs": [
        {
          "internalType": "bytes32",
          "name": "role",
          "type": "bytes32"
        },
        {
          "internalType": "uint256",
          "name": "index",
          "type": "uint256"
        }
      ],
      "name": "getRoleMember",
      "outputs": [
        {
          "internalType": "address",
          "name": "",
          "type": "address"
        }
      ],
      "stateMutability": "view",
      "type": "function"
    },
    {
      "inputs": [
        {
          "internalType": "bytes32",
          "name": "role",
          "type": "bytes32"
        }
      ],
      "name": "getRoleMemberCount",
      "outputs": [
        {
          "internalType": "uint256",
          "name": "",
          "type": "uint256"
        }
      ],
      "stateMutability": "view",
      "type": "function"
    },
    {
      "inputs": [
        {
          "internalType": "bytes32",
          "name": "role",
          "type": "bytes32"
        },
        {
          "internalType": "address",
          "name": "account",
          "type": "address"
        }
      ],
      "name": "grantRole",
      "outputs": [],
      "stateMutability": "nonpayable",
      "type": "function"
    },
    {
      "inputs": [
        {
          "internalType": "bytes32",
          "name": "role",
          "type": "bytes32"
        },
        {
          "internalType": "address",
          "name": "account",
          "type": "address"
        }
      ],
      "name": "hasRole",
      "outputs": [
        {
          "internalType": "bool",
          "name": "",
          "type": "bool"
        }
      ],
      "stateMutability": "view",
      "type": "function"
    },
    {
      "inputs": [
        {
          "internalType": "bytes32",
          "name": "role",
          "type": "bytes32"
        },
        {
          "internalType": "address",
          "name": "account",
          "type": "address"
        }
      ],
      "name": "renounceRole",
      "outputs": [],
      "stateMutability": "nonpayable",
      "type": "function"
    },
    {
      "inputs": [
        {
          "internalType": "bytes32",
          "name": "role",
          "type": "bytes32"
        },
        {
          "internalType": "address",
          "name": "account",
          "type": "address"
        }
      ],
      "name": "revokeRole",
      "outputs": [],
      "stateMutability": "nonpayable",
      "type": "function"
    },
    {
      "inputs": [
        {
          "internalType": "bytes4",
          "name": "interfaceId",
          "type": "bytes4"
        }
      ],
      "name": "supportsInterface",
      "outputs": [
        {
          "internalType": "bool",
          "name": "",
          "type": "bool"
        }
      ],
      "stateMutability": "view",
      "type": "function"
    },
    {
      "inputs": [
        {
          "internalType": "uint256",
          "name": "_feeRate",
          "type": "uint256"
        }
      ],
      "name": "setFeeRate",
      "outputs": [],
      "stateMutability": "nonpayable",
      "type": "function"
    },
    {
      "inputs": [
        {
          "internalType": "uint256",
          "name": "_feeRate",
          "type": "uint256"
        }
      ],
      "name": "setAirdropRate",
      "outputs": [],
      "stateMutability": "nonpayable",
      "type": "function"
    },
    {
      "inputs": [
        {
          "internalType": "address payable",
          "name": "toAddress",
          "type": "address"
        }
      ],
      "name": "tip",
      "outputs": [],
      "stateMutability": "payable",
      "type": "function"
    },
    {
      "inputs": [
        {
          "internalType": "address",
          "name": "toAddress",
          "type": "address"
        },
        {
          "internalType": "contract IERC20",
          "name": "token",
          "type": "address"
        },
        {
          "internalType": "uint256",
          "name": "amount",
          "type": "uint256"
        }
      ],
      "name": "tipByToken",
      "outputs": [],
      "stateMutability": "nonpayable",
      "type": "function"
    },
    {
      "inputs": [
        {
          "internalType": "address payable[]",
          "name": "accountAddress",
          "type": "address[]"
        }
      ],
      "name": "airDrop",
      "outputs": [],
      "stateMutability": "payable",
      "type": "function"
    },
    {
      "inputs": [
        {
          "internalType": "address[]",
          "name": "accountAddress",
          "type": "address[]"
        },
        {
          "internalType": "contract IERC20",
          "name": "token",
          "type": "address"
        },
        {
          "internalType": "uint256",
          "name": "amount",
          "type": "uint256"
        }
      ],
      "name": "airDropToken",
      "outputs": [],
      "stateMutability": "nonpayable",
      "type": "function"
    },
    {
      "inputs": [
        {
          "internalType": "uint256",
          "name": "amount",
          "type": "uint256"
        },
        {
          "internalType": "bytes32",
          "name": "reason",
          "type": "bytes32"
        },
        {
          "internalType": "bytes",
          "name": "data",
          "type": "bytes"
        },
        {
          "internalType": "bytes[]",
          "name": "signatures",
          "type": "bytes[]"
        }
      ],
      "name": "withdraw",
      "outputs": [],
      "stateMutability": "nonpayable",
      "type": "function"
    }
  ],
  "bytecode": "0x608060405267016345785d8a00006003556702c68af0bb1400006004553480156200002957600080fd5b506001600281905550620000476000801b336200004d60201b60201c565b620002e3565b6200005f82826200006360201b60201c565b5050565b6200007a8282620000ab60201b620016e01760201c565b620000a681600160008581526020019081526020016000206200019c60201b620017c01790919060201c565b505050565b620000bd8282620001d460201b60201c565b6200019857600160008084815260200190815260200160002060000160008373ffffffffffffffffffffffffffffffffffffffff1673ffffffffffffffffffffffffffffffffffffffff16815260200190815260200160002060006101000a81548160ff0219169083151502179055506200013d6200023e60201b60201c565b73ffffffffffffffffffffffffffffffffffffffff168173ffffffffffffffffffffffffffffffffffffffff16837f2f8788117e7eff1d82e926ec794901d17c78024a50270940304540a733656f0d60405160405180910390a45b5050565b6000620001cc836000018373ffffffffffffffffffffffffffffffffffffffff1660001b6200024660201b60201c565b905092915050565b600080600084815260200190815260200160002060000160008373ffffffffffffffffffffffffffffffffffffffff1673ffffffffffffffffffffffffffffffffffffffff16815260200190815260200160002060009054906101000a900460ff16905092915050565b600033905090565b60006200025a8383620002c060201b60201c565b620002b5578260000182908060018154018082558091505060019003906000526020600020016000909190919091505582600001805490508360010160008481526020019081526020016000208190555060019050620002ba565b600090505b92915050565b600080836001016000848152602001908152602001600020541415905092915050565b613cdf80620002f36000396000f3fe6080604052600436106101085760003560e01c80639010d07c11610095578063ac733ef711610064578063ac733ef71461036b578063ca15c87314610387578063d547741f146103c4578063e1765ab8146103ed578063e357dffb1461041657610108565b80639010d07c1461029b57806391d14854146102d8578063978bbdb914610315578063a217fddf1461034057610108565b80632f2ff15d116100dc5780632f2ff15d146101cc57806336568abe146101f557806345596e2e1461021e5780637659b613146102475780638891cf0d1461027057610108565b8062b6849f1461010d57806301ffc9a714610129578063248a9ca3146101665780632dffff4a146101a3575b600080fd5b61012760048036038101906101229190612515565b61043f565b005b34801561013557600080fd5b50610150600480360381019061014b91906125b6565b61068e565b60405161015d91906125fe565b60405180910390f35b34801561017257600080fd5b5061018d6004803603810190610188919061264f565b610708565b60405161019a919061268b565b60405180910390f35b3480156101af57600080fd5b506101ca60048036038101906101c59190612758565b610727565b005b3480156101d857600080fd5b506101f360048036038101906101ee91906127ab565b6109e9565b005b34801561020157600080fd5b5061021c600480360381019061021791906127ab565b610a12565b005b34801561022a57600080fd5b50610245600480360381019061024091906127eb565b610a95565b005b34801561025357600080fd5b5061026e60048036038101906102699190612928565b610aff565b005b34801561027c57600080fd5b5061028561106c565b60405161029291906129db565b60405180910390f35b3480156102a757600080fd5b506102c260048036038101906102bd91906129f6565b611072565b6040516102cf9190612a45565b60405180910390f35b3480156102e457600080fd5b506102ff60048036038101906102fa91906127ab565b6110a1565b60405161030c91906125fe565b60405180910390f35b34801561032157600080fd5b5061032a61110b565b60405161033791906129db565b60405180910390f35b34801561034c57600080fd5b50610355611111565b604051610362919061268b565b60405180910390f35b61038560048036038101906103809190612a60565b611118565b005b34801561039357600080fd5b506103ae60048036038101906103a9919061264f565b6112ba565b6040516103bb91906129db565b60405180910390f35b3480156103d057600080fd5b506103eb60048036038101906103e691906127ab565b6112de565b005b3480156103f957600080fd5b50610414600480360381019061040f9190612b50565b611307565b005b34801561042257600080fd5b5061043d600480360381019061043891906127eb565b611676565b005b600280541415610484576040517f08c379a000000000000000000000000000000000000000000000000000000000815260040161047b90612c1c565b60405180910390fd5b6002808190555060008151116104cf576040517f08c379a00000000000000000000000000000000000000000000000000000000081526004016104c690612c88565b60405180910390fd5b60008151670de0b6b3a764000034600454670de0b6b3a76400006104f39190612cd7565b6104fd9190612d0b565b6105079190612d94565b6105119190612d94565b905060005b82518160ff161015610681576000838260ff168151811061053a57610539612dc5565b5b602002602001015173ffffffffffffffffffffffffffffffffffffffff168360405161056590612e25565b60006040518083038185875af1925050503d80600081146105a2576040519150601f19603f3d011682016040523d82523d6000602084013e6105a7565b606091505b50509050806105eb576040517f08c379a00000000000000000000000000000000000000000000000000000000081526004016105e290612e86565b60405180910390fd5b838260ff168151811061060157610600612dc5565b5b602002602001015173ffffffffffffffffffffffffffffffffffffffff163373ffffffffffffffffffffffffffffffffffffffff167f44347b1aec7858b9ab924df67243a402f4afd5e7d5f045176cde4c521350b88b8560405161066591906129db565b60405180910390a350808061067990612eb3565b915050610516565b5050600160028190555050565b60007f5a05180f000000000000000000000000000000000000000000000000000000007bffffffffffffffffffffffffffffffffffffffffffffffffffffffff1916827bffffffffffffffffffffffffffffffffffffffffffffffffffffffff191614806107015750610700826117f0565b5b9050919050565b6000806000838152602001908152602001600020600101549050919050565b60028054141561076c576040517f08c379a000000000000000000000000000000000000000000000000000000000815260040161076390612c1c565b60405180910390fd5b60028081905550600081116107b6576040517f08c379a00000000000000000000000000000000000000000000000000000000081526004016107ad90612f29565b60405180910390fd5b60008273ffffffffffffffffffffffffffffffffffffffff166323b872dd3330856040518463ffffffff1660e01b81526004016107f593929190612f49565b6020604051808303816000875af1158015610814573d6000803e3d6000fd5b505050506040513d601f19601f820116820180604052508101906108389190612fac565b90508061087a576040517f08c379a000000000000000000000000000000000000000000000000000000000815260040161087190613025565b60405180910390fd5b6000670de0b6b3a764000083600354670de0b6b3a764000061089c9190612cd7565b6108a69190612d0b565b6108b09190612d94565b905060008473ffffffffffffffffffffffffffffffffffffffff1663a9059cbb87846040518363ffffffff1660e01b81526004016108ef929190613045565b6020604051808303816000875af115801561090e573d6000803e3d6000fd5b505050506040513d601f19601f820116820180604052508101906109329190612fac565b905080610974576040517f08c379a000000000000000000000000000000000000000000000000000000000815260040161096b906130ba565b60405180910390fd5b8573ffffffffffffffffffffffffffffffffffffffff163373ffffffffffffffffffffffffffffffffffffffff167fa1a592f6d33ec9726b8ac400d4b12522256902498feb99b97e13f86b88a96321846040516109d191906129db565b60405180910390a35050506001600281905550505050565b6109f282610708565b610a03816109fe61186a565b611872565b610a0d838361190f565b505050565b610a1a61186a565b73ffffffffffffffffffffffffffffffffffffffff168173ffffffffffffffffffffffffffffffffffffffff1614610a87576040517f08c379a0000000000000000000000000000000000000000000000000000000008152600401610a7e9061314c565b60405180910390fd5b610a918282611943565b5050565b6000801b610aaa81610aa561186a565b611872565b670de0b6b3a76400008210610af4576040517f08c379a0000000000000000000000000000000000000000000000000000000008152600401610aeb906131de565b60405180910390fd5b816003819055505050565b600280541415610b44576040517f08c379a0000000000000000000000000000000000000000000000000000000008152600401610b3b90612c1c565b60405180910390fd5b6002808190555081819050610b5b6000801b6112ba565b14610b9b576040517f08c379a0000000000000000000000000000000000000000000000000000000008152600401610b929061324a565b60405180910390fd5b6000838051906020012090506000610bb282611977565b90506000805b858590508160ff161015610de25736600087878460ff16818110610bdf57610bde612dc5565b5b9050602002810190610bf19190613279565b915091506000610c4e83838080601f016020809104026020016040519081016040528093929190818152602001838380828437600081840152601f19601f82011690508083019250505050505050876119a790919063ffffffff16565b9050610c5d6000801b826110a1565b610c9c576040517f08c379a0000000000000000000000000000000000000000000000000000000008152600401610c9390613328565b60405180910390fd5b60058383604051610cae92919061336d565b908152602001604051809103902060008273ffffffffffffffffffffffffffffffffffffffff1673ffffffffffffffffffffffffffffffffffffffff16815260200190815260200160002060009054906101000a900460ff1615610d47576040517f08c379a0000000000000000000000000000000000000000000000000000000008152600401610d3e906133f8565b60405180910390fd5b600185610d549190613418565b9450600160058484604051610d6a92919061336d565b908152602001604051809103902060008373ffffffffffffffffffffffffffffffffffffffff1673ffffffffffffffffffffffffffffffffffffffff16815260200190815260200160002060006101000a81548160ff0219169083151502179055505050508080610dda90612eb3565b915050610bb8565b50610def6000801b6112ba565b8160ff1614610e33576040517f08c379a0000000000000000000000000000000000000000000000000000000008152600401610e2a9061349b565b60405180910390fd5b60008087806020019051810190610e4a91906134e5565b91509150898214610e90576040517f08c379a0000000000000000000000000000000000000000000000000000000008152600401610e8790613571565b60405180910390fd5b888114610ed2576040517f08c379a0000000000000000000000000000000000000000000000000000000008152600401610ec9906135dd565b60405180910390fd5b6000479050808b1115610f1a576040517f08c379a0000000000000000000000000000000000000000000000000000000008152600401610f1190613649565b60405180910390fd5b6000610f286000801b6112ba565b8c610f339190612d94565b905060005b610f446000801b6112ba565b8160ff16101561101d576000610f606000801b8360ff16611072565b73ffffffffffffffffffffffffffffffffffffffff1683604051610f8390612e25565b60006040518083038185875af1925050503d8060008114610fc0576040519150601f19603f3d011682016040523d82523d6000602084013e610fc5565b606091505b5050905080611009576040517f08c379a0000000000000000000000000000000000000000000000000000000008152600401611000906136b5565b60405180910390fd5b50808061101590612eb3565b915050610f38565b508a7f7403cafb32164b082ee581e5bd17d85dd82f2e64cdd8bd729ea9435928f7433a8260405161104e91906129db565b60405180910390a25050505050505060016002819055505050505050565b60045481565b600061109982600160008681526020019081526020016000206119ce90919063ffffffff16565b905092915050565b600080600084815260200190815260200160002060000160008373ffffffffffffffffffffffffffffffffffffffff1673ffffffffffffffffffffffffffffffffffffffff16815260200190815260200160002060009054906101000a900460ff16905092915050565b60035481565b6000801b81565b60028054141561115d576040517f08c379a000000000000000000000000000000000000000000000000000000000815260040161115490612c1c565b60405180910390fd5b600280819055506000670de0b6b3a764000034600354670de0b6b3a76400006111869190612cd7565b6111909190612d0b565b61119a9190612d94565b905060008273ffffffffffffffffffffffffffffffffffffffff16826040516111c290612e25565b60006040518083038185875af1925050503d80600081146111ff576040519150601f19603f3d011682016040523d82523d6000602084013e611204565b606091505b5050905080611248576040517f08c379a000000000000000000000000000000000000000000000000000000000815260040161123f90612e86565b60405180910390fd5b8273ffffffffffffffffffffffffffffffffffffffff163373ffffffffffffffffffffffffffffffffffffffff167fcbefbf6a902aa93a9aafdd30aefd16e61f6c015bbf5fcaccfdf1d29d0c84e7d0846040516112a591906129db565b60405180910390a35050600160028190555050565b60006112d7600160008481526020019081526020016000206119e8565b9050919050565b6112e782610708565b6112f8816112f361186a565b611872565b6113028383611943565b505050565b60028054141561134c576040517f08c379a000000000000000000000000000000000000000000000000000000000815260040161134390612c1c565b60405180910390fd5b6002808190555060008111611396576040517f08c379a000000000000000000000000000000000000000000000000000000000815260040161138d90612f29565b60405180910390fd5b60008351116113da576040517f08c379a00000000000000000000000000000000000000000000000000000000081526004016113d190612c88565b60405180910390fd5b60008273ffffffffffffffffffffffffffffffffffffffff166323b872dd3330856040518463ffffffff1660e01b815260040161141993929190612f49565b6020604051808303816000875af1158015611438573d6000803e3d6000fd5b505050506040513d601f19601f8201168201806040525081019061145c9190612fac565b90508061149e576040517f08c379a000000000000000000000000000000000000000000000000000000000815260040161149590613025565b60405180910390fd5b60008451670de0b6b3a764000084600454670de0b6b3a76400006114c29190612cd7565b6114cc9190612d0b565b6114d69190612d94565b6114e09190612d94565b905060005b85518160ff1610156116665760008573ffffffffffffffffffffffffffffffffffffffff1663a9059cbb888460ff168151811061152557611524612dc5565b5b6020026020010151856040518363ffffffff1660e01b815260040161154b929190613045565b6020604051808303816000875af115801561156a573d6000803e3d6000fd5b505050506040513d601f19601f8201168201806040525081019061158e9190612fac565b9050806115d0576040517f08c379a00000000000000000000000000000000000000000000000000000000081526004016115c790612e86565b60405180910390fd5b868260ff16815181106115e6576115e5612dc5565b5b602002602001015173ffffffffffffffffffffffffffffffffffffffff163373ffffffffffffffffffffffffffffffffffffffff167f7f872650de37b7b8f60194fd393eee0c77c163929a8bd729ad0fbedb48d6e12d8560405161164a91906129db565b60405180910390a350808061165e90612eb3565b9150506114e5565b5050506001600281905550505050565b6000801b61168b8161168661186a565b611872565b670de0b6b3a764000082106116d5576040517f08c379a00000000000000000000000000000000000000000000000000000000081526004016116cc906131de565b60405180910390fd5b816004819055505050565b6116ea82826110a1565b6117bc57600160008084815260200190815260200160002060000160008373ffffffffffffffffffffffffffffffffffffffff1673ffffffffffffffffffffffffffffffffffffffff16815260200190815260200160002060006101000a81548160ff02191690831515021790555061176161186a565b73ffffffffffffffffffffffffffffffffffffffff168173ffffffffffffffffffffffffffffffffffffffff16837f2f8788117e7eff1d82e926ec794901d17c78024a50270940304540a733656f0d60405160405180910390a45b5050565b60006117e8836000018373ffffffffffffffffffffffffffffffffffffffff1660001b6119fd565b905092915050565b60007f7965db0b000000000000000000000000000000000000000000000000000000007bffffffffffffffffffffffffffffffffffffffffffffffffffffffff1916827bffffffffffffffffffffffffffffffffffffffffffffffffffffffff19161480611863575061186282611a6d565b5b9050919050565b600033905090565b61187c82826110a1565b61190b576118a18173ffffffffffffffffffffffffffffffffffffffff166014611ad7565b6118af8360001c6020611ad7565b6040516020016118c09291906137e7565b6040516020818303038152906040526040517f08c379a0000000000000000000000000000000000000000000000000000000008152600401611902919061385a565b60405180910390fd5b5050565b61191982826116e0565b61193e81600160008581526020019081526020016000206117c090919063ffffffff16565b505050565b61194d8282611d13565b6119728160016000858152602001908152602001600020611df490919063ffffffff16565b505050565b60008160405160200161198a91906138e9565b604051602081830303815290604052805190602001209050919050565b60008060006119b68585611e24565b915091506119c381611ea7565b819250505092915050565b60006119dd836000018361207c565b60001c905092915050565b60006119f6826000016120a7565b9050919050565b6000611a0983836120b8565b611a62578260000182908060018154018082558091505060019003906000526020600020016000909190919091505582600001805490508360010160008481526020019081526020016000208190555060019050611a67565b600090505b92915050565b60007f01ffc9a7000000000000000000000000000000000000000000000000000000007bffffffffffffffffffffffffffffffffffffffffffffffffffffffff1916827bffffffffffffffffffffffffffffffffffffffffffffffffffffffff1916149050919050565b606060006002836002611aea9190612d0b565b611af4919061390f565b67ffffffffffffffff811115611b0d57611b0c612374565b5b6040519080825280601f01601f191660200182016040528015611b3f5781602001600182028036833780820191505090505b5090507f300000000000000000000000000000000000000000000000000000000000000081600081518110611b7757611b76612dc5565b5b60200101907effffffffffffffffffffffffffffffffffffffffffffffffffffffffffffff1916908160001a9053507f780000000000000000000000000000000000000000000000000000000000000081600181518110611bdb57611bda612dc5565b5b60200101907effffffffffffffffffffffffffffffffffffffffffffffffffffffffffffff1916908160001a90535060006001846002611c1b9190612d0b565b611c25919061390f565b90505b6001811115611cc5577f3031323334353637383961626364656600000000000000000000000000000000600f861660108110611c6757611c66612dc5565b5b1a60f81b828281518110611c7e57611c7d612dc5565b5b60200101907effffffffffffffffffffffffffffffffffffffffffffffffffffffffffffff1916908160001a905350600485901c945080611cbe90613965565b9050611c28565b5060008414611d09576040517f08c379a0000000000000000000000000000000000000000000000000000000008152600401611d00906139db565b60405180910390fd5b8091505092915050565b611d1d82826110a1565b15611df057600080600084815260200190815260200160002060000160008373ffffffffffffffffffffffffffffffffffffffff1673ffffffffffffffffffffffffffffffffffffffff16815260200190815260200160002060006101000a81548160ff021916908315150217905550611d9561186a565b73ffffffffffffffffffffffffffffffffffffffff168173ffffffffffffffffffffffffffffffffffffffff16837ff6391f5c32d9c69d2a47ea670b442974b53935d1edc7fd64eb21e047a839171b60405160405180910390a45b5050565b6000611e1c836000018373ffffffffffffffffffffffffffffffffffffffff1660001b6120db565b905092915050565b600080604183511415611e665760008060006020860151925060408601519150606086015160001a9050611e5a878285856121ef565b94509450505050611ea0565b604083511415611e97576000806020850151915060408501519050611e8c8683836122fc565b935093505050611ea0565b60006002915091505b9250929050565b60006004811115611ebb57611eba6139fb565b5b816004811115611ece57611ecd6139fb565b5b1415611ed957612079565b60016004811115611eed57611eec6139fb565b5b816004811115611f0057611eff6139fb565b5b1415611f41576040517f08c379a0000000000000000000000000000000000000000000000000000000008152600401611f3890613a76565b60405180910390fd5b60026004811115611f5557611f546139fb565b5b816004811115611f6857611f676139fb565b5b1415611fa9576040517f08c379a0000000000000000000000000000000000000000000000000000000008152600401611fa090613ae2565b60405180910390fd5b60036004811115611fbd57611fbc6139fb565b5b816004811115611fd057611fcf6139fb565b5b1415612011576040517f08c379a000000000000000000000000000000000000000000000000000000000815260040161200890613b74565b60405180910390fd5b600480811115612024576120236139fb565b5b816004811115612037576120366139fb565b5b1415612078576040517f08c379a000000000000000000000000000000000000000000000000000000000815260040161206f90613c06565b60405180910390fd5b5b50565b600082600001828154811061209457612093612dc5565b5b9060005260206000200154905092915050565b600081600001805490509050919050565b600080836001016000848152602001908152602001600020541415905092915050565b600080836001016000848152602001908152602001600020549050600081146121e357600060018261210d9190612cd7565b90506000600186600001805490506121259190612cd7565b905081811461219457600086600001828154811061214657612145612dc5565b5b906000526020600020015490508087600001848154811061216a57612169612dc5565b5b90600052602060002001819055508387600101600083815260200190815260200160002081905550505b856000018054806121a8576121a7613c26565b5b6001900381819060005260206000200160009055905585600101600086815260200190815260200160002060009055600193505050506121e9565b60009150505b92915050565b6000807f7fffffffffffffffffffffffffffffff5d576e7357a4501ddfe92f46681b20a08360001c111561222a5760006003915091506122f3565b601b8560ff16141580156122425750601c8560ff1614155b156122545760006004915091506122f3565b6000600187878787604051600081526020016040526040516122799493929190613c64565b6020604051602081039080840390855afa15801561229b573d6000803e3d6000fd5b505050602060405103519050600073ffffffffffffffffffffffffffffffffffffffff168173ffffffffffffffffffffffffffffffffffffffff1614156122ea576000600192509250506122f3565b80600092509250505b94509492505050565b6000806000807f7fffffffffffffffffffffffffffffffffffffffffffffffffffffffffffffff85169150601b8560ff1c01905061233c878288856121ef565b935093505050935093915050565b6000604051905090565b600080fd5b600080fd5b600080fd5b6000601f19601f8301169050919050565b7f4e487b7100000000000000000000000000000000000000000000000000000000600052604160045260246000fd5b6123ac82612363565b810181811067ffffffffffffffff821117156123cb576123ca612374565b5b80604052505050565b60006123de61234a565b90506123ea82826123a3565b919050565b600067ffffffffffffffff82111561240a57612409612374565b5b602082029050602081019050919050565b600080fd5b600073ffffffffffffffffffffffffffffffffffffffff82169050919050565b600061244b82612420565b9050919050565b61245b81612440565b811461246657600080fd5b50565b60008135905061247881612452565b92915050565b600061249161248c846123ef565b6123d4565b905080838252602082019050602084028301858111156124b4576124b361241b565b5b835b818110156124dd57806124c98882612469565b8452602084019350506020810190506124b6565b5050509392505050565b600082601f8301126124fc576124fb61235e565b5b813561250c84826020860161247e565b91505092915050565b60006020828403121561252b5761252a612354565b5b600082013567ffffffffffffffff81111561254957612548612359565b5b612555848285016124e7565b91505092915050565b60007fffffffff0000000000000000000000000000000000000000000000000000000082169050919050565b6125938161255e565b811461259e57600080fd5b50565b6000813590506125b08161258a565b92915050565b6000602082840312156125cc576125cb612354565b5b60006125da848285016125a1565b91505092915050565b60008115159050919050565b6125f8816125e3565b82525050565b600060208201905061261360008301846125ef565b92915050565b6000819050919050565b61262c81612619565b811461263757600080fd5b50565b60008135905061264981612623565b92915050565b60006020828403121561266557612664612354565b5b60006126738482850161263a565b91505092915050565b61268581612619565b82525050565b60006020820190506126a0600083018461267c565b92915050565b60006126b182612420565b9050919050565b6126c1816126a6565b81146126cc57600080fd5b50565b6000813590506126de816126b8565b92915050565b60006126ef826126a6565b9050919050565b6126ff816126e4565b811461270a57600080fd5b50565b60008135905061271c816126f6565b92915050565b6000819050919050565b61273581612722565b811461274057600080fd5b50565b6000813590506127528161272c565b92915050565b60008060006060848603121561277157612770612354565b5b600061277f868287016126cf565b93505060206127908682870161270d565b92505060406127a186828701612743565b9150509250925092565b600080604083850312156127c2576127c1612354565b5b60006127d08582860161263a565b92505060206127e1858286016126cf565b9150509250929050565b60006020828403121561280157612800612354565b5b600061280f84828501612743565b91505092915050565b600080fd5b600067ffffffffffffffff82111561283857612837612374565b5b61284182612363565b9050602081019050919050565b82818337600083830152505050565b600061287061286b8461281d565b6123d4565b90508281526020810184848401111561288c5761288b612818565b5b61289784828561284e565b509392505050565b600082601f8301126128b4576128b361235e565b5b81356128c484826020860161285d565b91505092915050565b600080fd5b60008083601f8401126128e8576128e761235e565b5b8235905067ffffffffffffffff811115612905576129046128cd565b5b6020830191508360208202830111156129215761292061241b565b5b9250929050565b60008060008060006080868803121561294457612943612354565b5b600061295288828901612743565b95505060206129638882890161263a565b945050604086013567ffffffffffffffff81111561298457612983612359565b5b6129908882890161289f565b935050606086013567ffffffffffffffff8111156129b1576129b0612359565b5b6129bd888289016128d2565b92509250509295509295909350565b6129d581612722565b82525050565b60006020820190506129f060008301846129cc565b92915050565b60008060408385031215612a0d57612a0c612354565b5b6000612a1b8582860161263a565b9250506020612a2c85828601612743565b9150509250929050565b612a3f816126a6565b82525050565b6000602082019050612a5a6000830184612a36565b92915050565b600060208284031215612a7657612a75612354565b5b6000612a8484828501612469565b91505092915050565b600067ffffffffffffffff821115612aa857612aa7612374565b5b602082029050602081019050919050565b6000612acc612ac784612a8d565b6123d4565b90508083825260208201905060208402830185811115612aef57612aee61241b565b5b835b81811015612b185780612b0488826126cf565b845260208401935050602081019050612af1565b5050509392505050565b600082601f830112612b3757612b3661235e565b5b8135612b47848260208601612ab9565b91505092915050565b600080600060608486031215612b6957612b68612354565b5b600084013567ffffffffffffffff811115612b8757612b86612359565b5b612b9386828701612b22565b9350506020612ba48682870161270d565b9250506040612bb586828701612743565b9150509250925092565b600082825260208201905092915050565b7f5265656e7472616e637947756172643a207265656e7472616e742063616c6c00600082015250565b6000612c06601f83612bbf565b9150612c1182612bd0565b602082019050919050565b60006020820190508181036000830152612c3581612bf9565b9050919050565b7f4164647265737365732063616e6e6f7420626520656d70747900000000000000600082015250565b6000612c72601983612bbf565b9150612c7d82612c3c565b602082019050919050565b60006020820190508181036000830152612ca181612c65565b9050919050565b7f4e487b7100000000000000000000000000000000000000000000000000000000600052601160045260246000fd5b6000612ce282612722565b9150612ced83612722565b925082821015612d0057612cff612ca8565b5b828203905092915050565b6000612d1682612722565b9150612d2183612722565b9250817fffffffffffffffffffffffffffffffffffffffffffffffffffffffffffffffff0483118215151615612d5a57612d59612ca8565b5b828202905092915050565b7f4e487b7100000000000000000000000000000000000000000000000000000000600052601260045260246000fd5b6000612d9f82612722565b9150612daa83612722565b925082612dba57612db9612d65565b5b828204905092915050565b7f4e487b7100000000000000000000000000000000000000000000000000000000600052603260045260246000fd5b600081905092915050565b50565b6000612e0f600083612df4565b9150612e1a82612dff565b600082019050919050565b6000612e3082612e02565b9150819050919050565b7f4661696c656420746f2073656e6420546f6b656e000000000000000000000000600082015250565b6000612e70601483612bbf565b9150612e7b82612e3a565b602082019050919050565b60006020820190508181036000830152612e9f81612e63565b9050919050565b600060ff82169050919050565b6000612ebe82612ea6565b915060ff821415612ed257612ed1612ca8565b5b600182019050919050565b7f416d6f756e74206d7573742062652067726561746572207468616e2030000000600082015250565b6000612f13601d83612bbf565b9150612f1e82612edd565b602082019050919050565b60006020820190508181036000830152612f4281612f06565b9050919050565b6000606082019050612f5e6000830186612a36565b612f6b6020830185612a36565b612f7860408301846129cc565b949350505050565b612f89816125e3565b8114612f9457600080fd5b50565b600081519050612fa681612f80565b92915050565b600060208284031215612fc257612fc1612354565b5b6000612fd084828501612f97565b91505092915050565b7f5472616e73666572206661696c65640000000000000000000000000000000000600082015250565b600061300f600f83612bbf565b915061301a82612fd9565b602082019050919050565b6000602082019050818103600083015261303e81613002565b9050919050565b600060408201905061305a6000830185612a36565b61306760208301846129cc565b9392505050565b7f5472616e7366657220746f20726563697069656e74206661696c656400000000600082015250565b60006130a4601c83612bbf565b91506130af8261306e565b602082019050919050565b600060208201905081810360008301526130d381613097565b9050919050565b7f416363657373436f6e74726f6c3a2063616e206f6e6c792072656e6f756e636560008201527f20726f6c657320666f722073656c660000000000000000000000000000000000602082015250565b6000613136602f83612bbf565b9150613141826130da565b604082019050919050565b6000602082019050818103600083015261316581613129565b9050919050565b7f496e76616c696420616d6f756e742c2063616e6e6f742062652067726561746560008201527f72207468616e2031206574686572000000000000000000000000000000000000602082015250565b60006131c8602e83612bbf565b91506131d38261316c565b604082019050919050565b600060208201905081810360008301526131f7816131bb565b9050919050565b7f4e6f7420656e6f756768207369676e6174757265730000000000000000000000600082015250565b6000613234601583612bbf565b915061323f826131fe565b602082019050919050565b6000602082019050818103600083015261326381613227565b9050919050565b600080fd5b600080fd5b600080fd5b600080833560016020038436030381126132965761329561326a565b5b80840192508235915067ffffffffffffffff8211156132b8576132b761326f565b5b6020830192506001820236038313156132d4576132d3613274565b5b509250929050565b7f5369676e6572206973206e6f742061646d696e00000000000000000000000000600082015250565b6000613312601383612bbf565b915061331d826132dc565b602082019050919050565b6000602082019050818103600083015261334181613305565b9050919050565b60006133548385612df4565b935061336183858461284e565b82840190509392505050565b600061337a828486613348565b91508190509392505050565b7f526570656174696e672061646d696e207369676e6174757265206e6f7420766160008201527f6c69640000000000000000000000000000000000000000000000000000000000602082015250565b60006133e2602383612bbf565b91506133ed82613386565b604082019050919050565b60006020820190508181036000830152613411816133d5565b9050919050565b600061342382612ea6565b915061342e83612ea6565b92508260ff0382111561344457613443612ca8565b5b828201905092915050565b7f4e6f7420616c6c207369676e617475726573206172652076616c696400000000600082015250565b6000613485601c83612bbf565b91506134908261344f565b602082019050919050565b600060208201905081810360008301526134b481613478565b9050919050565b6000815190506134ca8161272c565b92915050565b6000815190506134df81612623565b92915050565b600080604083850312156134fc576134fb612354565b5b600061350a858286016134bb565b925050602061351b858286016134d0565b9150509250929050565b7f48617368656420616d6f756e74206e6f742076616c6964000000000000000000600082015250565b600061355b601783612bbf565b915061356682613525565b602082019050919050565b6000602082019050818103600083015261358a8161354e565b9050919050565b7f48617368656420726561736f6e206e6f742076616c6964000000000000000000600082015250565b60006135c7601783612bbf565b91506135d282613591565b602082019050919050565b600060208201905081810360008301526135f6816135ba565b9050919050565b7f4e6f7420656e6f7567682062616c616e636520746f2077697468647261770000600082015250565b6000613633601e83612bbf565b915061363e826135fd565b602082019050919050565b6000602082019050818103600083015261366281613626565b9050919050565b7f4661696c656420746f2077697468647261770000000000000000000000000000600082015250565b600061369f601283612bbf565b91506136aa82613669565b602082019050919050565b600060208201905081810360008301526136ce81613692565b9050919050565b600081905092915050565b7f416363657373436f6e74726f6c3a206163636f756e7420000000000000000000600082015250565b60006137166017836136d5565b9150613721826136e0565b601782019050919050565b600081519050919050565b60005b8381101561375557808201518184015260208101905061373a565b83811115613764576000848401525b50505050565b60006137758261372c565b61377f81856136d5565b935061378f818560208601613737565b80840191505092915050565b7f206973206d697373696e6720726f6c6520000000000000000000000000000000600082015250565b60006137d16011836136d5565b91506137dc8261379b565b601182019050919050565b60006137f282613709565b91506137fe828561376a565b9150613809826137c4565b9150613815828461376a565b91508190509392505050565b600061382c8261372c565b6138368185612bbf565b9350613846818560208601613737565b61384f81612363565b840191505092915050565b600060208201905081810360008301526138748184613821565b905092915050565b7f19457468657265756d205369676e6564204d6573736167653a0a333200000000600082015250565b60006138b2601c836136d5565b91506138bd8261387c565b601c82019050919050565b6000819050919050565b6138e36138de82612619565b6138c8565b82525050565b60006138f4826138a5565b915061390082846138d2565b60208201915081905092915050565b600061391a82612722565b915061392583612722565b9250827fffffffffffffffffffffffffffffffffffffffffffffffffffffffffffffffff0382111561395a57613959612ca8565b5b828201905092915050565b600061397082612722565b9150600082141561398457613983612ca8565b5b600182039050919050565b7f537472696e67733a20686578206c656e67746820696e73756666696369656e74600082015250565b60006139c5602083612bbf565b91506139d08261398f565b602082019050919050565b600060208201905081810360008301526139f4816139b8565b9050919050565b7f4e487b7100000000000000000000000000000000000000000000000000000000600052602160045260246000fd5b7f45434453413a20696e76616c6964207369676e61747572650000000000000000600082015250565b6000613a60601883612bbf565b9150613a6b82613a2a565b602082019050919050565b60006020820190508181036000830152613a8f81613a53565b9050919050565b7f45434453413a20696e76616c6964207369676e6174757265206c656e67746800600082015250565b6000613acc601f83612bbf565b9150613ad782613a96565b602082019050919050565b60006020820190508181036000830152613afb81613abf565b9050919050565b7f45434453413a20696e76616c6964207369676e6174757265202773272076616c60008201527f7565000000000000000000000000000000000000000000000000000000000000602082015250565b6000613b5e602283612bbf565b9150613b6982613b02565b604082019050919050565b60006020820190508181036000830152613b8d81613b51565b9050919050565b7f45434453413a20696e76616c6964207369676e6174757265202776272076616c60008201527f7565000000000000000000000000000000000000000000000000000000000000602082015250565b6000613bf0602283612bbf565b9150613bfb82613b94565b604082019050919050565b60006020820190508181036000830152613c1f81613be3565b9050919050565b7f4e487b7100000000000000000000000000000000000000000000000000000000600052603160045260246000fd5b613c5e81612ea6565b82525050565b6000608082019050613c79600083018761267c565b613c866020830186613c55565b613c93604083018561267c565b613ca0606083018461267c565b9594505050505056fea26469706673582212201b97ff9a6fd5ea3408d6a4d1c29374334f19b2d043452895fa3993b2b7bf4a5e64736f6c634300080a0033",
  "immutableReferences": {},
  "source": "// SPDX-License-Identifier: MIT\npragma solidity ^0.8.10;\n\nimport \"@openzeppelin/contracts/access/AccessControl.sol\";\nimport \"@openzeppelin/contracts/access/AccessControlEnumerable.sol\";\nimport \"@openzeppelin/contracts/utils/Address.sol\";\nimport \"@openzeppelin/contracts/utils/cryptography/ECDSA.sol\";\nimport \"@openzeppelin/contracts/security/ReentrancyGuard.sol\";\nimport \"@openzeppelin/contracts/interfaces/IERC20.sol\";\n\ncontract TipBot is AccessControlEnumerable, ReentrancyGuard {\n  using ECDSA for bytes32;\n  using Address for address;\n\n  // Start of events declaration\n  event Tip ( address indexed from,  address indexed toAddress, uint256 amount );\n  event TipToken ( address indexed from,  address indexed toAddress, uint256 amount );\n  event AirDrop ( address indexed from, address indexed toAddress, uint256 amount);\n  event AirDropToken ( address indexed from, address indexed toAddress, uint256 amount);\n  event Withdraw ( uint256 amount, bytes32 indexed reason);\n\n  // Global variables used in contract\n  uint256 public feeRate = 0.1 ether;\n  uint256 public airdropRate = 0.2 ether;\n\n  mapping( bytes => mapping(address => bool)) signatureLookup;\n\n  constructor(){\n    _setupRole(DEFAULT_ADMIN_ROLE, msg.sender);\n  }\n\n  function setFeeRate( uint256 _feeRate ) public onlyRole(DEFAULT_ADMIN_ROLE) {\n    require( _feeRate < 1 ether, \"Invalid amount, cannot be greater than 1 ether\");\n    feeRate = _feeRate;\n  }\n\n  function setAirdropRate( uint256 _feeRate ) public onlyRole(DEFAULT_ADMIN_ROLE) {\n    require( _feeRate < 1 ether, \"Invalid amount, cannot be greater than 1 ether\");\n    airdropRate = _feeRate;\n  }\n\n  function tip( address payable toAddress ) public payable nonReentrant {\n\n    uint256 newBalance = ((1 ether - feeRate) * msg.value)/1 ether;\n    (bool success, ) = toAddress.call{value: newBalance }(\"\");\n    require(success, \"Failed to send Token\");\n\n    emit Tip( \n      msg.sender,\n      toAddress,\n      newBalance\n    );\n  }\n\n  function tipByToken(address toAddress, IERC20 token,  uint256 amount) public nonReentrant{\n\n    require(amount > 0, \"Amount must be greater than 0\");\n    \n    bool success = token.transferFrom(msg.sender, address(this), amount);\n    require(success, \"Transfer failed\");\n\n    uint256 newBalance = ((1 ether - feeRate) * amount)/1 ether;\n\n    bool successTransfer = token.transfer(toAddress,newBalance);\n    require(successTransfer, \"Transfer to recipient failed\");\n\n    emit TipToken(\n      msg.sender,\n      toAddress,\n      newBalance\n    );\n  }\n\n\n  function airDrop ( \n    address payable[] memory accountAddress\n  ) public payable nonReentrant {\n\n    require(accountAddress.length > 0, \"Addresses cannot be empty\");\n    uint256 distributedAmount = ( ((1 ether - airdropRate) * msg.value ) / 1 ether ) / accountAddress.length;\n\n    for(uint8 i = 0; i < accountAddress.length; i++){\n\n    (bool success, ) = accountAddress[i].call{value: distributedAmount }(\"\");\n    require(success, \"Failed to send Token\");\n\n      emit AirDrop(\n        msg.sender,\n        accountAddress[i],\n        distributedAmount\n      );\n    }\n  }\n\n  function airDropToken ( \n    address[] memory accountAddress,\n    IERC20 token,  uint256 amount\n  ) public nonReentrant {\n    require(amount > 0, \"Amount must be greater than 0\");\n    require(accountAddress.length > 0, \"Addresses cannot be empty\");\n    \n    bool success = token.transferFrom(msg.sender, address(this), amount);\n    require(success, \"Transfer failed\");\n\n    uint256 distributedAmount = ( ((1 ether - airdropRate) * amount ) / 1 ether ) / accountAddress.length;\n\n\n    for(uint8 i = 0; i < accountAddress.length; i++){\n      bool successTransfer = token.transfer(accountAddress[i], distributedAmount);\n      require(successTransfer, \"Failed to send Token\");\n\n      emit AirDropToken(\n        msg.sender,\n        accountAddress[i],\n        distributedAmount\n      );\n    }\n  }\n\n  function withdraw (\n    uint256 amount, \n    bytes32 reason,\n    bytes memory data,\n    bytes[] calldata signatures\n  ) public nonReentrant {\n\n    require( getRoleMemberCount(DEFAULT_ADMIN_ROLE) == signatures.length, \"Not enough signatures\");\n\n    // Extract and verify each signature is valid\n    bytes32 message = keccak256(data);\n    bytes32 hashed = message.toEthSignedMessageHash();\n\n    uint8 validSignatures = 0;\n\n    for (uint8 i = 0; i < signatures.length; i++) {\n        bytes calldata signature = signatures[i];\n        (address signer) = hashed.recover(signature);\n\n        require(hasRole(DEFAULT_ADMIN_ROLE, signer), \"Signer is not admin\");\n        require(!signatureLookup[signature][signer], \"Repeating admin signature not valid\");\n\n        validSignatures += 1;\n        signatureLookup[signature][signer] = true;\n    }\n\n    require( validSignatures == getRoleMemberCount(DEFAULT_ADMIN_ROLE), \"Not all signatures are valid\");\n\n    (uint256 decode_amount, bytes32 decode_reason) = abi.decode(data, (uint256, bytes32) );\n\n    require( decode_amount == amount, \"Hashed amount not valid\");\n    require( decode_reason == reason, \"Hashed reason not valid\");\n    \n    //Perform withdraw action\n    uint contractAmount = address(this).balance;\n    require( amount <= contractAmount, \"Not enough balance to withdraw\" );\n\n    uint256 distributedAmount =  amount / getRoleMemberCount(DEFAULT_ADMIN_ROLE);\n\n    for(uint8 i = 0; i < getRoleMemberCount(DEFAULT_ADMIN_ROLE); i++){\n      (bool success, ) = getRoleMember(DEFAULT_ADMIN_ROLE, i).call{value: distributedAmount }(\"\");\n      require( success, \"Failed to withdraw\" );\n    }\n\n    emit Withdraw(\n      distributedAmount, \n      reason\n    );\n  }\n\n}\n",
  "sourcePath": "/Users/raphaelm/Documents/work_folder/ted/syscoin-tip-bot/solidity/contracts/TipBot.sol",
  "compiler": {
    "name": "solc",
    "version": "0.8.10+commit.fc410830.Emscripten.clang"
  },
  "schemaVersion": "3.4.3",
  "updatedAt": "2022-06-20T13:41:30.154Z",
  "devdoc": {
    "kind": "dev",
    "methods": {
      "getRoleAdmin(bytes32)": {
        "details": "Returns the admin role that controls `role`. See {grantRole} and {revokeRole}. To change a role's admin, use {_setRoleAdmin}."
      },
      "getRoleMember(bytes32,uint256)": {
        "details": "Returns one of the accounts that have `role`. `index` must be a value between 0 and {getRoleMemberCount}, non-inclusive. Role bearers are not sorted in any particular way, and their ordering may change at any point. WARNING: When using {getRoleMember} and {getRoleMemberCount}, make sure you perform all queries on the same block. See the following https://forum.openzeppelin.com/t/iterating-over-elements-on-enumerableset-in-openzeppelin-contracts/2296[forum post] for more information."
      },
      "getRoleMemberCount(bytes32)": {
        "details": "Returns the number of accounts that have `role`. Can be used together with {getRoleMember} to enumerate all bearers of a role."
      },
      "grantRole(bytes32,address)": {
        "details": "Grants `role` to `account`. If `account` had not been already granted `role`, emits a {RoleGranted} event. Requirements: - the caller must have ``role``'s admin role."
      },
      "hasRole(bytes32,address)": {
        "details": "Returns `true` if `account` has been granted `role`."
      },
      "renounceRole(bytes32,address)": {
        "details": "Revokes `role` from the calling account. Roles are often managed via {grantRole} and {revokeRole}: this function's purpose is to provide a mechanism for accounts to lose their privileges if they are compromised (such as when a trusted device is misplaced). If the calling account had been revoked `role`, emits a {RoleRevoked} event. Requirements: - the caller must be `account`."
      },
      "revokeRole(bytes32,address)": {
        "details": "Revokes `role` from `account`. If `account` had been granted `role`, emits a {RoleRevoked} event. Requirements: - the caller must have ``role``'s admin role."
      },
      "supportsInterface(bytes4)": {
        "details": "See {IERC165-supportsInterface}."
      }
    },
    "version": 1
  },
  "userdoc": {
    "kind": "user",
    "methods": {},
    "version": 1
  }
}