{
  "contractName": "TipBot",
  "abi": [
    {
      "inputs": [],
      "stateMutability": "nonpayable",
      "type": "constructor"
    },
    {
      "anonymous": false,
      "inputs": [
        {
          "indexed": true,
          "internalType": "address",
          "name": "from",
          "type": "address"
        },
        {
          "indexed": true,
          "internalType": "address",
          "name": "toAddress",
          "type": "address"
        },
        {
          "indexed": false,
          "internalType": "uint256",
          "name": "amount",
          "type": "uint256"
        }
      ],
      "name": "AirDrop",
      "type": "event"
    },
    {
      "anonymous": false,
      "inputs": [
        {
          "indexed": true,
          "internalType": "bytes32",
          "name": "role",
          "type": "bytes32"
        },
        {
          "indexed": true,
          "internalType": "bytes32",
          "name": "previousAdminRole",
          "type": "bytes32"
        },
        {
          "indexed": true,
          "internalType": "bytes32",
          "name": "newAdminRole",
          "type": "bytes32"
        }
      ],
      "name": "RoleAdminChanged",
      "type": "event"
    },
    {
      "anonymous": false,
      "inputs": [
        {
          "indexed": true,
          "internalType": "bytes32",
          "name": "role",
          "type": "bytes32"
        },
        {
          "indexed": true,
          "internalType": "address",
          "name": "account",
          "type": "address"
        },
        {
          "indexed": true,
          "internalType": "address",
          "name": "sender",
          "type": "address"
        }
      ],
      "name": "RoleGranted",
      "type": "event"
    },
    {
      "anonymous": false,
      "inputs": [
        {
          "indexed": true,
          "internalType": "bytes32",
          "name": "role",
          "type": "bytes32"
        },
        {
          "indexed": true,
          "internalType": "address",
          "name": "account",
          "type": "address"
        },
        {
          "indexed": true,
          "internalType": "address",
          "name": "sender",
          "type": "address"
        }
      ],
      "name": "RoleRevoked",
      "type": "event"
    },
    {
      "anonymous": false,
      "inputs": [
        {
          "indexed": true,
          "internalType": "address",
          "name": "from",
          "type": "address"
        },
        {
          "indexed": true,
          "internalType": "address",
          "name": "toAddress",
          "type": "address"
        },
        {
          "indexed": false,
          "internalType": "uint256",
          "name": "amount",
          "type": "uint256"
        }
      ],
      "name": "Tip",
      "type": "event"
    },
    {
      "anonymous": false,
      "inputs": [
        {
          "indexed": false,
          "internalType": "uint256",
          "name": "amount",
          "type": "uint256"
        },
        {
          "indexed": true,
          "internalType": "bytes32",
          "name": "reason",
          "type": "bytes32"
        }
      ],
      "name": "Withdraw",
      "type": "event"
    },
    {
      "inputs": [],
      "name": "DEFAULT_ADMIN_ROLE",
      "outputs": [
        {
          "internalType": "bytes32",
          "name": "",
          "type": "bytes32"
        }
      ],
      "stateMutability": "view",
      "type": "function",
      "constant": true
    },
    {
      "inputs": [],
      "name": "airdropRate",
      "outputs": [
        {
          "internalType": "uint256",
          "name": "",
          "type": "uint256"
        }
      ],
      "stateMutability": "view",
      "type": "function",
      "constant": true
    },
    {
      "inputs": [],
      "name": "feeRate",
      "outputs": [
        {
          "internalType": "uint256",
          "name": "",
          "type": "uint256"
        }
      ],
      "stateMutability": "view",
      "type": "function",
      "constant": true
    },
    {
      "inputs": [
        {
          "internalType": "bytes32",
          "name": "role",
          "type": "bytes32"
        }
      ],
      "name": "getRoleAdmin",
      "outputs": [
        {
          "internalType": "bytes32",
          "name": "",
          "type": "bytes32"
        }
      ],
      "stateMutability": "view",
      "type": "function",
      "constant": true
    },
    {
      "inputs": [
        {
          "internalType": "bytes32",
          "name": "role",
          "type": "bytes32"
        },
        {
          "internalType": "uint256",
          "name": "index",
          "type": "uint256"
        }
      ],
      "name": "getRoleMember",
      "outputs": [
        {
          "internalType": "address",
          "name": "",
          "type": "address"
        }
      ],
      "stateMutability": "view",
      "type": "function",
      "constant": true
    },
    {
      "inputs": [
        {
          "internalType": "bytes32",
          "name": "role",
          "type": "bytes32"
        }
      ],
      "name": "getRoleMemberCount",
      "outputs": [
        {
          "internalType": "uint256",
          "name": "",
          "type": "uint256"
        }
      ],
      "stateMutability": "view",
      "type": "function",
      "constant": true
    },
    {
      "inputs": [
        {
          "internalType": "bytes32",
          "name": "role",
          "type": "bytes32"
        },
        {
          "internalType": "address",
          "name": "account",
          "type": "address"
        }
      ],
      "name": "grantRole",
      "outputs": [],
      "stateMutability": "nonpayable",
      "type": "function"
    },
    {
      "inputs": [
        {
          "internalType": "bytes32",
          "name": "role",
          "type": "bytes32"
        },
        {
          "internalType": "address",
          "name": "account",
          "type": "address"
        }
      ],
      "name": "hasRole",
      "outputs": [
        {
          "internalType": "bool",
          "name": "",
          "type": "bool"
        }
      ],
      "stateMutability": "view",
      "type": "function",
      "constant": true
    },
    {
      "inputs": [
        {
          "internalType": "bytes32",
          "name": "role",
          "type": "bytes32"
        },
        {
          "internalType": "address",
          "name": "account",
          "type": "address"
        }
      ],
      "name": "renounceRole",
      "outputs": [],
      "stateMutability": "nonpayable",
      "type": "function"
    },
    {
      "inputs": [
        {
          "internalType": "bytes32",
          "name": "role",
          "type": "bytes32"
        },
        {
          "internalType": "address",
          "name": "account",
          "type": "address"
        }
      ],
      "name": "revokeRole",
      "outputs": [],
      "stateMutability": "nonpayable",
      "type": "function"
    },
    {
      "inputs": [
        {
          "internalType": "bytes4",
          "name": "interfaceId",
          "type": "bytes4"
        }
      ],
      "name": "supportsInterface",
      "outputs": [
        {
          "internalType": "bool",
          "name": "",
          "type": "bool"
        }
      ],
      "stateMutability": "view",
      "type": "function",
      "constant": true
    },
    {
      "inputs": [
        {
          "internalType": "uint256",
          "name": "_feeRate",
          "type": "uint256"
        }
      ],
      "name": "setFeeRate",
      "outputs": [],
      "stateMutability": "nonpayable",
      "type": "function"
    },
    {
      "inputs": [
        {
          "internalType": "uint256",
          "name": "_feeRate",
          "type": "uint256"
        }
      ],
      "name": "setAirdropRate",
      "outputs": [],
      "stateMutability": "nonpayable",
      "type": "function"
    },
    {
      "inputs": [
        {
          "internalType": "address payable",
          "name": "toAddress",
          "type": "address"
        }
      ],
      "name": "tip",
      "outputs": [],
      "stateMutability": "payable",
      "type": "function",
      "payable": true
    },
    {
      "inputs": [
        {
          "internalType": "address",
          "name": "toAddress",
          "type": "address"
        },
        {
          "internalType": "contract IERC20",
          "name": "token",
          "type": "address"
        },
        {
          "internalType": "uint256",
          "name": "amount",
          "type": "uint256"
        }
      ],
      "name": "tipByToken",
      "outputs": [],
      "stateMutability": "payable",
      "type": "function",
      "payable": true
    },
    {
      "inputs": [
        {
          "internalType": "address payable[]",
          "name": "accountAddress",
          "type": "address[]"
        }
      ],
      "name": "airDrop",
      "outputs": [],
      "stateMutability": "payable",
      "type": "function",
      "payable": true
    },
    {
      "inputs": [
        {
          "internalType": "uint256",
          "name": "amount",
          "type": "uint256"
        },
        {
          "internalType": "bytes32",
          "name": "reason",
          "type": "bytes32"
        },
        {
          "internalType": "bytes",
          "name": "data",
          "type": "bytes"
        },
        {
          "internalType": "bytes[]",
          "name": "signatures",
          "type": "bytes[]"
        }
      ],
      "name": "withdraw",
      "outputs": [],
      "stateMutability": "nonpayable",
      "type": "function"
    }
  ],
  "bytecode": "0x608060405267016345785d8a00006003556702c68af0bb1400006004553480156200002957600080fd5b506001600281905550620000476000801b336200004d60201b60201c565b620002e3565b6200005f82826200006360201b60201c565b5050565b6200007a8282620000ab60201b620013301760201c565b620000a681600160008581526020019081526020016000206200019c60201b620014101790919060201c565b505050565b620000bd8282620001d460201b60201c565b6200019857600160008084815260200190815260200160002060000160008373ffffffffffffffffffffffffffffffffffffffff1673ffffffffffffffffffffffffffffffffffffffff16815260200190815260200160002060006101000a81548160ff0219169083151502179055506200013d6200023e60201b60201c565b73ffffffffffffffffffffffffffffffffffffffff168173ffffffffffffffffffffffffffffffffffffffff16837f2f8788117e7eff1d82e926ec794901d17c78024a50270940304540a733656f0d60405160405180910390a45b5050565b6000620001cc836000018373ffffffffffffffffffffffffffffffffffffffff1660001b6200024660201b60201c565b905092915050565b600080600084815260200190815260200160002060000160008373ffffffffffffffffffffffffffffffffffffffff1673ffffffffffffffffffffffffffffffffffffffff16815260200190815260200160002060009054906101000a900460ff16905092915050565b600033905090565b60006200025a8383620002c060201b60201c565b620002b5578260000182908060018154018082558091505060019003906000526020600020016000909190919091505582600001805490508360010160008481526020019081526020016000208190555060019050620002ba565b600090505b92915050565b600080836001016000848152602001908152602001600020541415905092915050565b6137fd80620002f36000396000f3fe6080604052600436106100fd5760003560e01c80638891cf0d11610095578063a217fddf11610064578063a217fddf14610328578063ac733ef714610353578063ca15c8731461036f578063d547741f146103ac578063e357dffb146103d5576100fd565b80638891cf0d146102585780639010d07c1461028357806391d14854146102c0578063978bbdb9146102fd576100fd565b80632f2ff15d116100d15780632f2ff15d146101b457806336568abe146101dd57806345596e2e146102065780637659b6131461022f576100fd565b8062b6849f1461010257806301ffc9a71461011e578063248a9ca31461015b5780632dffff4a14610198575b600080fd5b61011c60048036038101906101179190612165565b6103fe565b005b34801561012a57600080fd5b5061014560048036038101906101409190612206565b61064d565b604051610152919061224e565b60405180910390f35b34801561016757600080fd5b50610182600480360381019061017d919061229f565b6106c7565b60405161018f91906122db565b60405180910390f35b6101b260048036038101906101ad91906123a8565b6106e6565b005b3480156101c057600080fd5b506101db60048036038101906101d691906123fb565b6109a8565b005b3480156101e957600080fd5b5061020460048036038101906101ff91906123fb565b6109d1565b005b34801561021257600080fd5b5061022d6004803603810190610228919061243b565b610a54565b005b34801561023b57600080fd5b5061025660048036038101906102519190612578565b610abe565b005b34801561026457600080fd5b5061026d61102b565b60405161027a919061262b565b60405180910390f35b34801561028f57600080fd5b506102aa60048036038101906102a59190612646565b611031565b6040516102b79190612695565b60405180910390f35b3480156102cc57600080fd5b506102e760048036038101906102e291906123fb565b611060565b6040516102f4919061224e565b60405180910390f35b34801561030957600080fd5b506103126110ca565b60405161031f919061262b565b60405180910390f35b34801561033457600080fd5b5061033d6110d0565b60405161034a91906122db565b60405180910390f35b61036d600480360381019061036891906126b0565b6110d7565b005b34801561037b57600080fd5b506103966004803603810190610391919061229f565b611279565b6040516103a3919061262b565b60405180910390f35b3480156103b857600080fd5b506103d360048036038101906103ce91906123fb565b61129d565b005b3480156103e157600080fd5b506103fc60048036038101906103f7919061243b565b6112c6565b005b600280541415610443576040517f08c379a000000000000000000000000000000000000000000000000000000000815260040161043a9061273a565b60405180910390fd5b60028081905550600081511161048e576040517f08c379a0000000000000000000000000000000000000000000000000000000008152600401610485906127a6565b60405180910390fd5b60008151670de0b6b3a764000034600454670de0b6b3a76400006104b291906127f5565b6104bc9190612829565b6104c691906128b2565b6104d091906128b2565b905060005b82518160ff161015610640576000838260ff16815181106104f9576104f86128e3565b5b602002602001015173ffffffffffffffffffffffffffffffffffffffff168360405161052490612943565b60006040518083038185875af1925050503d8060008114610561576040519150601f19603f3d011682016040523d82523d6000602084013e610566565b606091505b50509050806105aa576040517f08c379a00000000000000000000000000000000000000000000000000000000081526004016105a1906129a4565b60405180910390fd5b838260ff16815181106105c0576105bf6128e3565b5b602002602001015173ffffffffffffffffffffffffffffffffffffffff163373ffffffffffffffffffffffffffffffffffffffff167f44347b1aec7858b9ab924df67243a402f4afd5e7d5f045176cde4c521350b88b85604051610624919061262b565b60405180910390a3508080610638906129d1565b9150506104d5565b5050600160028190555050565b60007f5a05180f000000000000000000000000000000000000000000000000000000007bffffffffffffffffffffffffffffffffffffffffffffffffffffffff1916827bffffffffffffffffffffffffffffffffffffffffffffffffffffffff191614806106c057506106bf82611440565b5b9050919050565b6000806000838152602001908152602001600020600101549050919050565b60028054141561072b576040517f08c379a00000000000000000000000000000000000000000000000000000000081526004016107229061273a565b60405180910390fd5b6002808190555060008111610775576040517f08c379a000000000000000000000000000000000000000000000000000000000815260040161076c90612a47565b60405180910390fd5b60008273ffffffffffffffffffffffffffffffffffffffff166323b872dd3330856040518463ffffffff1660e01b81526004016107b493929190612a67565b6020604051808303816000875af11580156107d3573d6000803e3d6000fd5b505050506040513d601f19601f820116820180604052508101906107f79190612aca565b905080610839576040517f08c379a000000000000000000000000000000000000000000000000000000000815260040161083090612b43565b60405180910390fd5b6000670de0b6b3a764000083600354670de0b6b3a764000061085b91906127f5565b6108659190612829565b61086f91906128b2565b905060008473ffffffffffffffffffffffffffffffffffffffff1663a9059cbb87846040518363ffffffff1660e01b81526004016108ae929190612b63565b6020604051808303816000875af11580156108cd573d6000803e3d6000fd5b505050506040513d601f19601f820116820180604052508101906108f19190612aca565b905080610933576040517f08c379a000000000000000000000000000000000000000000000000000000000815260040161092a90612bd8565b60405180910390fd5b8573ffffffffffffffffffffffffffffffffffffffff163373ffffffffffffffffffffffffffffffffffffffff167fcbefbf6a902aa93a9aafdd30aefd16e61f6c015bbf5fcaccfdf1d29d0c84e7d084604051610990919061262b565b60405180910390a35050506001600281905550505050565b6109b1826106c7565b6109c2816109bd6114ba565b6114c2565b6109cc838361155f565b505050565b6109d96114ba565b73ffffffffffffffffffffffffffffffffffffffff168173ffffffffffffffffffffffffffffffffffffffff1614610a46576040517f08c379a0000000000000000000000000000000000000000000000000000000008152600401610a3d90612c6a565b60405180910390fd5b610a508282611593565b5050565b6000801b610a6981610a646114ba565b6114c2565b670de0b6b3a76400008210610ab3576040517f08c379a0000000000000000000000000000000000000000000000000000000008152600401610aaa90612cfc565b60405180910390fd5b816003819055505050565b600280541415610b03576040517f08c379a0000000000000000000000000000000000000000000000000000000008152600401610afa9061273a565b60405180910390fd5b6002808190555081819050610b1a6000801b611279565b14610b5a576040517f08c379a0000000000000000000000000000000000000000000000000000000008152600401610b5190612d68565b60405180910390fd5b6000838051906020012090506000610b71826115c7565b90506000805b858590508160ff161015610da15736600087878460ff16818110610b9e57610b9d6128e3565b5b9050602002810190610bb09190612d97565b915091506000610c0d83838080601f016020809104026020016040519081016040528093929190818152602001838380828437600081840152601f19601f82011690508083019250505050505050876115f790919063ffffffff16565b9050610c1c6000801b82611060565b610c5b576040517f08c379a0000000000000000000000000000000000000000000000000000000008152600401610c5290612e46565b60405180910390fd5b60058383604051610c6d929190612e8b565b908152602001604051809103902060008273ffffffffffffffffffffffffffffffffffffffff1673ffffffffffffffffffffffffffffffffffffffff16815260200190815260200160002060009054906101000a900460ff1615610d06576040517f08c379a0000000000000000000000000000000000000000000000000000000008152600401610cfd90612f16565b60405180910390fd5b600185610d139190612f36565b9450600160058484604051610d29929190612e8b565b908152602001604051809103902060008373ffffffffffffffffffffffffffffffffffffffff1673ffffffffffffffffffffffffffffffffffffffff16815260200190815260200160002060006101000a81548160ff0219169083151502179055505050508080610d99906129d1565b915050610b77565b50610dae6000801b611279565b8160ff1614610df2576040517f08c379a0000000000000000000000000000000000000000000000000000000008152600401610de990612fb9565b60405180910390fd5b60008087806020019051810190610e099190613003565b91509150898214610e4f576040517f08c379a0000000000000000000000000000000000000000000000000000000008152600401610e469061308f565b60405180910390fd5b888114610e91576040517f08c379a0000000000000000000000000000000000000000000000000000000008152600401610e88906130fb565b60405180910390fd5b6000479050808b1115610ed9576040517f08c379a0000000000000000000000000000000000000000000000000000000008152600401610ed090613167565b60405180910390fd5b6000610ee76000801b611279565b8c610ef291906128b2565b905060005b610f036000801b611279565b8160ff161015610fdc576000610f1f6000801b8360ff16611031565b73ffffffffffffffffffffffffffffffffffffffff1683604051610f4290612943565b60006040518083038185875af1925050503d8060008114610f7f576040519150601f19603f3d011682016040523d82523d6000602084013e610f84565b606091505b5050905080610fc8576040517f08c379a0000000000000000000000000000000000000000000000000000000008152600401610fbf906131d3565b60405180910390fd5b508080610fd4906129d1565b915050610ef7565b508a7f7403cafb32164b082ee581e5bd17d85dd82f2e64cdd8bd729ea9435928f7433a8260405161100d919061262b565b60405180910390a25050505050505060016002819055505050505050565b60045481565b6000611058826001600086815260200190815260200160002061161e90919063ffffffff16565b905092915050565b600080600084815260200190815260200160002060000160008373ffffffffffffffffffffffffffffffffffffffff1673ffffffffffffffffffffffffffffffffffffffff16815260200190815260200160002060009054906101000a900460ff16905092915050565b60035481565b6000801b81565b60028054141561111c576040517f08c379a00000000000000000000000000000000000000000000000000000000081526004016111139061273a565b60405180910390fd5b600280819055506000670de0b6b3a764000034600354670de0b6b3a764000061114591906127f5565b61114f9190612829565b61115991906128b2565b905060008273ffffffffffffffffffffffffffffffffffffffff168260405161118190612943565b60006040518083038185875af1925050503d80600081146111be576040519150601f19603f3d011682016040523d82523d6000602084013e6111c3565b606091505b5050905080611207576040517f08c379a00000000000000000000000000000000000000000000000000000000081526004016111fe906129a4565b60405180910390fd5b8273ffffffffffffffffffffffffffffffffffffffff163373ffffffffffffffffffffffffffffffffffffffff167fcbefbf6a902aa93a9aafdd30aefd16e61f6c015bbf5fcaccfdf1d29d0c84e7d084604051611264919061262b565b60405180910390a35050600160028190555050565b600061129660016000848152602001908152602001600020611638565b9050919050565b6112a6826106c7565b6112b7816112b26114ba565b6114c2565b6112c18383611593565b505050565b6000801b6112db816112d66114ba565b6114c2565b670de0b6b3a76400008210611325576040517f08c379a000000000000000000000000000000000000000000000000000000000815260040161131c90612cfc565b60405180910390fd5b816004819055505050565b61133a8282611060565b61140c57600160008084815260200190815260200160002060000160008373ffffffffffffffffffffffffffffffffffffffff1673ffffffffffffffffffffffffffffffffffffffff16815260200190815260200160002060006101000a81548160ff0219169083151502179055506113b16114ba565b73ffffffffffffffffffffffffffffffffffffffff168173ffffffffffffffffffffffffffffffffffffffff16837f2f8788117e7eff1d82e926ec794901d17c78024a50270940304540a733656f0d60405160405180910390a45b5050565b6000611438836000018373ffffffffffffffffffffffffffffffffffffffff1660001b61164d565b905092915050565b60007f7965db0b000000000000000000000000000000000000000000000000000000007bffffffffffffffffffffffffffffffffffffffffffffffffffffffff1916827bffffffffffffffffffffffffffffffffffffffffffffffffffffffff191614806114b357506114b2826116bd565b5b9050919050565b600033905090565b6114cc8282611060565b61155b576114f18173ffffffffffffffffffffffffffffffffffffffff166014611727565b6114ff8360001c6020611727565b604051602001611510929190613305565b6040516020818303038152906040526040517f08c379a00000000000000000000000000000000000000000000000000000000081526004016115529190613378565b60405180910390fd5b5050565b6115698282611330565b61158e816001600085815260200190815260200160002061141090919063ffffffff16565b505050565b61159d8282611963565b6115c28160016000858152602001908152602001600020611a4490919063ffffffff16565b505050565b6000816040516020016115da9190613407565b604051602081830303815290604052805190602001209050919050565b60008060006116068585611a74565b9150915061161381611af7565b819250505092915050565b600061162d8360000183611ccc565b60001c905092915050565b600061164682600001611cf7565b9050919050565b60006116598383611d08565b6116b25782600001829080600181540180825580915050600190039060005260206000200160009091909190915055826000018054905083600101600084815260200190815260200160002081905550600190506116b7565b600090505b92915050565b60007f01ffc9a7000000000000000000000000000000000000000000000000000000007bffffffffffffffffffffffffffffffffffffffffffffffffffffffff1916827bffffffffffffffffffffffffffffffffffffffffffffffffffffffff1916149050919050565b60606000600283600261173a9190612829565b611744919061342d565b67ffffffffffffffff81111561175d5761175c611fc4565b5b6040519080825280601f01601f19166020018201604052801561178f5781602001600182028036833780820191505090505b5090507f3000000000000000000000000000000000000000000000000000000000000000816000815181106117c7576117c66128e3565b5b60200101907effffffffffffffffffffffffffffffffffffffffffffffffffffffffffffff1916908160001a9053507f78000000000000000000000000000000000000000000000000000000000000008160018151811061182b5761182a6128e3565b5b60200101907effffffffffffffffffffffffffffffffffffffffffffffffffffffffffffff1916908160001a9053506000600184600261186b9190612829565b611875919061342d565b90505b6001811115611915577f3031323334353637383961626364656600000000000000000000000000000000600f8616601081106118b7576118b66128e3565b5b1a60f81b8282815181106118ce576118cd6128e3565b5b60200101907effffffffffffffffffffffffffffffffffffffffffffffffffffffffffffff1916908160001a905350600485901c94508061190e90613483565b9050611878565b5060008414611959576040517f08c379a0000000000000000000000000000000000000000000000000000000008152600401611950906134f9565b60405180910390fd5b8091505092915050565b61196d8282611060565b15611a4057600080600084815260200190815260200160002060000160008373ffffffffffffffffffffffffffffffffffffffff1673ffffffffffffffffffffffffffffffffffffffff16815260200190815260200160002060006101000a81548160ff0219169083151502179055506119e56114ba565b73ffffffffffffffffffffffffffffffffffffffff168173ffffffffffffffffffffffffffffffffffffffff16837ff6391f5c32d9c69d2a47ea670b442974b53935d1edc7fd64eb21e047a839171b60405160405180910390a45b5050565b6000611a6c836000018373ffffffffffffffffffffffffffffffffffffffff1660001b611d2b565b905092915050565b600080604183511415611ab65760008060006020860151925060408601519150606086015160001a9050611aaa87828585611e3f565b94509450505050611af0565b604083511415611ae7576000806020850151915060408501519050611adc868383611f4c565b935093505050611af0565b60006002915091505b9250929050565b60006004811115611b0b57611b0a613519565b5b816004811115611b1e57611b1d613519565b5b1415611b2957611cc9565b60016004811115611b3d57611b3c613519565b5b816004811115611b5057611b4f613519565b5b1415611b91576040517f08c379a0000000000000000000000000000000000000000000000000000000008152600401611b8890613594565b60405180910390fd5b60026004811115611ba557611ba4613519565b5b816004811115611bb857611bb7613519565b5b1415611bf9576040517f08c379a0000000000000000000000000000000000000000000000000000000008152600401611bf090613600565b60405180910390fd5b60036004811115611c0d57611c0c613519565b5b816004811115611c2057611c1f613519565b5b1415611c61576040517f08c379a0000000000000000000000000000000000000000000000000000000008152600401611c5890613692565b60405180910390fd5b600480811115611c7457611c73613519565b5b816004811115611c8757611c86613519565b5b1415611cc8576040517f08c379a0000000000000000000000000000000000000000000000000000000008152600401611cbf90613724565b60405180910390fd5b5b50565b6000826000018281548110611ce457611ce36128e3565b5b9060005260206000200154905092915050565b600081600001805490509050919050565b600080836001016000848152602001908152602001600020541415905092915050565b60008083600101600084815260200190815260200160002054905060008114611e33576000600182611d5d91906127f5565b9050600060018660000180549050611d7591906127f5565b9050818114611de4576000866000018281548110611d9657611d956128e3565b5b9060005260206000200154905080876000018481548110611dba57611db96128e3565b5b90600052602060002001819055508387600101600083815260200190815260200160002081905550505b85600001805480611df857611df7613744565b5b600190038181906000526020600020016000905590558560010160008681526020019081526020016000206000905560019350505050611e39565b60009150505b92915050565b6000807f7fffffffffffffffffffffffffffffff5d576e7357a4501ddfe92f46681b20a08360001c1115611e7a576000600391509150611f43565b601b8560ff1614158015611e925750601c8560ff1614155b15611ea4576000600491509150611f43565b600060018787878760405160008152602001604052604051611ec99493929190613782565b6020604051602081039080840390855afa158015611eeb573d6000803e3d6000fd5b505050602060405103519050600073ffffffffffffffffffffffffffffffffffffffff168173ffffffffffffffffffffffffffffffffffffffff161415611f3a57600060019250925050611f43565b80600092509250505b94509492505050565b6000806000807f7fffffffffffffffffffffffffffffffffffffffffffffffffffffffffffffff85169150601b8560ff1c019050611f8c87828885611e3f565b935093505050935093915050565b6000604051905090565b600080fd5b600080fd5b600080fd5b6000601f19601f8301169050919050565b7f4e487b7100000000000000000000000000000000000000000000000000000000600052604160045260246000fd5b611ffc82611fb3565b810181811067ffffffffffffffff8211171561201b5761201a611fc4565b5b80604052505050565b600061202e611f9a565b905061203a8282611ff3565b919050565b600067ffffffffffffffff82111561205a57612059611fc4565b5b602082029050602081019050919050565b600080fd5b600073ffffffffffffffffffffffffffffffffffffffff82169050919050565b600061209b82612070565b9050919050565b6120ab81612090565b81146120b657600080fd5b50565b6000813590506120c8816120a2565b92915050565b60006120e16120dc8461203f565b612024565b905080838252602082019050602084028301858111156121045761210361206b565b5b835b8181101561212d578061211988826120b9565b845260208401935050602081019050612106565b5050509392505050565b600082601f83011261214c5761214b611fae565b5b813561215c8482602086016120ce565b91505092915050565b60006020828403121561217b5761217a611fa4565b5b600082013567ffffffffffffffff81111561219957612198611fa9565b5b6121a584828501612137565b91505092915050565b60007fffffffff0000000000000000000000000000000000000000000000000000000082169050919050565b6121e3816121ae565b81146121ee57600080fd5b50565b600081359050612200816121da565b92915050565b60006020828403121561221c5761221b611fa4565b5b600061222a848285016121f1565b91505092915050565b60008115159050919050565b61224881612233565b82525050565b6000602082019050612263600083018461223f565b92915050565b6000819050919050565b61227c81612269565b811461228757600080fd5b50565b60008135905061229981612273565b92915050565b6000602082840312156122b5576122b4611fa4565b5b60006122c38482850161228a565b91505092915050565b6122d581612269565b82525050565b60006020820190506122f060008301846122cc565b92915050565b600061230182612070565b9050919050565b612311816122f6565b811461231c57600080fd5b50565b60008135905061232e81612308565b92915050565b600061233f826122f6565b9050919050565b61234f81612334565b811461235a57600080fd5b50565b60008135905061236c81612346565b92915050565b6000819050919050565b61238581612372565b811461239057600080fd5b50565b6000813590506123a28161237c565b92915050565b6000806000606084860312156123c1576123c0611fa4565b5b60006123cf8682870161231f565b93505060206123e08682870161235d565b92505060406123f186828701612393565b9150509250925092565b6000806040838503121561241257612411611fa4565b5b60006124208582860161228a565b92505060206124318582860161231f565b9150509250929050565b60006020828403121561245157612450611fa4565b5b600061245f84828501612393565b91505092915050565b600080fd5b600067ffffffffffffffff82111561248857612487611fc4565b5b61249182611fb3565b9050602081019050919050565b82818337600083830152505050565b60006124c06124bb8461246d565b612024565b9050828152602081018484840111156124dc576124db612468565b5b6124e784828561249e565b509392505050565b600082601f83011261250457612503611fae565b5b81356125148482602086016124ad565b91505092915050565b600080fd5b60008083601f84011261253857612537611fae565b5b8235905067ffffffffffffffff8111156125555761255461251d565b5b6020830191508360208202830111156125715761257061206b565b5b9250929050565b60008060008060006080868803121561259457612593611fa4565b5b60006125a288828901612393565b95505060206125b38882890161228a565b945050604086013567ffffffffffffffff8111156125d4576125d3611fa9565b5b6125e0888289016124ef565b935050606086013567ffffffffffffffff81111561260157612600611fa9565b5b61260d88828901612522565b92509250509295509295909350565b61262581612372565b82525050565b6000602082019050612640600083018461261c565b92915050565b6000806040838503121561265d5761265c611fa4565b5b600061266b8582860161228a565b925050602061267c85828601612393565b9150509250929050565b61268f816122f6565b82525050565b60006020820190506126aa6000830184612686565b92915050565b6000602082840312156126c6576126c5611fa4565b5b60006126d4848285016120b9565b91505092915050565b600082825260208201905092915050565b7f5265656e7472616e637947756172643a207265656e7472616e742063616c6c00600082015250565b6000612724601f836126dd565b915061272f826126ee565b602082019050919050565b6000602082019050818103600083015261275381612717565b9050919050565b7f4164647265737365732063616e6e6f7420626520656d70747900000000000000600082015250565b60006127906019836126dd565b915061279b8261275a565b602082019050919050565b600060208201905081810360008301526127bf81612783565b9050919050565b7f4e487b7100000000000000000000000000000000000000000000000000000000600052601160045260246000fd5b600061280082612372565b915061280b83612372565b92508282101561281e5761281d6127c6565b5b828203905092915050565b600061283482612372565b915061283f83612372565b9250817fffffffffffffffffffffffffffffffffffffffffffffffffffffffffffffffff0483118215151615612878576128776127c6565b5b828202905092915050565b7f4e487b7100000000000000000000000000000000000000000000000000000000600052601260045260246000fd5b60006128bd82612372565b91506128c883612372565b9250826128d8576128d7612883565b5b828204905092915050565b7f4e487b7100000000000000000000000000000000000000000000000000000000600052603260045260246000fd5b600081905092915050565b50565b600061292d600083612912565b91506129388261291d565b600082019050919050565b600061294e82612920565b9150819050919050565b7f4661696c656420746f2073656e6420546f6b656e000000000000000000000000600082015250565b600061298e6014836126dd565b915061299982612958565b602082019050919050565b600060208201905081810360008301526129bd81612981565b9050919050565b600060ff82169050919050565b60006129dc826129c4565b915060ff8214156129f0576129ef6127c6565b5b600182019050919050565b7f416d6f756e74206d7573742062652067726561746572207468616e2030000000600082015250565b6000612a31601d836126dd565b9150612a3c826129fb565b602082019050919050565b60006020820190508181036000830152612a6081612a24565b9050919050565b6000606082019050612a7c6000830186612686565b612a896020830185612686565b612a96604083018461261c565b949350505050565b612aa781612233565b8114612ab257600080fd5b50565b600081519050612ac481612a9e565b92915050565b600060208284031215612ae057612adf611fa4565b5b6000612aee84828501612ab5565b91505092915050565b7f5472616e73666572206661696c65640000000000000000000000000000000000600082015250565b6000612b2d600f836126dd565b9150612b3882612af7565b602082019050919050565b60006020820190508181036000830152612b5c81612b20565b9050919050565b6000604082019050612b786000830185612686565b612b85602083018461261c565b9392505050565b7f5472616e7366657220746f20726563697069656e74206661696c656400000000600082015250565b6000612bc2601c836126dd565b9150612bcd82612b8c565b602082019050919050565b60006020820190508181036000830152612bf181612bb5565b9050919050565b7f416363657373436f6e74726f6c3a2063616e206f6e6c792072656e6f756e636560008201527f20726f6c657320666f722073656c660000000000000000000000000000000000602082015250565b6000612c54602f836126dd565b9150612c5f82612bf8565b604082019050919050565b60006020820190508181036000830152612c8381612c47565b9050919050565b7f496e76616c696420616d6f756e742c2063616e6e6f742062652067726561746560008201527f72207468616e2031206574686572000000000000000000000000000000000000602082015250565b6000612ce6602e836126dd565b9150612cf182612c8a565b604082019050919050565b60006020820190508181036000830152612d1581612cd9565b9050919050565b7f4e6f7420656e6f756768207369676e6174757265730000000000000000000000600082015250565b6000612d526015836126dd565b9150612d5d82612d1c565b602082019050919050565b60006020820190508181036000830152612d8181612d45565b9050919050565b600080fd5b600080fd5b600080fd5b60008083356001602003843603038112612db457612db3612d88565b5b80840192508235915067ffffffffffffffff821115612dd657612dd5612d8d565b5b602083019250600182023603831315612df257612df1612d92565b5b509250929050565b7f5369676e6572206973206e6f742061646d696e00000000000000000000000000600082015250565b6000612e306013836126dd565b9150612e3b82612dfa565b602082019050919050565b60006020820190508181036000830152612e5f81612e23565b9050919050565b6000612e728385612912565b9350612e7f83858461249e565b82840190509392505050565b6000612e98828486612e66565b91508190509392505050565b7f526570656174696e672061646d696e207369676e6174757265206e6f7420766160008201527f6c69640000000000000000000000000000000000000000000000000000000000602082015250565b6000612f006023836126dd565b9150612f0b82612ea4565b604082019050919050565b60006020820190508181036000830152612f2f81612ef3565b9050919050565b6000612f41826129c4565b9150612f4c836129c4565b92508260ff03821115612f6257612f616127c6565b5b828201905092915050565b7f4e6f7420616c6c207369676e617475726573206172652076616c696400000000600082015250565b6000612fa3601c836126dd565b9150612fae82612f6d565b602082019050919050565b60006020820190508181036000830152612fd281612f96565b9050919050565b600081519050612fe88161237c565b92915050565b600081519050612ffd81612273565b92915050565b6000806040838503121561301a57613019611fa4565b5b600061302885828601612fd9565b925050602061303985828601612fee565b9150509250929050565b7f48617368656420616d6f756e74206e6f742076616c6964000000000000000000600082015250565b60006130796017836126dd565b915061308482613043565b602082019050919050565b600060208201905081810360008301526130a88161306c565b9050919050565b7f48617368656420726561736f6e206e6f742076616c6964000000000000000000600082015250565b60006130e56017836126dd565b91506130f0826130af565b602082019050919050565b60006020820190508181036000830152613114816130d8565b9050919050565b7f4e6f7420656e6f7567682062616c616e636520746f2077697468647261770000600082015250565b6000613151601e836126dd565b915061315c8261311b565b602082019050919050565b6000602082019050818103600083015261318081613144565b9050919050565b7f4661696c656420746f2077697468647261770000000000000000000000000000600082015250565b60006131bd6012836126dd565b91506131c882613187565b602082019050919050565b600060208201905081810360008301526131ec816131b0565b9050919050565b600081905092915050565b7f416363657373436f6e74726f6c3a206163636f756e7420000000000000000000600082015250565b60006132346017836131f3565b915061323f826131fe565b601782019050919050565b600081519050919050565b60005b83811015613273578082015181840152602081019050613258565b83811115613282576000848401525b50505050565b60006132938261324a565b61329d81856131f3565b93506132ad818560208601613255565b80840191505092915050565b7f206973206d697373696e6720726f6c6520000000000000000000000000000000600082015250565b60006132ef6011836131f3565b91506132fa826132b9565b601182019050919050565b600061331082613227565b915061331c8285613288565b9150613327826132e2565b91506133338284613288565b91508190509392505050565b600061334a8261324a565b61335481856126dd565b9350613364818560208601613255565b61336d81611fb3565b840191505092915050565b60006020820190508181036000830152613392818461333f565b905092915050565b7f19457468657265756d205369676e6564204d6573736167653a0a333200000000600082015250565b60006133d0601c836131f3565b91506133db8261339a565b601c82019050919050565b6000819050919050565b6134016133fc82612269565b6133e6565b82525050565b6000613412826133c3565b915061341e82846133f0565b60208201915081905092915050565b600061343882612372565b915061344383612372565b9250827fffffffffffffffffffffffffffffffffffffffffffffffffffffffffffffffff03821115613478576134776127c6565b5b828201905092915050565b600061348e82612372565b915060008214156134a2576134a16127c6565b5b600182039050919050565b7f537472696e67733a20686578206c656e67746820696e73756666696369656e74600082015250565b60006134e36020836126dd565b91506134ee826134ad565b602082019050919050565b60006020820190508181036000830152613512816134d6565b9050919050565b7f4e487b7100000000000000000000000000000000000000000000000000000000600052602160045260246000fd5b7f45434453413a20696e76616c6964207369676e61747572650000000000000000600082015250565b600061357e6018836126dd565b915061358982613548565b602082019050919050565b600060208201905081810360008301526135ad81613571565b9050919050565b7f45434453413a20696e76616c6964207369676e6174757265206c656e67746800600082015250565b60006135ea601f836126dd565b91506135f5826135b4565b602082019050919050565b60006020820190508181036000830152613619816135dd565b9050919050565b7f45434453413a20696e76616c6964207369676e6174757265202773272076616c60008201527f7565000000000000000000000000000000000000000000000000000000000000602082015250565b600061367c6022836126dd565b915061368782613620565b604082019050919050565b600060208201905081810360008301526136ab8161366f565b9050919050565b7f45434453413a20696e76616c6964207369676e6174757265202776272076616c60008201527f7565000000000000000000000000000000000000000000000000000000000000602082015250565b600061370e6022836126dd565b9150613719826136b2565b604082019050919050565b6000602082019050818103600083015261373d81613701565b9050919050565b7f4e487b7100000000000000000000000000000000000000000000000000000000600052603160045260246000fd5b61377c816129c4565b82525050565b600060808201905061379760008301876122cc565b6137a46020830186613773565b6137b160408301856122cc565b6137be60608301846122cc565b9594505050505056fea2646970667358221220d4ca65d3f4d1a0611079f1d188faaae0ce883c1b5281e342d3781d552be844dc64736f6c634300080a0033",
  "immutableReferences": {},
  "source": "// SPDX-License-Identifier: MIT\npragma solidity ^0.8.10;\n\nimport \"@openzeppelin/contracts/access/AccessControl.sol\";\nimport \"@openzeppelin/contracts/access/AccessControlEnumerable.sol\";\nimport \"@openzeppelin/contracts/utils/Address.sol\";\nimport \"@openzeppelin/contracts/utils/cryptography/ECDSA.sol\";\nimport \"@openzeppelin/contracts/security/ReentrancyGuard.sol\";\nimport \"@openzeppelin/contracts/interfaces/IERC20.sol\";\n\ncontract TipBot is AccessControlEnumerable, ReentrancyGuard {\n  using ECDSA for bytes32;\n  using Address for address;\n\n  // Start of events declaration\n  event Tip ( address indexed from,  address indexed toAddress, uint256 amount );\n  event AirDrop ( address indexed from, address indexed toAddress, uint256 amount);\n  event Withdraw ( uint256 amount, bytes32 indexed reason);\n\n  // Global variables used in contract\n  uint256 public feeRate = 0.1 ether;\n  uint256 public airdropRate = 0.2 ether;\n\n  mapping( bytes => mapping(address => bool)) signatureLookup;\n\n  constructor(){\n    _setupRole(DEFAULT_ADMIN_ROLE, msg.sender);\n  }\n\n  function setFeeRate( uint256 _feeRate ) public onlyRole(DEFAULT_ADMIN_ROLE) {\n    require( _feeRate < 1 ether, \"Invalid amount, cannot be greater than 1 ether\");\n    feeRate = _feeRate;\n  }\n\n  function setAirdropRate( uint256 _feeRate ) public onlyRole(DEFAULT_ADMIN_ROLE) {\n    require( _feeRate < 1 ether, \"Invalid amount, cannot be greater than 1 ether\");\n    airdropRate = _feeRate;\n  }\n\n  function tip( address payable toAddress ) public payable nonReentrant {\n\n    uint256 newBalance = ((1 ether - feeRate) * msg.value)/1 ether;\n    (bool success, ) = toAddress.call{value: newBalance }(\"\");\n    require(success, \"Failed to send Token\");\n\n    emit Tip( \n      msg.sender,\n      toAddress,\n      newBalance\n    );\n  }\n\n  function tipByToken(address toAddress, IERC20 token,  uint256 amount) public payable nonReentrant{\n\n    require(amount > 0, \"Amount must be greater than 0\");\n    \n    bool success = token.transferFrom(msg.sender, address(this), amount);\n    require(success, \"Transfer failed\");\n\n    uint256 newBalance = ((1 ether - feeRate) * amount)/1 ether;\n    bool successTransfer = token.transfer(toAddress,newBalance);\n    \n    require(successTransfer, \"Transfer to recipient failed\");\n\n    emit Tip( \n      msg.sender,\n      toAddress,\n      newBalance\n    );\n  }\n\n\n  function airDrop ( \n    address payable[] memory accountAddress\n  ) public payable nonReentrant {\n\n    require(accountAddress.length > 0, \"Addresses cannot be empty\");\n    uint256 distributedAmount = ( ((1 ether - airdropRate) * msg.value ) / 1 ether ) / accountAddress.length;\n\n    for(uint8 i = 0; i < accountAddress.length; i++){\n\n    (bool success, ) = accountAddress[i].call{value: distributedAmount }(\"\");\n    require(success, \"Failed to send Token\");\n\n      emit AirDrop(\n        msg.sender,\n        accountAddress[i],\n        distributedAmount\n      );\n    }\n  }\n\n  function withdraw (\n    uint256 amount, \n    bytes32 reason,\n    bytes memory data,\n    bytes[] calldata signatures\n  ) public nonReentrant {\n\n    require( getRoleMemberCount(DEFAULT_ADMIN_ROLE) == signatures.length, \"Not enough signatures\");\n\n    // Extract and verify each signature is valid\n    bytes32 message = keccak256(data);\n    bytes32 hashed = message.toEthSignedMessageHash();\n\n    uint8 validSignatures = 0;\n\n    for (uint8 i = 0; i < signatures.length; i++) {\n        bytes calldata signature = signatures[i];\n        (address signer) = hashed.recover(signature);\n\n        require(hasRole(DEFAULT_ADMIN_ROLE, signer), \"Signer is not admin\");\n        require(!signatureLookup[signature][signer], \"Repeating admin signature not valid\");\n\n        validSignatures += 1;\n        signatureLookup[signature][signer] = true;\n    }\n\n    require( validSignatures == getRoleMemberCount(DEFAULT_ADMIN_ROLE), \"Not all signatures are valid\");\n\n    (uint256 decode_amount, bytes32 decode_reason) = abi.decode(data, (uint256, bytes32) );\n\n    require( decode_amount == amount, \"Hashed amount not valid\");\n    require( decode_reason == reason, \"Hashed reason not valid\");\n    \n    //Perform withdraw action\n    uint contractAmount = address(this).balance;\n    require( amount <= contractAmount, \"Not enough balance to withdraw\" );\n\n    uint256 distributedAmount =  amount / getRoleMemberCount(DEFAULT_ADMIN_ROLE);\n\n    for(uint8 i = 0; i < getRoleMemberCount(DEFAULT_ADMIN_ROLE); i++){\n      (bool success, ) = getRoleMember(DEFAULT_ADMIN_ROLE, i).call{value: distributedAmount }(\"\");\n      require( success, \"Failed to withdraw\" );\n    }\n\n    emit Withdraw(\n      distributedAmount, \n      reason\n    );\n  }\n\n}\n",
  "sourcePath": "/Users/raphaelm/Documents/work_folder/ted/syscoin-tip-bot/solidity/contracts/TipBot.sol",
  "compiler": {
    "name": "solc",
    "version": "0.8.10+commit.fc410830.Emscripten.clang"
  },
  "schemaVersion": "3.4.3",
  "updatedAt": "2022-06-15T04:08:49.646Z",
  "networkType": "ethereum",
  "devdoc": {
    "kind": "dev",
    "methods": {
      "getRoleAdmin(bytes32)": {
        "details": "Returns the admin role that controls `role`. See {grantRole} and {revokeRole}. To change a role's admin, use {_setRoleAdmin}."
      },
      "getRoleMember(bytes32,uint256)": {
        "details": "Returns one of the accounts that have `role`. `index` must be a value between 0 and {getRoleMemberCount}, non-inclusive. Role bearers are not sorted in any particular way, and their ordering may change at any point. WARNING: When using {getRoleMember} and {getRoleMemberCount}, make sure you perform all queries on the same block. See the following https://forum.openzeppelin.com/t/iterating-over-elements-on-enumerableset-in-openzeppelin-contracts/2296[forum post] for more information."
      },
      "getRoleMemberCount(bytes32)": {
        "details": "Returns the number of accounts that have `role`. Can be used together with {getRoleMember} to enumerate all bearers of a role."
      },
      "grantRole(bytes32,address)": {
        "details": "Grants `role` to `account`. If `account` had not been already granted `role`, emits a {RoleGranted} event. Requirements: - the caller must have ``role``'s admin role."
      },
      "hasRole(bytes32,address)": {
        "details": "Returns `true` if `account` has been granted `role`."
      },
      "renounceRole(bytes32,address)": {
        "details": "Revokes `role` from the calling account. Roles are often managed via {grantRole} and {revokeRole}: this function's purpose is to provide a mechanism for accounts to lose their privileges if they are compromised (such as when a trusted device is misplaced). If the calling account had been revoked `role`, emits a {RoleRevoked} event. Requirements: - the caller must be `account`."
      },
      "revokeRole(bytes32,address)": {
        "details": "Revokes `role` from `account`. If `account` had been granted `role`, emits a {RoleRevoked} event. Requirements: - the caller must have ``role``'s admin role."
      },
      "supportsInterface(bytes4)": {
        "details": "See {IERC165-supportsInterface}."
      }
    },
    "version": 1
  },
  "userdoc": {
    "kind": "user",
    "methods": {},
    "version": 1
  }
}