{
  "contractName": "TipBot",
  "abi": [
    {
      "inputs": [],
      "stateMutability": "nonpayable",
      "type": "constructor"
    },
    {
      "anonymous": false,
      "inputs": [
        {
          "indexed": true,
          "internalType": "address",
          "name": "from",
          "type": "address"
        },
        {
          "indexed": true,
          "internalType": "address",
          "name": "toAddress",
          "type": "address"
        },
        {
          "indexed": false,
          "internalType": "uint256",
          "name": "amount",
          "type": "uint256"
        }
      ],
      "name": "AirDrop",
      "type": "event"
    },
    {
      "anonymous": false,
      "inputs": [
        {
          "indexed": true,
          "internalType": "bytes32",
          "name": "role",
          "type": "bytes32"
        },
        {
          "indexed": true,
          "internalType": "bytes32",
          "name": "previousAdminRole",
          "type": "bytes32"
        },
        {
          "indexed": true,
          "internalType": "bytes32",
          "name": "newAdminRole",
          "type": "bytes32"
        }
      ],
      "name": "RoleAdminChanged",
      "type": "event"
    },
    {
      "anonymous": false,
      "inputs": [
        {
          "indexed": true,
          "internalType": "bytes32",
          "name": "role",
          "type": "bytes32"
        },
        {
          "indexed": true,
          "internalType": "address",
          "name": "account",
          "type": "address"
        },
        {
          "indexed": true,
          "internalType": "address",
          "name": "sender",
          "type": "address"
        }
      ],
      "name": "RoleGranted",
      "type": "event"
    },
    {
      "anonymous": false,
      "inputs": [
        {
          "indexed": true,
          "internalType": "bytes32",
          "name": "role",
          "type": "bytes32"
        },
        {
          "indexed": true,
          "internalType": "address",
          "name": "account",
          "type": "address"
        },
        {
          "indexed": true,
          "internalType": "address",
          "name": "sender",
          "type": "address"
        }
      ],
      "name": "RoleRevoked",
      "type": "event"
    },
    {
      "anonymous": false,
      "inputs": [
        {
          "indexed": true,
          "internalType": "address",
          "name": "from",
          "type": "address"
        },
        {
          "indexed": true,
          "internalType": "address",
          "name": "toAddress",
          "type": "address"
        },
        {
          "indexed": false,
          "internalType": "uint256",
          "name": "amount",
          "type": "uint256"
        }
      ],
      "name": "Tip",
      "type": "event"
    },
    {
      "anonymous": false,
      "inputs": [
        {
          "indexed": true,
          "internalType": "address",
          "name": "from",
          "type": "address"
        },
        {
          "indexed": true,
          "internalType": "address",
          "name": "toAddress",
          "type": "address"
        },
        {
          "indexed": false,
          "internalType": "uint256",
          "name": "amount",
          "type": "uint256"
        }
      ],
      "name": "TipToken",
      "type": "event"
    },
    {
      "anonymous": false,
      "inputs": [
        {
          "indexed": false,
          "internalType": "uint256",
          "name": "amount",
          "type": "uint256"
        },
        {
          "indexed": true,
          "internalType": "bytes32",
          "name": "reason",
          "type": "bytes32"
        }
      ],
      "name": "Withdraw",
      "type": "event"
    },
    {
      "inputs": [],
      "name": "DEFAULT_ADMIN_ROLE",
      "outputs": [
        {
          "internalType": "bytes32",
          "name": "",
          "type": "bytes32"
        }
      ],
      "stateMutability": "view",
      "type": "function"
    },
    {
      "inputs": [],
      "name": "airdropRate",
      "outputs": [
        {
          "internalType": "uint256",
          "name": "",
          "type": "uint256"
        }
      ],
      "stateMutability": "view",
      "type": "function"
    },
    {
      "inputs": [],
      "name": "feeRate",
      "outputs": [
        {
          "internalType": "uint256",
          "name": "",
          "type": "uint256"
        }
      ],
      "stateMutability": "view",
      "type": "function"
    },
    {
      "inputs": [
        {
          "internalType": "bytes32",
          "name": "role",
          "type": "bytes32"
        }
      ],
      "name": "getRoleAdmin",
      "outputs": [
        {
          "internalType": "bytes32",
          "name": "",
          "type": "bytes32"
        }
      ],
      "stateMutability": "view",
      "type": "function"
    },
    {
      "inputs": [
        {
          "internalType": "bytes32",
          "name": "role",
          "type": "bytes32"
        },
        {
          "internalType": "uint256",
          "name": "index",
          "type": "uint256"
        }
      ],
      "name": "getRoleMember",
      "outputs": [
        {
          "internalType": "address",
          "name": "",
          "type": "address"
        }
      ],
      "stateMutability": "view",
      "type": "function"
    },
    {
      "inputs": [
        {
          "internalType": "bytes32",
          "name": "role",
          "type": "bytes32"
        }
      ],
      "name": "getRoleMemberCount",
      "outputs": [
        {
          "internalType": "uint256",
          "name": "",
          "type": "uint256"
        }
      ],
      "stateMutability": "view",
      "type": "function"
    },
    {
      "inputs": [
        {
          "internalType": "bytes32",
          "name": "role",
          "type": "bytes32"
        },
        {
          "internalType": "address",
          "name": "account",
          "type": "address"
        }
      ],
      "name": "grantRole",
      "outputs": [],
      "stateMutability": "nonpayable",
      "type": "function"
    },
    {
      "inputs": [
        {
          "internalType": "bytes32",
          "name": "role",
          "type": "bytes32"
        },
        {
          "internalType": "address",
          "name": "account",
          "type": "address"
        }
      ],
      "name": "hasRole",
      "outputs": [
        {
          "internalType": "bool",
          "name": "",
          "type": "bool"
        }
      ],
      "stateMutability": "view",
      "type": "function"
    },
    {
      "inputs": [
        {
          "internalType": "bytes32",
          "name": "role",
          "type": "bytes32"
        },
        {
          "internalType": "address",
          "name": "account",
          "type": "address"
        }
      ],
      "name": "renounceRole",
      "outputs": [],
      "stateMutability": "nonpayable",
      "type": "function"
    },
    {
      "inputs": [
        {
          "internalType": "bytes32",
          "name": "role",
          "type": "bytes32"
        },
        {
          "internalType": "address",
          "name": "account",
          "type": "address"
        }
      ],
      "name": "revokeRole",
      "outputs": [],
      "stateMutability": "nonpayable",
      "type": "function"
    },
    {
      "inputs": [
        {
          "internalType": "bytes4",
          "name": "interfaceId",
          "type": "bytes4"
        }
      ],
      "name": "supportsInterface",
      "outputs": [
        {
          "internalType": "bool",
          "name": "",
          "type": "bool"
        }
      ],
      "stateMutability": "view",
      "type": "function"
    },
    {
      "inputs": [
        {
          "internalType": "uint256",
          "name": "_feeRate",
          "type": "uint256"
        }
      ],
      "name": "setFeeRate",
      "outputs": [],
      "stateMutability": "nonpayable",
      "type": "function"
    },
    {
      "inputs": [
        {
          "internalType": "uint256",
          "name": "_feeRate",
          "type": "uint256"
        }
      ],
      "name": "setAirdropRate",
      "outputs": [],
      "stateMutability": "nonpayable",
      "type": "function"
    },
    {
      "inputs": [
        {
          "internalType": "address payable",
          "name": "toAddress",
          "type": "address"
        }
      ],
      "name": "tip",
      "outputs": [],
      "stateMutability": "payable",
      "type": "function"
    },
    {
      "inputs": [
        {
          "internalType": "address",
          "name": "toAddress",
          "type": "address"
        },
        {
          "internalType": "contract IERC20",
          "name": "token",
          "type": "address"
        },
        {
          "internalType": "uint256",
          "name": "amount",
          "type": "uint256"
        }
      ],
      "name": "tipByToken",
      "outputs": [],
      "stateMutability": "nonpayable",
      "type": "function"
    },
    {
      "inputs": [
        {
          "internalType": "address payable[]",
          "name": "accountAddress",
          "type": "address[]"
        }
      ],
      "name": "airDrop",
      "outputs": [],
      "stateMutability": "payable",
      "type": "function"
    },
    {
      "inputs": [
        {
          "internalType": "uint256",
          "name": "amount",
          "type": "uint256"
        },
        {
          "internalType": "bytes32",
          "name": "reason",
          "type": "bytes32"
        },
        {
          "internalType": "bytes",
          "name": "data",
          "type": "bytes"
        },
        {
          "internalType": "bytes[]",
          "name": "signatures",
          "type": "bytes[]"
        }
      ],
      "name": "withdraw",
      "outputs": [],
      "stateMutability": "nonpayable",
      "type": "function"
    }
  ],
  "bytecode": "0x608060405267016345785d8a00006003556702c68af0bb1400006004553480156200002957600080fd5b506001600281905550620000476000801b336200004d60201b60201c565b620002e3565b6200005f82826200006360201b60201c565b5050565b6200007a8282620000ab60201b6200133d1760201c565b620000a681600160008581526020019081526020016000206200019c60201b6200141d1790919060201c565b505050565b620000bd8282620001d460201b60201c565b6200019857600160008084815260200190815260200160002060000160008373ffffffffffffffffffffffffffffffffffffffff1673ffffffffffffffffffffffffffffffffffffffff16815260200190815260200160002060006101000a81548160ff0219169083151502179055506200013d6200023e60201b60201c565b73ffffffffffffffffffffffffffffffffffffffff168173ffffffffffffffffffffffffffffffffffffffff16837f2f8788117e7eff1d82e926ec794901d17c78024a50270940304540a733656f0d60405160405180910390a45b5050565b6000620001cc836000018373ffffffffffffffffffffffffffffffffffffffff1660001b6200024660201b60201c565b905092915050565b600080600084815260200190815260200160002060000160008373ffffffffffffffffffffffffffffffffffffffff1673ffffffffffffffffffffffffffffffffffffffff16815260200190815260200160002060009054906101000a900460ff16905092915050565b600033905090565b60006200025a8383620002c060201b60201c565b620002b5578260000182908060018154018082558091505060019003906000526020600020016000909190919091505582600001805490508360010160008481526020019081526020016000208190555060019050620002ba565b600090505b92915050565b600080836001016000848152602001908152602001600020541415905092915050565b61380a80620002f36000396000f3fe6080604052600436106100fd5760003560e01c80638891cf0d11610095578063a217fddf11610064578063a217fddf14610335578063ac733ef714610360578063ca15c8731461037c578063d547741f146103b9578063e357dffb146103e2576100fd565b80638891cf0d146102655780639010d07c1461029057806391d14854146102cd578063978bbdb91461030a576100fd565b80632f2ff15d116100d15780632f2ff15d146101c157806336568abe146101ea57806345596e2e146102135780637659b6131461023c576100fd565b8062b6849f1461010257806301ffc9a71461011e578063248a9ca31461015b5780632dffff4a14610198575b600080fd5b61011c60048036038101906101179190612172565b61040b565b005b34801561012a57600080fd5b5061014560048036038101906101409190612213565b61065a565b604051610152919061225b565b60405180910390f35b34801561016757600080fd5b50610182600480360381019061017d91906122ac565b6106d4565b60405161018f91906122e8565b60405180910390f35b3480156101a457600080fd5b506101bf60048036038101906101ba91906123b5565b6106f3565b005b3480156101cd57600080fd5b506101e860048036038101906101e39190612408565b6109b5565b005b3480156101f657600080fd5b50610211600480360381019061020c9190612408565b6109de565b005b34801561021f57600080fd5b5061023a60048036038101906102359190612448565b610a61565b005b34801561024857600080fd5b50610263600480360381019061025e9190612585565b610acb565b005b34801561027157600080fd5b5061027a611038565b6040516102879190612638565b60405180910390f35b34801561029c57600080fd5b506102b760048036038101906102b29190612653565b61103e565b6040516102c491906126a2565b60405180910390f35b3480156102d957600080fd5b506102f460048036038101906102ef9190612408565b61106d565b604051610301919061225b565b60405180910390f35b34801561031657600080fd5b5061031f6110d7565b60405161032c9190612638565b60405180910390f35b34801561034157600080fd5b5061034a6110dd565b60405161035791906122e8565b60405180910390f35b61037a600480360381019061037591906126bd565b6110e4565b005b34801561038857600080fd5b506103a3600480360381019061039e91906122ac565b611286565b6040516103b09190612638565b60405180910390f35b3480156103c557600080fd5b506103e060048036038101906103db9190612408565b6112aa565b005b3480156103ee57600080fd5b5061040960048036038101906104049190612448565b6112d3565b005b600280541415610450576040517f08c379a000000000000000000000000000000000000000000000000000000000815260040161044790612747565b60405180910390fd5b60028081905550600081511161049b576040517f08c379a0000000000000000000000000000000000000000000000000000000008152600401610492906127b3565b60405180910390fd5b60008151670de0b6b3a764000034600454670de0b6b3a76400006104bf9190612802565b6104c99190612836565b6104d391906128bf565b6104dd91906128bf565b905060005b82518160ff16101561064d576000838260ff1681518110610506576105056128f0565b5b602002602001015173ffffffffffffffffffffffffffffffffffffffff168360405161053190612950565b60006040518083038185875af1925050503d806000811461056e576040519150601f19603f3d011682016040523d82523d6000602084013e610573565b606091505b50509050806105b7576040517f08c379a00000000000000000000000000000000000000000000000000000000081526004016105ae906129b1565b60405180910390fd5b838260ff16815181106105cd576105cc6128f0565b5b602002602001015173ffffffffffffffffffffffffffffffffffffffff163373ffffffffffffffffffffffffffffffffffffffff167f44347b1aec7858b9ab924df67243a402f4afd5e7d5f045176cde4c521350b88b856040516106319190612638565b60405180910390a3508080610645906129de565b9150506104e2565b5050600160028190555050565b60007f5a05180f000000000000000000000000000000000000000000000000000000007bffffffffffffffffffffffffffffffffffffffffffffffffffffffff1916827bffffffffffffffffffffffffffffffffffffffffffffffffffffffff191614806106cd57506106cc8261144d565b5b9050919050565b6000806000838152602001908152602001600020600101549050919050565b600280541415610738576040517f08c379a000000000000000000000000000000000000000000000000000000000815260040161072f90612747565b60405180910390fd5b6002808190555060008111610782576040517f08c379a000000000000000000000000000000000000000000000000000000000815260040161077990612a54565b60405180910390fd5b60008273ffffffffffffffffffffffffffffffffffffffff166323b872dd3330856040518463ffffffff1660e01b81526004016107c193929190612a74565b6020604051808303816000875af11580156107e0573d6000803e3d6000fd5b505050506040513d601f19601f820116820180604052508101906108049190612ad7565b905080610846576040517f08c379a000000000000000000000000000000000000000000000000000000000815260040161083d90612b50565b60405180910390fd5b6000670de0b6b3a764000083600354670de0b6b3a76400006108689190612802565b6108729190612836565b61087c91906128bf565b905060008473ffffffffffffffffffffffffffffffffffffffff1663a9059cbb87846040518363ffffffff1660e01b81526004016108bb929190612b70565b6020604051808303816000875af11580156108da573d6000803e3d6000fd5b505050506040513d601f19601f820116820180604052508101906108fe9190612ad7565b905080610940576040517f08c379a000000000000000000000000000000000000000000000000000000000815260040161093790612be5565b60405180910390fd5b8573ffffffffffffffffffffffffffffffffffffffff163373ffffffffffffffffffffffffffffffffffffffff167fa1a592f6d33ec9726b8ac400d4b12522256902498feb99b97e13f86b88a963218460405161099d9190612638565b60405180910390a35050506001600281905550505050565b6109be826106d4565b6109cf816109ca6114c7565b6114cf565b6109d9838361156c565b505050565b6109e66114c7565b73ffffffffffffffffffffffffffffffffffffffff168173ffffffffffffffffffffffffffffffffffffffff1614610a53576040517f08c379a0000000000000000000000000000000000000000000000000000000008152600401610a4a90612c77565b60405180910390fd5b610a5d82826115a0565b5050565b6000801b610a7681610a716114c7565b6114cf565b670de0b6b3a76400008210610ac0576040517f08c379a0000000000000000000000000000000000000000000000000000000008152600401610ab790612d09565b60405180910390fd5b816003819055505050565b600280541415610b10576040517f08c379a0000000000000000000000000000000000000000000000000000000008152600401610b0790612747565b60405180910390fd5b6002808190555081819050610b276000801b611286565b14610b67576040517f08c379a0000000000000000000000000000000000000000000000000000000008152600401610b5e90612d75565b60405180910390fd5b6000838051906020012090506000610b7e826115d4565b90506000805b858590508160ff161015610dae5736600087878460ff16818110610bab57610baa6128f0565b5b9050602002810190610bbd9190612da4565b915091506000610c1a83838080601f016020809104026020016040519081016040528093929190818152602001838380828437600081840152601f19601f820116905080830192505050505050508761160490919063ffffffff16565b9050610c296000801b8261106d565b610c68576040517f08c379a0000000000000000000000000000000000000000000000000000000008152600401610c5f90612e53565b60405180910390fd5b60058383604051610c7a929190612e98565b908152602001604051809103902060008273ffffffffffffffffffffffffffffffffffffffff1673ffffffffffffffffffffffffffffffffffffffff16815260200190815260200160002060009054906101000a900460ff1615610d13576040517f08c379a0000000000000000000000000000000000000000000000000000000008152600401610d0a90612f23565b60405180910390fd5b600185610d209190612f43565b9450600160058484604051610d36929190612e98565b908152602001604051809103902060008373ffffffffffffffffffffffffffffffffffffffff1673ffffffffffffffffffffffffffffffffffffffff16815260200190815260200160002060006101000a81548160ff0219169083151502179055505050508080610da6906129de565b915050610b84565b50610dbb6000801b611286565b8160ff1614610dff576040517f08c379a0000000000000000000000000000000000000000000000000000000008152600401610df690612fc6565b60405180910390fd5b60008087806020019051810190610e169190613010565b91509150898214610e5c576040517f08c379a0000000000000000000000000000000000000000000000000000000008152600401610e539061309c565b60405180910390fd5b888114610e9e576040517f08c379a0000000000000000000000000000000000000000000000000000000008152600401610e9590613108565b60405180910390fd5b6000479050808b1115610ee6576040517f08c379a0000000000000000000000000000000000000000000000000000000008152600401610edd90613174565b60405180910390fd5b6000610ef46000801b611286565b8c610eff91906128bf565b905060005b610f106000801b611286565b8160ff161015610fe9576000610f2c6000801b8360ff1661103e565b73ffffffffffffffffffffffffffffffffffffffff1683604051610f4f90612950565b60006040518083038185875af1925050503d8060008114610f8c576040519150601f19603f3d011682016040523d82523d6000602084013e610f91565b606091505b5050905080610fd5576040517f08c379a0000000000000000000000000000000000000000000000000000000008152600401610fcc906131e0565b60405180910390fd5b508080610fe1906129de565b915050610f04565b508a7f7403cafb32164b082ee581e5bd17d85dd82f2e64cdd8bd729ea9435928f7433a8260405161101a9190612638565b60405180910390a25050505050505060016002819055505050505050565b60045481565b6000611065826001600086815260200190815260200160002061162b90919063ffffffff16565b905092915050565b600080600084815260200190815260200160002060000160008373ffffffffffffffffffffffffffffffffffffffff1673ffffffffffffffffffffffffffffffffffffffff16815260200190815260200160002060009054906101000a900460ff16905092915050565b60035481565b6000801b81565b600280541415611129576040517f08c379a000000000000000000000000000000000000000000000000000000000815260040161112090612747565b60405180910390fd5b600280819055506000670de0b6b3a764000034600354670de0b6b3a76400006111529190612802565b61115c9190612836565b61116691906128bf565b905060008273ffffffffffffffffffffffffffffffffffffffff168260405161118e90612950565b60006040518083038185875af1925050503d80600081146111cb576040519150601f19603f3d011682016040523d82523d6000602084013e6111d0565b606091505b5050905080611214576040517f08c379a000000000000000000000000000000000000000000000000000000000815260040161120b906129b1565b60405180910390fd5b8273ffffffffffffffffffffffffffffffffffffffff163373ffffffffffffffffffffffffffffffffffffffff167fcbefbf6a902aa93a9aafdd30aefd16e61f6c015bbf5fcaccfdf1d29d0c84e7d0846040516112719190612638565b60405180910390a35050600160028190555050565b60006112a360016000848152602001908152602001600020611645565b9050919050565b6112b3826106d4565b6112c4816112bf6114c7565b6114cf565b6112ce83836115a0565b505050565b6000801b6112e8816112e36114c7565b6114cf565b670de0b6b3a76400008210611332576040517f08c379a000000000000000000000000000000000000000000000000000000000815260040161132990612d09565b60405180910390fd5b816004819055505050565b611347828261106d565b61141957600160008084815260200190815260200160002060000160008373ffffffffffffffffffffffffffffffffffffffff1673ffffffffffffffffffffffffffffffffffffffff16815260200190815260200160002060006101000a81548160ff0219169083151502179055506113be6114c7565b73ffffffffffffffffffffffffffffffffffffffff168173ffffffffffffffffffffffffffffffffffffffff16837f2f8788117e7eff1d82e926ec794901d17c78024a50270940304540a733656f0d60405160405180910390a45b5050565b6000611445836000018373ffffffffffffffffffffffffffffffffffffffff1660001b61165a565b905092915050565b60007f7965db0b000000000000000000000000000000000000000000000000000000007bffffffffffffffffffffffffffffffffffffffffffffffffffffffff1916827bffffffffffffffffffffffffffffffffffffffffffffffffffffffff191614806114c057506114bf826116ca565b5b9050919050565b600033905090565b6114d9828261106d565b611568576114fe8173ffffffffffffffffffffffffffffffffffffffff166014611734565b61150c8360001c6020611734565b60405160200161151d929190613312565b6040516020818303038152906040526040517f08c379a000000000000000000000000000000000000000000000000000000000815260040161155f9190613385565b60405180910390fd5b5050565b611576828261133d565b61159b816001600085815260200190815260200160002061141d90919063ffffffff16565b505050565b6115aa8282611970565b6115cf8160016000858152602001908152602001600020611a5190919063ffffffff16565b505050565b6000816040516020016115e79190613414565b604051602081830303815290604052805190602001209050919050565b60008060006116138585611a81565b9150915061162081611b04565b819250505092915050565b600061163a8360000183611cd9565b60001c905092915050565b600061165382600001611d04565b9050919050565b60006116668383611d15565b6116bf5782600001829080600181540180825580915050600190039060005260206000200160009091909190915055826000018054905083600101600084815260200190815260200160002081905550600190506116c4565b600090505b92915050565b60007f01ffc9a7000000000000000000000000000000000000000000000000000000007bffffffffffffffffffffffffffffffffffffffffffffffffffffffff1916827bffffffffffffffffffffffffffffffffffffffffffffffffffffffff1916149050919050565b6060600060028360026117479190612836565b611751919061343a565b67ffffffffffffffff81111561176a57611769611fd1565b5b6040519080825280601f01601f19166020018201604052801561179c5781602001600182028036833780820191505090505b5090507f3000000000000000000000000000000000000000000000000000000000000000816000815181106117d4576117d36128f0565b5b60200101907effffffffffffffffffffffffffffffffffffffffffffffffffffffffffffff1916908160001a9053507f780000000000000000000000000000000000000000000000000000000000000081600181518110611838576118376128f0565b5b60200101907effffffffffffffffffffffffffffffffffffffffffffffffffffffffffffff1916908160001a905350600060018460026118789190612836565b611882919061343a565b90505b6001811115611922577f3031323334353637383961626364656600000000000000000000000000000000600f8616601081106118c4576118c36128f0565b5b1a60f81b8282815181106118db576118da6128f0565b5b60200101907effffffffffffffffffffffffffffffffffffffffffffffffffffffffffffff1916908160001a905350600485901c94508061191b90613490565b9050611885565b5060008414611966576040517f08c379a000000000000000000000000000000000000000000000000000000000815260040161195d90613506565b60405180910390fd5b8091505092915050565b61197a828261106d565b15611a4d57600080600084815260200190815260200160002060000160008373ffffffffffffffffffffffffffffffffffffffff1673ffffffffffffffffffffffffffffffffffffffff16815260200190815260200160002060006101000a81548160ff0219169083151502179055506119f26114c7565b73ffffffffffffffffffffffffffffffffffffffff168173ffffffffffffffffffffffffffffffffffffffff16837ff6391f5c32d9c69d2a47ea670b442974b53935d1edc7fd64eb21e047a839171b60405160405180910390a45b5050565b6000611a79836000018373ffffffffffffffffffffffffffffffffffffffff1660001b611d38565b905092915050565b600080604183511415611ac35760008060006020860151925060408601519150606086015160001a9050611ab787828585611e4c565b94509450505050611afd565b604083511415611af4576000806020850151915060408501519050611ae9868383611f59565b935093505050611afd565b60006002915091505b9250929050565b60006004811115611b1857611b17613526565b5b816004811115611b2b57611b2a613526565b5b1415611b3657611cd6565b60016004811115611b4a57611b49613526565b5b816004811115611b5d57611b5c613526565b5b1415611b9e576040517f08c379a0000000000000000000000000000000000000000000000000000000008152600401611b95906135a1565b60405180910390fd5b60026004811115611bb257611bb1613526565b5b816004811115611bc557611bc4613526565b5b1415611c06576040517f08c379a0000000000000000000000000000000000000000000000000000000008152600401611bfd9061360d565b60405180910390fd5b60036004811115611c1a57611c19613526565b5b816004811115611c2d57611c2c613526565b5b1415611c6e576040517f08c379a0000000000000000000000000000000000000000000000000000000008152600401611c659061369f565b60405180910390fd5b600480811115611c8157611c80613526565b5b816004811115611c9457611c93613526565b5b1415611cd5576040517f08c379a0000000000000000000000000000000000000000000000000000000008152600401611ccc90613731565b60405180910390fd5b5b50565b6000826000018281548110611cf157611cf06128f0565b5b9060005260206000200154905092915050565b600081600001805490509050919050565b600080836001016000848152602001908152602001600020541415905092915050565b60008083600101600084815260200190815260200160002054905060008114611e40576000600182611d6a9190612802565b9050600060018660000180549050611d829190612802565b9050818114611df1576000866000018281548110611da357611da26128f0565b5b9060005260206000200154905080876000018481548110611dc757611dc66128f0565b5b90600052602060002001819055508387600101600083815260200190815260200160002081905550505b85600001805480611e0557611e04613751565b5b600190038181906000526020600020016000905590558560010160008681526020019081526020016000206000905560019350505050611e46565b60009150505b92915050565b6000807f7fffffffffffffffffffffffffffffff5d576e7357a4501ddfe92f46681b20a08360001c1115611e87576000600391509150611f50565b601b8560ff1614158015611e9f5750601c8560ff1614155b15611eb1576000600491509150611f50565b600060018787878760405160008152602001604052604051611ed6949392919061378f565b6020604051602081039080840390855afa158015611ef8573d6000803e3d6000fd5b505050602060405103519050600073ffffffffffffffffffffffffffffffffffffffff168173ffffffffffffffffffffffffffffffffffffffff161415611f4757600060019250925050611f50565b80600092509250505b94509492505050565b6000806000807f7fffffffffffffffffffffffffffffffffffffffffffffffffffffffffffffff85169150601b8560ff1c019050611f9987828885611e4c565b935093505050935093915050565b6000604051905090565b600080fd5b600080fd5b600080fd5b6000601f19601f8301169050919050565b7f4e487b7100000000000000000000000000000000000000000000000000000000600052604160045260246000fd5b61200982611fc0565b810181811067ffffffffffffffff8211171561202857612027611fd1565b5b80604052505050565b600061203b611fa7565b90506120478282612000565b919050565b600067ffffffffffffffff82111561206757612066611fd1565b5b602082029050602081019050919050565b600080fd5b600073ffffffffffffffffffffffffffffffffffffffff82169050919050565b60006120a88261207d565b9050919050565b6120b88161209d565b81146120c357600080fd5b50565b6000813590506120d5816120af565b92915050565b60006120ee6120e98461204c565b612031565b9050808382526020820190506020840283018581111561211157612110612078565b5b835b8181101561213a578061212688826120c6565b845260208401935050602081019050612113565b5050509392505050565b600082601f83011261215957612158611fbb565b5b81356121698482602086016120db565b91505092915050565b60006020828403121561218857612187611fb1565b5b600082013567ffffffffffffffff8111156121a6576121a5611fb6565b5b6121b284828501612144565b91505092915050565b60007fffffffff0000000000000000000000000000000000000000000000000000000082169050919050565b6121f0816121bb565b81146121fb57600080fd5b50565b60008135905061220d816121e7565b92915050565b60006020828403121561222957612228611fb1565b5b6000612237848285016121fe565b91505092915050565b60008115159050919050565b61225581612240565b82525050565b6000602082019050612270600083018461224c565b92915050565b6000819050919050565b61228981612276565b811461229457600080fd5b50565b6000813590506122a681612280565b92915050565b6000602082840312156122c2576122c1611fb1565b5b60006122d084828501612297565b91505092915050565b6122e281612276565b82525050565b60006020820190506122fd60008301846122d9565b92915050565b600061230e8261207d565b9050919050565b61231e81612303565b811461232957600080fd5b50565b60008135905061233b81612315565b92915050565b600061234c82612303565b9050919050565b61235c81612341565b811461236757600080fd5b50565b60008135905061237981612353565b92915050565b6000819050919050565b6123928161237f565b811461239d57600080fd5b50565b6000813590506123af81612389565b92915050565b6000806000606084860312156123ce576123cd611fb1565b5b60006123dc8682870161232c565b93505060206123ed8682870161236a565b92505060406123fe868287016123a0565b9150509250925092565b6000806040838503121561241f5761241e611fb1565b5b600061242d85828601612297565b925050602061243e8582860161232c565b9150509250929050565b60006020828403121561245e5761245d611fb1565b5b600061246c848285016123a0565b91505092915050565b600080fd5b600067ffffffffffffffff82111561249557612494611fd1565b5b61249e82611fc0565b9050602081019050919050565b82818337600083830152505050565b60006124cd6124c88461247a565b612031565b9050828152602081018484840111156124e9576124e8612475565b5b6124f48482856124ab565b509392505050565b600082601f83011261251157612510611fbb565b5b81356125218482602086016124ba565b91505092915050565b600080fd5b60008083601f84011261254557612544611fbb565b5b8235905067ffffffffffffffff8111156125625761256161252a565b5b60208301915083602082028301111561257e5761257d612078565b5b9250929050565b6000806000806000608086880312156125a1576125a0611fb1565b5b60006125af888289016123a0565b95505060206125c088828901612297565b945050604086013567ffffffffffffffff8111156125e1576125e0611fb6565b5b6125ed888289016124fc565b935050606086013567ffffffffffffffff81111561260e5761260d611fb6565b5b61261a8882890161252f565b92509250509295509295909350565b6126328161237f565b82525050565b600060208201905061264d6000830184612629565b92915050565b6000806040838503121561266a57612669611fb1565b5b600061267885828601612297565b9250506020612689858286016123a0565b9150509250929050565b61269c81612303565b82525050565b60006020820190506126b76000830184612693565b92915050565b6000602082840312156126d3576126d2611fb1565b5b60006126e1848285016120c6565b91505092915050565b600082825260208201905092915050565b7f5265656e7472616e637947756172643a207265656e7472616e742063616c6c00600082015250565b6000612731601f836126ea565b915061273c826126fb565b602082019050919050565b6000602082019050818103600083015261276081612724565b9050919050565b7f4164647265737365732063616e6e6f7420626520656d70747900000000000000600082015250565b600061279d6019836126ea565b91506127a882612767565b602082019050919050565b600060208201905081810360008301526127cc81612790565b9050919050565b7f4e487b7100000000000000000000000000000000000000000000000000000000600052601160045260246000fd5b600061280d8261237f565b91506128188361237f565b92508282101561282b5761282a6127d3565b5b828203905092915050565b60006128418261237f565b915061284c8361237f565b9250817fffffffffffffffffffffffffffffffffffffffffffffffffffffffffffffffff0483118215151615612885576128846127d3565b5b828202905092915050565b7f4e487b7100000000000000000000000000000000000000000000000000000000600052601260045260246000fd5b60006128ca8261237f565b91506128d58361237f565b9250826128e5576128e4612890565b5b828204905092915050565b7f4e487b7100000000000000000000000000000000000000000000000000000000600052603260045260246000fd5b600081905092915050565b50565b600061293a60008361291f565b91506129458261292a565b600082019050919050565b600061295b8261292d565b9150819050919050565b7f4661696c656420746f2073656e6420546f6b656e000000000000000000000000600082015250565b600061299b6014836126ea565b91506129a682612965565b602082019050919050565b600060208201905081810360008301526129ca8161298e565b9050919050565b600060ff82169050919050565b60006129e9826129d1565b915060ff8214156129fd576129fc6127d3565b5b600182019050919050565b7f416d6f756e74206d7573742062652067726561746572207468616e2030000000600082015250565b6000612a3e601d836126ea565b9150612a4982612a08565b602082019050919050565b60006020820190508181036000830152612a6d81612a31565b9050919050565b6000606082019050612a896000830186612693565b612a966020830185612693565b612aa36040830184612629565b949350505050565b612ab481612240565b8114612abf57600080fd5b50565b600081519050612ad181612aab565b92915050565b600060208284031215612aed57612aec611fb1565b5b6000612afb84828501612ac2565b91505092915050565b7f5472616e73666572206661696c65640000000000000000000000000000000000600082015250565b6000612b3a600f836126ea565b9150612b4582612b04565b602082019050919050565b60006020820190508181036000830152612b6981612b2d565b9050919050565b6000604082019050612b856000830185612693565b612b926020830184612629565b9392505050565b7f5472616e7366657220746f20726563697069656e74206661696c656400000000600082015250565b6000612bcf601c836126ea565b9150612bda82612b99565b602082019050919050565b60006020820190508181036000830152612bfe81612bc2565b9050919050565b7f416363657373436f6e74726f6c3a2063616e206f6e6c792072656e6f756e636560008201527f20726f6c657320666f722073656c660000000000000000000000000000000000602082015250565b6000612c61602f836126ea565b9150612c6c82612c05565b604082019050919050565b60006020820190508181036000830152612c9081612c54565b9050919050565b7f496e76616c696420616d6f756e742c2063616e6e6f742062652067726561746560008201527f72207468616e2031206574686572000000000000000000000000000000000000602082015250565b6000612cf3602e836126ea565b9150612cfe82612c97565b604082019050919050565b60006020820190508181036000830152612d2281612ce6565b9050919050565b7f4e6f7420656e6f756768207369676e6174757265730000000000000000000000600082015250565b6000612d5f6015836126ea565b9150612d6a82612d29565b602082019050919050565b60006020820190508181036000830152612d8e81612d52565b9050919050565b600080fd5b600080fd5b600080fd5b60008083356001602003843603038112612dc157612dc0612d95565b5b80840192508235915067ffffffffffffffff821115612de357612de2612d9a565b5b602083019250600182023603831315612dff57612dfe612d9f565b5b509250929050565b7f5369676e6572206973206e6f742061646d696e00000000000000000000000000600082015250565b6000612e3d6013836126ea565b9150612e4882612e07565b602082019050919050565b60006020820190508181036000830152612e6c81612e30565b9050919050565b6000612e7f838561291f565b9350612e8c8385846124ab565b82840190509392505050565b6000612ea5828486612e73565b91508190509392505050565b7f526570656174696e672061646d696e207369676e6174757265206e6f7420766160008201527f6c69640000000000000000000000000000000000000000000000000000000000602082015250565b6000612f0d6023836126ea565b9150612f1882612eb1565b604082019050919050565b60006020820190508181036000830152612f3c81612f00565b9050919050565b6000612f4e826129d1565b9150612f59836129d1565b92508260ff03821115612f6f57612f6e6127d3565b5b828201905092915050565b7f4e6f7420616c6c207369676e617475726573206172652076616c696400000000600082015250565b6000612fb0601c836126ea565b9150612fbb82612f7a565b602082019050919050565b60006020820190508181036000830152612fdf81612fa3565b9050919050565b600081519050612ff581612389565b92915050565b60008151905061300a81612280565b92915050565b6000806040838503121561302757613026611fb1565b5b600061303585828601612fe6565b925050602061304685828601612ffb565b9150509250929050565b7f48617368656420616d6f756e74206e6f742076616c6964000000000000000000600082015250565b60006130866017836126ea565b915061309182613050565b602082019050919050565b600060208201905081810360008301526130b581613079565b9050919050565b7f48617368656420726561736f6e206e6f742076616c6964000000000000000000600082015250565b60006130f26017836126ea565b91506130fd826130bc565b602082019050919050565b60006020820190508181036000830152613121816130e5565b9050919050565b7f4e6f7420656e6f7567682062616c616e636520746f2077697468647261770000600082015250565b600061315e601e836126ea565b915061316982613128565b602082019050919050565b6000602082019050818103600083015261318d81613151565b9050919050565b7f4661696c656420746f2077697468647261770000000000000000000000000000600082015250565b60006131ca6012836126ea565b91506131d582613194565b602082019050919050565b600060208201905081810360008301526131f9816131bd565b9050919050565b600081905092915050565b7f416363657373436f6e74726f6c3a206163636f756e7420000000000000000000600082015250565b6000613241601783613200565b915061324c8261320b565b601782019050919050565b600081519050919050565b60005b83811015613280578082015181840152602081019050613265565b8381111561328f576000848401525b50505050565b60006132a082613257565b6132aa8185613200565b93506132ba818560208601613262565b80840191505092915050565b7f206973206d697373696e6720726f6c6520000000000000000000000000000000600082015250565b60006132fc601183613200565b9150613307826132c6565b601182019050919050565b600061331d82613234565b91506133298285613295565b9150613334826132ef565b91506133408284613295565b91508190509392505050565b600061335782613257565b61336181856126ea565b9350613371818560208601613262565b61337a81611fc0565b840191505092915050565b6000602082019050818103600083015261339f818461334c565b905092915050565b7f19457468657265756d205369676e6564204d6573736167653a0a333200000000600082015250565b60006133dd601c83613200565b91506133e8826133a7565b601c82019050919050565b6000819050919050565b61340e61340982612276565b6133f3565b82525050565b600061341f826133d0565b915061342b82846133fd565b60208201915081905092915050565b60006134458261237f565b91506134508361237f565b9250827fffffffffffffffffffffffffffffffffffffffffffffffffffffffffffffffff03821115613485576134846127d3565b5b828201905092915050565b600061349b8261237f565b915060008214156134af576134ae6127d3565b5b600182039050919050565b7f537472696e67733a20686578206c656e67746820696e73756666696369656e74600082015250565b60006134f06020836126ea565b91506134fb826134ba565b602082019050919050565b6000602082019050818103600083015261351f816134e3565b9050919050565b7f4e487b7100000000000000000000000000000000000000000000000000000000600052602160045260246000fd5b7f45434453413a20696e76616c6964207369676e61747572650000000000000000600082015250565b600061358b6018836126ea565b915061359682613555565b602082019050919050565b600060208201905081810360008301526135ba8161357e565b9050919050565b7f45434453413a20696e76616c6964207369676e6174757265206c656e67746800600082015250565b60006135f7601f836126ea565b9150613602826135c1565b602082019050919050565b60006020820190508181036000830152613626816135ea565b9050919050565b7f45434453413a20696e76616c6964207369676e6174757265202773272076616c60008201527f7565000000000000000000000000000000000000000000000000000000000000602082015250565b60006136896022836126ea565b91506136948261362d565b604082019050919050565b600060208201905081810360008301526136b88161367c565b9050919050565b7f45434453413a20696e76616c6964207369676e6174757265202776272076616c60008201527f7565000000000000000000000000000000000000000000000000000000000000602082015250565b600061371b6022836126ea565b9150613726826136bf565b604082019050919050565b6000602082019050818103600083015261374a8161370e565b9050919050565b7f4e487b7100000000000000000000000000000000000000000000000000000000600052603160045260246000fd5b613789816129d1565b82525050565b60006080820190506137a460008301876122d9565b6137b16020830186613780565b6137be60408301856122d9565b6137cb60608301846122d9565b9594505050505056fea264697066735822122028809d131b263641734e7587bf113a61ddb02bcbeeb43f32c77a0c7de59ca74a64736f6c634300080a0033",
  "immutableReferences": {},
  "source": "// SPDX-License-Identifier: MIT\npragma solidity ^0.8.10;\n\nimport \"@openzeppelin/contracts/access/AccessControl.sol\";\nimport \"@openzeppelin/contracts/access/AccessControlEnumerable.sol\";\nimport \"@openzeppelin/contracts/utils/Address.sol\";\nimport \"@openzeppelin/contracts/utils/cryptography/ECDSA.sol\";\nimport \"@openzeppelin/contracts/security/ReentrancyGuard.sol\";\nimport \"@openzeppelin/contracts/interfaces/IERC20.sol\";\n\ncontract TipBot is AccessControlEnumerable, ReentrancyGuard {\n  using ECDSA for bytes32;\n  using Address for address;\n\n  // Start of events declaration\n  event Tip ( address indexed from,  address indexed toAddress, uint256 amount );\n  event TipToken ( address indexed from,  address indexed toAddress, uint256 amount );\n  event AirDrop ( address indexed from, address indexed toAddress, uint256 amount);\n  event Withdraw ( uint256 amount, bytes32 indexed reason);\n\n  // Global variables used in contract\n  uint256 public feeRate = 0.1 ether;\n  uint256 public airdropRate = 0.2 ether;\n\n  mapping( bytes => mapping(address => bool)) signatureLookup;\n\n  constructor(){\n    _setupRole(DEFAULT_ADMIN_ROLE, msg.sender);\n  }\n\n  function setFeeRate( uint256 _feeRate ) public onlyRole(DEFAULT_ADMIN_ROLE) {\n    require( _feeRate < 1 ether, \"Invalid amount, cannot be greater than 1 ether\");\n    feeRate = _feeRate;\n  }\n\n  function setAirdropRate( uint256 _feeRate ) public onlyRole(DEFAULT_ADMIN_ROLE) {\n    require( _feeRate < 1 ether, \"Invalid amount, cannot be greater than 1 ether\");\n    airdropRate = _feeRate;\n  }\n\n  function tip( address payable toAddress ) public payable nonReentrant {\n\n    uint256 newBalance = ((1 ether - feeRate) * msg.value)/1 ether;\n    (bool success, ) = toAddress.call{value: newBalance }(\"\");\n    require(success, \"Failed to send Token\");\n\n    emit Tip( \n      msg.sender,\n      toAddress,\n      newBalance\n    );\n  }\n\n  function tipByToken(address toAddress, IERC20 token,  uint256 amount) public nonReentrant{\n\n    require(amount > 0, \"Amount must be greater than 0\");\n    \n    bool success = token.transferFrom(msg.sender, address(this), amount);\n    require(success, \"Transfer failed\");\n\n    uint256 newBalance = ((1 ether - feeRate) * amount)/1 ether;\n\n    bool successTransfer = token.transfer(toAddress,newBalance);\n    require(successTransfer, \"Transfer to recipient failed\");\n\n    emit TipToken(\n      msg.sender,\n      toAddress,\n      newBalance\n    );\n  }\n\n\n  function airDrop ( \n    address payable[] memory accountAddress\n  ) public payable nonReentrant {\n\n    require(accountAddress.length > 0, \"Addresses cannot be empty\");\n    uint256 distributedAmount = ( ((1 ether - airdropRate) * msg.value ) / 1 ether ) / accountAddress.length;\n\n    for(uint8 i = 0; i < accountAddress.length; i++){\n\n    (bool success, ) = accountAddress[i].call{value: distributedAmount }(\"\");\n    require(success, \"Failed to send Token\");\n\n      emit AirDrop(\n        msg.sender,\n        accountAddress[i],\n        distributedAmount\n      );\n    }\n  }\n\n  function withdraw (\n    uint256 amount, \n    bytes32 reason,\n    bytes memory data,\n    bytes[] calldata signatures\n  ) public nonReentrant {\n\n    require( getRoleMemberCount(DEFAULT_ADMIN_ROLE) == signatures.length, \"Not enough signatures\");\n\n    // Extract and verify each signature is valid\n    bytes32 message = keccak256(data);\n    bytes32 hashed = message.toEthSignedMessageHash();\n\n    uint8 validSignatures = 0;\n\n    for (uint8 i = 0; i < signatures.length; i++) {\n        bytes calldata signature = signatures[i];\n        (address signer) = hashed.recover(signature);\n\n        require(hasRole(DEFAULT_ADMIN_ROLE, signer), \"Signer is not admin\");\n        require(!signatureLookup[signature][signer], \"Repeating admin signature not valid\");\n\n        validSignatures += 1;\n        signatureLookup[signature][signer] = true;\n    }\n\n    require( validSignatures == getRoleMemberCount(DEFAULT_ADMIN_ROLE), \"Not all signatures are valid\");\n\n    (uint256 decode_amount, bytes32 decode_reason) = abi.decode(data, (uint256, bytes32) );\n\n    require( decode_amount == amount, \"Hashed amount not valid\");\n    require( decode_reason == reason, \"Hashed reason not valid\");\n    \n    //Perform withdraw action\n    uint contractAmount = address(this).balance;\n    require( amount <= contractAmount, \"Not enough balance to withdraw\" );\n\n    uint256 distributedAmount =  amount / getRoleMemberCount(DEFAULT_ADMIN_ROLE);\n\n    for(uint8 i = 0; i < getRoleMemberCount(DEFAULT_ADMIN_ROLE); i++){\n      (bool success, ) = getRoleMember(DEFAULT_ADMIN_ROLE, i).call{value: distributedAmount }(\"\");\n      require( success, \"Failed to withdraw\" );\n    }\n\n    emit Withdraw(\n      distributedAmount, \n      reason\n    );\n  }\n\n}\n",
  "sourcePath": "/Users/raphaelm/Documents/work_folder/ted/syscoin-tip-bot/solidity/contracts/TipBot.sol",
  "compiler": {
    "name": "solc",
    "version": "0.8.10+commit.fc410830.Emscripten.clang"
  },
  "schemaVersion": "3.4.3",
  "updatedAt": "2022-06-17T09:49:12.335Z",
  "devdoc": {
    "kind": "dev",
    "methods": {
      "getRoleAdmin(bytes32)": {
        "details": "Returns the admin role that controls `role`. See {grantRole} and {revokeRole}. To change a role's admin, use {_setRoleAdmin}."
      },
      "getRoleMember(bytes32,uint256)": {
        "details": "Returns one of the accounts that have `role`. `index` must be a value between 0 and {getRoleMemberCount}, non-inclusive. Role bearers are not sorted in any particular way, and their ordering may change at any point. WARNING: When using {getRoleMember} and {getRoleMemberCount}, make sure you perform all queries on the same block. See the following https://forum.openzeppelin.com/t/iterating-over-elements-on-enumerableset-in-openzeppelin-contracts/2296[forum post] for more information."
      },
      "getRoleMemberCount(bytes32)": {
        "details": "Returns the number of accounts that have `role`. Can be used together with {getRoleMember} to enumerate all bearers of a role."
      },
      "grantRole(bytes32,address)": {
        "details": "Grants `role` to `account`. If `account` had not been already granted `role`, emits a {RoleGranted} event. Requirements: - the caller must have ``role``'s admin role."
      },
      "hasRole(bytes32,address)": {
        "details": "Returns `true` if `account` has been granted `role`."
      },
      "renounceRole(bytes32,address)": {
        "details": "Revokes `role` from the calling account. Roles are often managed via {grantRole} and {revokeRole}: this function's purpose is to provide a mechanism for accounts to lose their privileges if they are compromised (such as when a trusted device is misplaced). If the calling account had been revoked `role`, emits a {RoleRevoked} event. Requirements: - the caller must be `account`."
      },
      "revokeRole(bytes32,address)": {
        "details": "Revokes `role` from `account`. If `account` had been granted `role`, emits a {RoleRevoked} event. Requirements: - the caller must have ``role``'s admin role."
      },
      "supportsInterface(bytes4)": {
        "details": "See {IERC165-supportsInterface}."
      }
    },
    "version": 1
  },
  "userdoc": {
    "kind": "user",
    "methods": {},
    "version": 1
  }
}