{
  "contractName": "TipBot",
  "abi": [
    {
      "anonymous": false,
      "inputs": [
        {
          "indexed": true,
          "internalType": "address",
          "name": "from",
          "type": "address"
        },
        {
          "indexed": true,
          "internalType": "address",
          "name": "toAddress",
          "type": "address"
        },
        {
          "indexed": false,
          "internalType": "uint256",
          "name": "amount",
          "type": "uint256"
        }
      ],
      "name": "AirDrop",
      "type": "event"
    },
    {
      "anonymous": false,
      "inputs": [
        {
          "indexed": true,
          "internalType": "address",
          "name": "from",
          "type": "address"
        },
        {
          "indexed": true,
          "internalType": "address",
          "name": "toAddress",
          "type": "address"
        },
        {
          "indexed": false,
          "internalType": "uint256",
          "name": "amount",
          "type": "uint256"
        }
      ],
      "name": "AirDropToken",
      "type": "event"
    },
    {
      "anonymous": false,
      "inputs": [
        {
          "indexed": false,
          "internalType": "uint8",
          "name": "version",
          "type": "uint8"
        }
      ],
      "name": "Initialized",
      "type": "event"
    },
    {
      "anonymous": false,
      "inputs": [
        {
          "indexed": true,
          "internalType": "bytes32",
          "name": "role",
          "type": "bytes32"
        },
        {
          "indexed": true,
          "internalType": "bytes32",
          "name": "previousAdminRole",
          "type": "bytes32"
        },
        {
          "indexed": true,
          "internalType": "bytes32",
          "name": "newAdminRole",
          "type": "bytes32"
        }
      ],
      "name": "RoleAdminChanged",
      "type": "event"
    },
    {
      "anonymous": false,
      "inputs": [
        {
          "indexed": true,
          "internalType": "bytes32",
          "name": "role",
          "type": "bytes32"
        },
        {
          "indexed": true,
          "internalType": "address",
          "name": "account",
          "type": "address"
        },
        {
          "indexed": true,
          "internalType": "address",
          "name": "sender",
          "type": "address"
        }
      ],
      "name": "RoleGranted",
      "type": "event"
    },
    {
      "anonymous": false,
      "inputs": [
        {
          "indexed": true,
          "internalType": "bytes32",
          "name": "role",
          "type": "bytes32"
        },
        {
          "indexed": true,
          "internalType": "address",
          "name": "account",
          "type": "address"
        },
        {
          "indexed": true,
          "internalType": "address",
          "name": "sender",
          "type": "address"
        }
      ],
      "name": "RoleRevoked",
      "type": "event"
    },
    {
      "anonymous": false,
      "inputs": [
        {
          "indexed": true,
          "internalType": "address",
          "name": "from",
          "type": "address"
        },
        {
          "indexed": true,
          "internalType": "address",
          "name": "toAddress",
          "type": "address"
        },
        {
          "indexed": false,
          "internalType": "uint256",
          "name": "amount",
          "type": "uint256"
        }
      ],
      "name": "Tip",
      "type": "event"
    },
    {
      "anonymous": false,
      "inputs": [
        {
          "indexed": true,
          "internalType": "address",
          "name": "from",
          "type": "address"
        },
        {
          "indexed": true,
          "internalType": "address",
          "name": "toAddress",
          "type": "address"
        },
        {
          "indexed": false,
          "internalType": "uint256",
          "name": "amount",
          "type": "uint256"
        }
      ],
      "name": "TipToken",
      "type": "event"
    },
    {
      "anonymous": false,
      "inputs": [
        {
          "indexed": false,
          "internalType": "uint256",
          "name": "amount",
          "type": "uint256"
        },
        {
          "indexed": true,
          "internalType": "bytes32",
          "name": "reason",
          "type": "bytes32"
        }
      ],
      "name": "Withdraw",
      "type": "event"
    },
    {
      "inputs": [],
      "name": "DEFAULT_ADMIN_ROLE",
      "outputs": [
        {
          "internalType": "bytes32",
          "name": "",
          "type": "bytes32"
        }
      ],
      "stateMutability": "view",
      "type": "function"
    },
    {
      "inputs": [],
      "name": "airdropRate",
      "outputs": [
        {
          "internalType": "uint256",
          "name": "",
          "type": "uint256"
        }
      ],
      "stateMutability": "view",
      "type": "function"
    },
    {
      "inputs": [],
      "name": "feeRate",
      "outputs": [
        {
          "internalType": "uint256",
          "name": "",
          "type": "uint256"
        }
      ],
      "stateMutability": "view",
      "type": "function"
    },
    {
      "inputs": [
        {
          "internalType": "bytes32",
          "name": "role",
          "type": "bytes32"
        }
      ],
      "name": "getRoleAdmin",
      "outputs": [
        {
          "internalType": "bytes32",
          "name": "",
          "type": "bytes32"
        }
      ],
      "stateMutability": "view",
      "type": "function"
    },
    {
      "inputs": [
        {
          "internalType": "bytes32",
          "name": "role",
          "type": "bytes32"
        },
        {
          "internalType": "uint256",
          "name": "index",
          "type": "uint256"
        }
      ],
      "name": "getRoleMember",
      "outputs": [
        {
          "internalType": "address",
          "name": "",
          "type": "address"
        }
      ],
      "stateMutability": "view",
      "type": "function"
    },
    {
      "inputs": [
        {
          "internalType": "bytes32",
          "name": "role",
          "type": "bytes32"
        }
      ],
      "name": "getRoleMemberCount",
      "outputs": [
        {
          "internalType": "uint256",
          "name": "",
          "type": "uint256"
        }
      ],
      "stateMutability": "view",
      "type": "function"
    },
    {
      "inputs": [
        {
          "internalType": "bytes32",
          "name": "role",
          "type": "bytes32"
        },
        {
          "internalType": "address",
          "name": "account",
          "type": "address"
        }
      ],
      "name": "grantRole",
      "outputs": [],
      "stateMutability": "nonpayable",
      "type": "function"
    },
    {
      "inputs": [
        {
          "internalType": "bytes32",
          "name": "role",
          "type": "bytes32"
        },
        {
          "internalType": "address",
          "name": "account",
          "type": "address"
        }
      ],
      "name": "hasRole",
      "outputs": [
        {
          "internalType": "bool",
          "name": "",
          "type": "bool"
        }
      ],
      "stateMutability": "view",
      "type": "function"
    },
    {
      "inputs": [
        {
          "internalType": "bytes32",
          "name": "role",
          "type": "bytes32"
        },
        {
          "internalType": "address",
          "name": "account",
          "type": "address"
        }
      ],
      "name": "renounceRole",
      "outputs": [],
      "stateMutability": "nonpayable",
      "type": "function"
    },
    {
      "inputs": [
        {
          "internalType": "bytes32",
          "name": "role",
          "type": "bytes32"
        },
        {
          "internalType": "address",
          "name": "account",
          "type": "address"
        }
      ],
      "name": "revokeRole",
      "outputs": [],
      "stateMutability": "nonpayable",
      "type": "function"
    },
    {
      "inputs": [
        {
          "internalType": "bytes4",
          "name": "interfaceId",
          "type": "bytes4"
        }
      ],
      "name": "supportsInterface",
      "outputs": [
        {
          "internalType": "bool",
          "name": "",
          "type": "bool"
        }
      ],
      "stateMutability": "view",
      "type": "function"
    },
    {
      "inputs": [
        {
          "internalType": "uint256",
          "name": "_feeRate",
          "type": "uint256"
        },
        {
          "internalType": "uint256",
          "name": "_airdropRate",
          "type": "uint256"
        }
      ],
      "name": "init",
      "outputs": [],
      "stateMutability": "nonpayable",
      "type": "function"
    },
    {
      "inputs": [
        {
          "internalType": "uint256",
          "name": "_feeRate",
          "type": "uint256"
        }
      ],
      "name": "setFeeRate",
      "outputs": [],
      "stateMutability": "nonpayable",
      "type": "function"
    },
    {
      "inputs": [
        {
          "internalType": "uint256",
          "name": "_feeRate",
          "type": "uint256"
        }
      ],
      "name": "setAirdropRate",
      "outputs": [],
      "stateMutability": "nonpayable",
      "type": "function"
    },
    {
      "inputs": [
        {
          "internalType": "address payable",
          "name": "toAddress",
          "type": "address"
        }
      ],
      "name": "tip",
      "outputs": [],
      "stateMutability": "payable",
      "type": "function"
    },
    {
      "inputs": [
        {
          "internalType": "address",
          "name": "toAddress",
          "type": "address"
        },
        {
          "internalType": "contract IERC20",
          "name": "token",
          "type": "address"
        },
        {
          "internalType": "uint256",
          "name": "amount",
          "type": "uint256"
        }
      ],
      "name": "tipByToken",
      "outputs": [],
      "stateMutability": "nonpayable",
      "type": "function"
    },
    {
      "inputs": [
        {
          "internalType": "address payable[]",
          "name": "accountAddress",
          "type": "address[]"
        }
      ],
      "name": "airDrop",
      "outputs": [],
      "stateMutability": "payable",
      "type": "function"
    },
    {
      "inputs": [
        {
          "internalType": "address[]",
          "name": "accountAddress",
          "type": "address[]"
        },
        {
          "internalType": "contract IERC20",
          "name": "token",
          "type": "address"
        },
        {
          "internalType": "uint256",
          "name": "amount",
          "type": "uint256"
        }
      ],
      "name": "airDropToken",
      "outputs": [],
      "stateMutability": "nonpayable",
      "type": "function"
    },
    {
      "inputs": [
        {
          "internalType": "uint256",
          "name": "amount",
          "type": "uint256"
        },
        {
          "internalType": "bytes32",
          "name": "reason",
          "type": "bytes32"
        },
        {
          "internalType": "bytes",
          "name": "data",
          "type": "bytes"
        },
        {
          "internalType": "bytes[]",
          "name": "signatures",
          "type": "bytes[]"
        }
      ],
      "name": "withdraw",
      "outputs": [],
      "stateMutability": "nonpayable",
      "type": "function"
    }
  ],
  "bytecode": "0x608060405234801561001057600080fd5b5061401a806100206000396000f3fe6080604052600436106101135760003560e01c80639010d07c116100a0578063ac733ef711610064578063ac733ef71461039f578063ca15c873146103bb578063d547741f146103f8578063e1765ab814610421578063e357dffb1461044a57610113565b80639010d07c146102a657806391d14854146102e3578063978bbdb914610320578063a217fddf1461034b578063a5843f081461037657610113565b80632f2ff15d116100e75780632f2ff15d146101d757806336568abe1461020057806345596e2e146102295780637659b613146102525780638891cf0d1461027b57610113565b8062b6849f1461011857806301ffc9a714610134578063248a9ca3146101715780632dffff4a146101ae575b600080fd5b610132600480360381019061012d919061271e565b610473565b005b34801561014057600080fd5b5061015b600480360381019061015691906127bf565b6106c4565b6040516101689190612807565b60405180910390f35b34801561017d57600080fd5b5061019860048036038101906101939190612858565b61073e565b6040516101a59190612894565b60405180910390f35b3480156101ba57600080fd5b506101d560048036038101906101d09190612961565b61075d565b005b3480156101e357600080fd5b506101fe60048036038101906101f991906129b4565b610a21565b005b34801561020c57600080fd5b50610227600480360381019061022291906129b4565b610a4a565b005b34801561023557600080fd5b50610250600480360381019061024b91906129f4565b610acd565b005b34801561025e57600080fd5b5061027960048036038101906102749190612b31565b610b37565b005b34801561028757600080fd5b506102906110a6565b60405161029d9190612be4565b60405180910390f35b3480156102b257600080fd5b506102cd60048036038101906102c89190612bff565b6110ac565b6040516102da9190612c4e565b60405180910390f35b3480156102ef57600080fd5b5061030a600480360381019061030591906129b4565b6110db565b6040516103179190612807565b60405180910390f35b34801561032c57600080fd5b50610335611145565b6040516103429190612be4565b60405180910390f35b34801561035757600080fd5b5061036061114b565b60405161036d9190612894565b60405180910390f35b34801561038257600080fd5b5061039d60048036038101906103989190612c69565b611152565b005b6103b960048036038101906103b49190612ca9565b6111fa565b005b3480156103c757600080fd5b506103e260048036038101906103dd9190612858565b61139e565b6040516103ef9190612be4565b60405180910390f35b34801561040457600080fd5b5061041f600480360381019061041a91906129b4565b6113c2565b005b34801561042d57600080fd5b5061044860048036038101906104439190612d99565b6113eb565b005b34801561045657600080fd5b50610471600480360381019061046c91906129f4565b61175c565b005b600260035414156104b9576040517f08c379a00000000000000000000000000000000000000000000000000000000081526004016104b090612e65565b60405180910390fd5b60026003819055506000815111610505576040517f08c379a00000000000000000000000000000000000000000000000000000000081526004016104fc90612ed1565b60405180910390fd5b60008151670de0b6b3a764000034603654670de0b6b3a76400006105299190612f20565b6105339190612f54565b61053d9190612fdd565b6105479190612fdd565b905060005b82518160ff1610156106b7576000838260ff16815181106105705761056f61300e565b5b602002602001015173ffffffffffffffffffffffffffffffffffffffff168360405161059b9061306e565b60006040518083038185875af1925050503d80600081146105d8576040519150601f19603f3d011682016040523d82523d6000602084013e6105dd565b606091505b5050905080610621576040517f08c379a0000000000000000000000000000000000000000000000000000000008152600401610618906130cf565b60405180910390fd5b838260ff16815181106106375761063661300e565b5b602002602001015173ffffffffffffffffffffffffffffffffffffffff163373ffffffffffffffffffffffffffffffffffffffff167f44347b1aec7858b9ab924df67243a402f4afd5e7d5f045176cde4c521350b88b8560405161069b9190612be4565b60405180910390a35080806106af906130fc565b91505061054c565b5050600160038190555050565b60007f5a05180f000000000000000000000000000000000000000000000000000000007bffffffffffffffffffffffffffffffffffffffffffffffffffffffff1916827bffffffffffffffffffffffffffffffffffffffffffffffffffffffff191614806107375750610736826117c6565b5b9050919050565b6000806000838152602001908152602001600020600101549050919050565b600260035414156107a3576040517f08c379a000000000000000000000000000000000000000000000000000000000815260040161079a90612e65565b60405180910390fd5b6002600381905550600081116107ee576040517f08c379a00000000000000000000000000000000000000000000000000000000081526004016107e590613172565b60405180910390fd5b60008273ffffffffffffffffffffffffffffffffffffffff166323b872dd3330856040518463ffffffff1660e01b815260040161082d93929190613192565b6020604051808303816000875af115801561084c573d6000803e3d6000fd5b505050506040513d601f19601f8201168201806040525081019061087091906131f5565b9050806108b2576040517f08c379a00000000000000000000000000000000000000000000000000000000081526004016108a99061326e565b60405180910390fd5b6000670de0b6b3a764000083603554670de0b6b3a76400006108d49190612f20565b6108de9190612f54565b6108e89190612fdd565b905060008473ffffffffffffffffffffffffffffffffffffffff1663a9059cbb87846040518363ffffffff1660e01b815260040161092792919061328e565b6020604051808303816000875af1158015610946573d6000803e3d6000fd5b505050506040513d601f19601f8201168201806040525081019061096a91906131f5565b9050806109ac576040517f08c379a00000000000000000000000000000000000000000000000000000000081526004016109a390613303565b60405180910390fd5b8573ffffffffffffffffffffffffffffffffffffffff163373ffffffffffffffffffffffffffffffffffffffff167fa1a592f6d33ec9726b8ac400d4b12522256902498feb99b97e13f86b88a9632184604051610a099190612be4565b60405180910390a35050506001600381905550505050565b610a2a8261073e565b610a3b81610a36611840565b611848565b610a4583836118e5565b505050565b610a52611840565b73ffffffffffffffffffffffffffffffffffffffff168173ffffffffffffffffffffffffffffffffffffffff1614610abf576040517f08c379a0000000000000000000000000000000000000000000000000000000008152600401610ab690613395565b60405180910390fd5b610ac98282611919565b5050565b6000801b610ae281610add611840565b611848565b670de0b6b3a76400008210610b2c576040517f08c379a0000000000000000000000000000000000000000000000000000000008152600401610b2390613427565b60405180910390fd5b816035819055505050565b60026003541415610b7d576040517f08c379a0000000000000000000000000000000000000000000000000000000008152600401610b7490612e65565b60405180910390fd5b600260038190555081819050610b956000801b61139e565b14610bd5576040517f08c379a0000000000000000000000000000000000000000000000000000000008152600401610bcc90613493565b60405180910390fd5b6000838051906020012090506000610bec8261194d565b90506000805b858590508160ff161015610e1c5736600087878460ff16818110610c1957610c1861300e565b5b9050602002810190610c2b91906134c2565b915091506000610c8883838080601f016020809104026020016040519081016040528093929190818152602001838380828437600081840152601f19601f820116905080830192505050505050508761197d90919063ffffffff16565b9050610c976000801b826110db565b610cd6576040517f08c379a0000000000000000000000000000000000000000000000000000000008152600401610ccd90613571565b60405180910390fd5b60378383604051610ce89291906135b6565b908152602001604051809103902060008273ffffffffffffffffffffffffffffffffffffffff1673ffffffffffffffffffffffffffffffffffffffff16815260200190815260200160002060009054906101000a900460ff1615610d81576040517f08c379a0000000000000000000000000000000000000000000000000000000008152600401610d7890613641565b60405180910390fd5b600185610d8e9190613661565b9450600160378484604051610da49291906135b6565b908152602001604051809103902060008373ffffffffffffffffffffffffffffffffffffffff1673ffffffffffffffffffffffffffffffffffffffff16815260200190815260200160002060006101000a81548160ff0219169083151502179055505050508080610e14906130fc565b915050610bf2565b50610e296000801b61139e565b8160ff1614610e6d576040517f08c379a0000000000000000000000000000000000000000000000000000000008152600401610e64906136e4565b60405180910390fd5b60008087806020019051810190610e84919061372e565b91509150898214610eca576040517f08c379a0000000000000000000000000000000000000000000000000000000008152600401610ec1906137ba565b60405180910390fd5b888114610f0c576040517f08c379a0000000000000000000000000000000000000000000000000000000008152600401610f0390613826565b60405180910390fd5b6000479050808b1115610f54576040517f08c379a0000000000000000000000000000000000000000000000000000000008152600401610f4b90613892565b60405180910390fd5b6000610f626000801b61139e565b8c610f6d9190612fdd565b905060005b610f7e6000801b61139e565b8160ff161015611057576000610f9a6000801b8360ff166110ac565b73ffffffffffffffffffffffffffffffffffffffff1683604051610fbd9061306e565b60006040518083038185875af1925050503d8060008114610ffa576040519150601f19603f3d011682016040523d82523d6000602084013e610fff565b606091505b5050905080611043576040517f08c379a000000000000000000000000000000000000000000000000000000000815260040161103a906138fe565b60405180910390fd5b50808061104f906130fc565b915050610f72565b508a7f7403cafb32164b082ee581e5bd17d85dd82f2e64cdd8bd729ea9435928f7433a826040516110889190612be4565b60405180910390a25050505050505060016003819055505050505050565b60365481565b60006110d382600260008681526020019081526020016000206119a490919063ffffffff16565b905092915050565b600080600084815260200190815260200160002060000160008373ffffffffffffffffffffffffffffffffffffffff1673ffffffffffffffffffffffffffffffffffffffff16815260200190815260200160002060009054906101000a900460ff16905092915050565b60355481565b6000801b81565b600061115e60016119be565b905080156111815760018060016101000a81548160ff0219169083151502179055505b61118e6000801b33611ab0565b826035819055508160368190555080156111f55760006001806101000a81548160ff0219169083151502179055507f7f26b83ff96e1f2b6a682f133852f6798a09c465da95921460cefb384740249860016040516111ec9190613963565b60405180910390a15b505050565b60026003541415611240576040517f08c379a000000000000000000000000000000000000000000000000000000000815260040161123790612e65565b60405180910390fd5b60026003819055506000670de0b6b3a764000034603554670de0b6b3a764000061126a9190612f20565b6112749190612f54565b61127e9190612fdd565b905060008273ffffffffffffffffffffffffffffffffffffffff16826040516112a69061306e565b60006040518083038185875af1925050503d80600081146112e3576040519150601f19603f3d011682016040523d82523d6000602084013e6112e8565b606091505b505090508061132c576040517f08c379a0000000000000000000000000000000000000000000000000000000008152600401611323906130cf565b60405180910390fd5b8273ffffffffffffffffffffffffffffffffffffffff163373ffffffffffffffffffffffffffffffffffffffff167fcbefbf6a902aa93a9aafdd30aefd16e61f6c015bbf5fcaccfdf1d29d0c84e7d0846040516113899190612be4565b60405180910390a35050600160038190555050565b60006113bb60026000848152602001908152602001600020611abe565b9050919050565b6113cb8261073e565b6113dc816113d7611840565b611848565b6113e68383611919565b505050565b60026003541415611431576040517f08c379a000000000000000000000000000000000000000000000000000000000815260040161142890612e65565b60405180910390fd5b60026003819055506000811161147c576040517f08c379a000000000000000000000000000000000000000000000000000000000815260040161147390613172565b60405180910390fd5b60008351116114c0576040517f08c379a00000000000000000000000000000000000000000000000000000000081526004016114b790612ed1565b60405180910390fd5b60008273ffffffffffffffffffffffffffffffffffffffff166323b872dd3330856040518463ffffffff1660e01b81526004016114ff93929190613192565b6020604051808303816000875af115801561151e573d6000803e3d6000fd5b505050506040513d601f19601f8201168201806040525081019061154291906131f5565b905080611584576040517f08c379a000000000000000000000000000000000000000000000000000000000815260040161157b9061326e565b60405180910390fd5b60008451670de0b6b3a764000084603654670de0b6b3a76400006115a89190612f20565b6115b29190612f54565b6115bc9190612fdd565b6115c69190612fdd565b905060005b85518160ff16101561174c5760008573ffffffffffffffffffffffffffffffffffffffff1663a9059cbb888460ff168151811061160b5761160a61300e565b5b6020026020010151856040518363ffffffff1660e01b815260040161163192919061328e565b6020604051808303816000875af1158015611650573d6000803e3d6000fd5b505050506040513d601f19601f8201168201806040525081019061167491906131f5565b9050806116b6576040517f08c379a00000000000000000000000000000000000000000000000000000000081526004016116ad906130cf565b60405180910390fd5b868260ff16815181106116cc576116cb61300e565b5b602002602001015173ffffffffffffffffffffffffffffffffffffffff163373ffffffffffffffffffffffffffffffffffffffff167f7f872650de37b7b8f60194fd393eee0c77c163929a8bd729ad0fbedb48d6e12d856040516117309190612be4565b60405180910390a3508080611744906130fc565b9150506115cb565b5050506001600381905550505050565b6000801b6117718161176c611840565b611848565b670de0b6b3a764000082106117bb576040517f08c379a00000000000000000000000000000000000000000000000000000000081526004016117b290613427565b60405180910390fd5b816036819055505050565b60007f7965db0b000000000000000000000000000000000000000000000000000000007bffffffffffffffffffffffffffffffffffffffffffffffffffffffff1916827bffffffffffffffffffffffffffffffffffffffffffffffffffffffff19161480611839575061183882611ad3565b5b9050919050565b600033905090565b61185282826110db565b6118e1576118778173ffffffffffffffffffffffffffffffffffffffff166014611b3d565b6118858360001c6020611b3d565b604051602001611896929190613a90565b6040516020818303038152906040526040517f08c379a00000000000000000000000000000000000000000000000000000000081526004016118d89190613b03565b60405180910390fd5b5050565b6118ef8282611d79565b6119148160026000858152602001908152602001600020611e5990919063ffffffff16565b505050565b6119238282611e89565b6119488160026000858152602001908152602001600020611f6a90919063ffffffff16565b505050565b6000816040516020016119609190613b92565b604051602081830303815290604052805190602001209050919050565b600080600061198c8585611f9a565b915091506119998161201d565b819250505092915050565b60006119b383600001836121f2565b60001c905092915050565b600060018054906101000a900460ff1615611a345760018260ff161480156119ec57506119ea3061221d565b155b611a2b576040517f08c379a0000000000000000000000000000000000000000000000000000000008152600401611a2290613c2a565b60405180910390fd5b60009050611aab565b8160ff16600160009054906101000a900460ff1660ff1610611a8b576040517f08c379a0000000000000000000000000000000000000000000000000000000008152600401611a8290613c2a565b60405180910390fd5b81600160006101000a81548160ff021916908360ff160217905550600190505b919050565b611aba82826118e5565b5050565b6000611acc82600001612240565b9050919050565b60007f01ffc9a7000000000000000000000000000000000000000000000000000000007bffffffffffffffffffffffffffffffffffffffffffffffffffffffff1916827bffffffffffffffffffffffffffffffffffffffffffffffffffffffff1916149050919050565b606060006002836002611b509190612f54565b611b5a9190613c4a565b67ffffffffffffffff811115611b7357611b7261257d565b5b6040519080825280601f01601f191660200182016040528015611ba55781602001600182028036833780820191505090505b5090507f300000000000000000000000000000000000000000000000000000000000000081600081518110611bdd57611bdc61300e565b5b60200101907effffffffffffffffffffffffffffffffffffffffffffffffffffffffffffff1916908160001a9053507f780000000000000000000000000000000000000000000000000000000000000081600181518110611c4157611c4061300e565b5b60200101907effffffffffffffffffffffffffffffffffffffffffffffffffffffffffffff1916908160001a90535060006001846002611c819190612f54565b611c8b9190613c4a565b90505b6001811115611d2b577f3031323334353637383961626364656600000000000000000000000000000000600f861660108110611ccd57611ccc61300e565b5b1a60f81b828281518110611ce457611ce361300e565b5b60200101907effffffffffffffffffffffffffffffffffffffffffffffffffffffffffffff1916908160001a905350600485901c945080611d2490613ca0565b9050611c8e565b5060008414611d6f576040517f08c379a0000000000000000000000000000000000000000000000000000000008152600401611d6690613d16565b60405180910390fd5b8091505092915050565b611d8382826110db565b611e5557600160008084815260200190815260200160002060000160008373ffffffffffffffffffffffffffffffffffffffff1673ffffffffffffffffffffffffffffffffffffffff16815260200190815260200160002060006101000a81548160ff021916908315150217905550611dfa611840565b73ffffffffffffffffffffffffffffffffffffffff168173ffffffffffffffffffffffffffffffffffffffff16837f2f8788117e7eff1d82e926ec794901d17c78024a50270940304540a733656f0d60405160405180910390a45b5050565b6000611e81836000018373ffffffffffffffffffffffffffffffffffffffff1660001b612251565b905092915050565b611e9382826110db565b15611f6657600080600084815260200190815260200160002060000160008373ffffffffffffffffffffffffffffffffffffffff1673ffffffffffffffffffffffffffffffffffffffff16815260200190815260200160002060006101000a81548160ff021916908315150217905550611f0b611840565b73ffffffffffffffffffffffffffffffffffffffff168173ffffffffffffffffffffffffffffffffffffffff16837ff6391f5c32d9c69d2a47ea670b442974b53935d1edc7fd64eb21e047a839171b60405160405180910390a45b5050565b6000611f92836000018373ffffffffffffffffffffffffffffffffffffffff1660001b6122c1565b905092915050565b600080604183511415611fdc5760008060006020860151925060408601519150606086015160001a9050611fd0878285856123d5565b94509450505050612016565b60408351141561200d5760008060208501519150604085015190506120028683836124e2565b935093505050612016565b60006002915091505b9250929050565b6000600481111561203157612030613d36565b5b81600481111561204457612043613d36565b5b141561204f576121ef565b6001600481111561206357612062613d36565b5b81600481111561207657612075613d36565b5b14156120b7576040517f08c379a00000000000000000000000000000000000000000000000000000000081526004016120ae90613db1565b60405180910390fd5b600260048111156120cb576120ca613d36565b5b8160048111156120de576120dd613d36565b5b141561211f576040517f08c379a000000000000000000000000000000000000000000000000000000000815260040161211690613e1d565b60405180910390fd5b6003600481111561213357612132613d36565b5b81600481111561214657612145613d36565b5b1415612187576040517f08c379a000000000000000000000000000000000000000000000000000000000815260040161217e90613eaf565b60405180910390fd5b60048081111561219a57612199613d36565b5b8160048111156121ad576121ac613d36565b5b14156121ee576040517f08c379a00000000000000000000000000000000000000000000000000000000081526004016121e590613f41565b60405180910390fd5b5b50565b600082600001828154811061220a5761220961300e565b5b9060005260206000200154905092915050565b6000808273ffffffffffffffffffffffffffffffffffffffff163b119050919050565b600081600001805490509050919050565b600061225d8383612530565b6122b65782600001829080600181540180825580915050600190039060005260206000200160009091909190915055826000018054905083600101600084815260200190815260200160002081905550600190506122bb565b600090505b92915050565b600080836001016000848152602001908152602001600020549050600081146123c95760006001826122f39190612f20565b905060006001866000018054905061230b9190612f20565b905081811461237a57600086600001828154811061232c5761232b61300e565b5b90600052602060002001549050808760000184815481106123505761234f61300e565b5b90600052602060002001819055508387600101600083815260200190815260200160002081905550505b8560000180548061238e5761238d613f61565b5b6001900381819060005260206000200160009055905585600101600086815260200190815260200160002060009055600193505050506123cf565b60009150505b92915050565b6000807f7fffffffffffffffffffffffffffffff5d576e7357a4501ddfe92f46681b20a08360001c11156124105760006003915091506124d9565b601b8560ff16141580156124285750601c8560ff1614155b1561243a5760006004915091506124d9565b60006001878787876040516000815260200160405260405161245f9493929190613f9f565b6020604051602081039080840390855afa158015612481573d6000803e3d6000fd5b505050602060405103519050600073ffffffffffffffffffffffffffffffffffffffff168173ffffffffffffffffffffffffffffffffffffffff1614156124d0576000600192509250506124d9565b80600092509250505b94509492505050565b6000806000807f7fffffffffffffffffffffffffffffffffffffffffffffffffffffffffffffff85169150601b8560ff1c019050612522878288856123d5565b935093505050935093915050565b600080836001016000848152602001908152602001600020541415905092915050565b6000604051905090565b600080fd5b600080fd5b600080fd5b6000601f19601f8301169050919050565b7f4e487b7100000000000000000000000000000000000000000000000000000000600052604160045260246000fd5b6125b58261256c565b810181811067ffffffffffffffff821117156125d4576125d361257d565b5b80604052505050565b60006125e7612553565b90506125f382826125ac565b919050565b600067ffffffffffffffff8211156126135761261261257d565b5b602082029050602081019050919050565b600080fd5b600073ffffffffffffffffffffffffffffffffffffffff82169050919050565b600061265482612629565b9050919050565b61266481612649565b811461266f57600080fd5b50565b6000813590506126818161265b565b92915050565b600061269a612695846125f8565b6125dd565b905080838252602082019050602084028301858111156126bd576126bc612624565b5b835b818110156126e657806126d28882612672565b8452602084019350506020810190506126bf565b5050509392505050565b600082601f83011261270557612704612567565b5b8135612715848260208601612687565b91505092915050565b6000602082840312156127345761273361255d565b5b600082013567ffffffffffffffff81111561275257612751612562565b5b61275e848285016126f0565b91505092915050565b60007fffffffff0000000000000000000000000000000000000000000000000000000082169050919050565b61279c81612767565b81146127a757600080fd5b50565b6000813590506127b981612793565b92915050565b6000602082840312156127d5576127d461255d565b5b60006127e3848285016127aa565b91505092915050565b60008115159050919050565b612801816127ec565b82525050565b600060208201905061281c60008301846127f8565b92915050565b6000819050919050565b61283581612822565b811461284057600080fd5b50565b6000813590506128528161282c565b92915050565b60006020828403121561286e5761286d61255d565b5b600061287c84828501612843565b91505092915050565b61288e81612822565b82525050565b60006020820190506128a96000830184612885565b92915050565b60006128ba82612629565b9050919050565b6128ca816128af565b81146128d557600080fd5b50565b6000813590506128e7816128c1565b92915050565b60006128f8826128af565b9050919050565b612908816128ed565b811461291357600080fd5b50565b600081359050612925816128ff565b92915050565b6000819050919050565b61293e8161292b565b811461294957600080fd5b50565b60008135905061295b81612935565b92915050565b60008060006060848603121561297a5761297961255d565b5b6000612988868287016128d8565b935050602061299986828701612916565b92505060406129aa8682870161294c565b9150509250925092565b600080604083850312156129cb576129ca61255d565b5b60006129d985828601612843565b92505060206129ea858286016128d8565b9150509250929050565b600060208284031215612a0a57612a0961255d565b5b6000612a188482850161294c565b91505092915050565b600080fd5b600067ffffffffffffffff821115612a4157612a4061257d565b5b612a4a8261256c565b9050602081019050919050565b82818337600083830152505050565b6000612a79612a7484612a26565b6125dd565b905082815260208101848484011115612a9557612a94612a21565b5b612aa0848285612a57565b509392505050565b600082601f830112612abd57612abc612567565b5b8135612acd848260208601612a66565b91505092915050565b600080fd5b60008083601f840112612af157612af0612567565b5b8235905067ffffffffffffffff811115612b0e57612b0d612ad6565b5b602083019150836020820283011115612b2a57612b29612624565b5b9250929050565b600080600080600060808688031215612b4d57612b4c61255d565b5b6000612b5b8882890161294c565b9550506020612b6c88828901612843565b945050604086013567ffffffffffffffff811115612b8d57612b8c612562565b5b612b9988828901612aa8565b935050606086013567ffffffffffffffff811115612bba57612bb9612562565b5b612bc688828901612adb565b92509250509295509295909350565b612bde8161292b565b82525050565b6000602082019050612bf96000830184612bd5565b92915050565b60008060408385031215612c1657612c1561255d565b5b6000612c2485828601612843565b9250506020612c358582860161294c565b9150509250929050565b612c48816128af565b82525050565b6000602082019050612c636000830184612c3f565b92915050565b60008060408385031215612c8057612c7f61255d565b5b6000612c8e8582860161294c565b9250506020612c9f8582860161294c565b9150509250929050565b600060208284031215612cbf57612cbe61255d565b5b6000612ccd84828501612672565b91505092915050565b600067ffffffffffffffff821115612cf157612cf061257d565b5b602082029050602081019050919050565b6000612d15612d1084612cd6565b6125dd565b90508083825260208201905060208402830185811115612d3857612d37612624565b5b835b81811015612d615780612d4d88826128d8565b845260208401935050602081019050612d3a565b5050509392505050565b600082601f830112612d8057612d7f612567565b5b8135612d90848260208601612d02565b91505092915050565b600080600060608486031215612db257612db161255d565b5b600084013567ffffffffffffffff811115612dd057612dcf612562565b5b612ddc86828701612d6b565b9350506020612ded86828701612916565b9250506040612dfe8682870161294c565b9150509250925092565b600082825260208201905092915050565b7f5265656e7472616e637947756172643a207265656e7472616e742063616c6c00600082015250565b6000612e4f601f83612e08565b9150612e5a82612e19565b602082019050919050565b60006020820190508181036000830152612e7e81612e42565b9050919050565b7f4164647265737365732063616e6e6f7420626520656d70747900000000000000600082015250565b6000612ebb601983612e08565b9150612ec682612e85565b602082019050919050565b60006020820190508181036000830152612eea81612eae565b9050919050565b7f4e487b7100000000000000000000000000000000000000000000000000000000600052601160045260246000fd5b6000612f2b8261292b565b9150612f368361292b565b925082821015612f4957612f48612ef1565b5b828203905092915050565b6000612f5f8261292b565b9150612f6a8361292b565b9250817fffffffffffffffffffffffffffffffffffffffffffffffffffffffffffffffff0483118215151615612fa357612fa2612ef1565b5b828202905092915050565b7f4e487b7100000000000000000000000000000000000000000000000000000000600052601260045260246000fd5b6000612fe88261292b565b9150612ff38361292b565b92508261300357613002612fae565b5b828204905092915050565b7f4e487b7100000000000000000000000000000000000000000000000000000000600052603260045260246000fd5b600081905092915050565b50565b600061305860008361303d565b915061306382613048565b600082019050919050565b60006130798261304b565b9150819050919050565b7f4661696c656420746f2073656e6420546f6b656e000000000000000000000000600082015250565b60006130b9601483612e08565b91506130c482613083565b602082019050919050565b600060208201905081810360008301526130e8816130ac565b9050919050565b600060ff82169050919050565b6000613107826130ef565b915060ff82141561311b5761311a612ef1565b5b600182019050919050565b7f416d6f756e74206d7573742062652067726561746572207468616e2030000000600082015250565b600061315c601d83612e08565b915061316782613126565b602082019050919050565b6000602082019050818103600083015261318b8161314f565b9050919050565b60006060820190506131a76000830186612c3f565b6131b46020830185612c3f565b6131c16040830184612bd5565b949350505050565b6131d2816127ec565b81146131dd57600080fd5b50565b6000815190506131ef816131c9565b92915050565b60006020828403121561320b5761320a61255d565b5b6000613219848285016131e0565b91505092915050565b7f5472616e73666572206661696c65640000000000000000000000000000000000600082015250565b6000613258600f83612e08565b915061326382613222565b602082019050919050565b600060208201905081810360008301526132878161324b565b9050919050565b60006040820190506132a36000830185612c3f565b6132b06020830184612bd5565b9392505050565b7f5472616e7366657220746f20726563697069656e74206661696c656400000000600082015250565b60006132ed601c83612e08565b91506132f8826132b7565b602082019050919050565b6000602082019050818103600083015261331c816132e0565b9050919050565b7f416363657373436f6e74726f6c3a2063616e206f6e6c792072656e6f756e636560008201527f20726f6c657320666f722073656c660000000000000000000000000000000000602082015250565b600061337f602f83612e08565b915061338a82613323565b604082019050919050565b600060208201905081810360008301526133ae81613372565b9050919050565b7f496e76616c696420616d6f756e742c2063616e6e6f742062652067726561746560008201527f72207468616e2031206574686572000000000000000000000000000000000000602082015250565b6000613411602e83612e08565b915061341c826133b5565b604082019050919050565b6000602082019050818103600083015261344081613404565b9050919050565b7f4e6f7420656e6f756768207369676e6174757265730000000000000000000000600082015250565b600061347d601583612e08565b915061348882613447565b602082019050919050565b600060208201905081810360008301526134ac81613470565b9050919050565b600080fd5b600080fd5b600080fd5b600080833560016020038436030381126134df576134de6134b3565b5b80840192508235915067ffffffffffffffff821115613501576135006134b8565b5b60208301925060018202360383131561351d5761351c6134bd565b5b509250929050565b7f5369676e6572206973206e6f742061646d696e00000000000000000000000000600082015250565b600061355b601383612e08565b915061356682613525565b602082019050919050565b6000602082019050818103600083015261358a8161354e565b9050919050565b600061359d838561303d565b93506135aa838584612a57565b82840190509392505050565b60006135c3828486613591565b91508190509392505050565b7f526570656174696e672061646d696e207369676e6174757265206e6f7420766160008201527f6c69640000000000000000000000000000000000000000000000000000000000602082015250565b600061362b602383612e08565b9150613636826135cf565b604082019050919050565b6000602082019050818103600083015261365a8161361e565b9050919050565b600061366c826130ef565b9150613677836130ef565b92508260ff0382111561368d5761368c612ef1565b5b828201905092915050565b7f4e6f7420616c6c207369676e617475726573206172652076616c696400000000600082015250565b60006136ce601c83612e08565b91506136d982613698565b602082019050919050565b600060208201905081810360008301526136fd816136c1565b9050919050565b60008151905061371381612935565b92915050565b6000815190506137288161282c565b92915050565b600080604083850312156137455761374461255d565b5b600061375385828601613704565b925050602061376485828601613719565b9150509250929050565b7f48617368656420616d6f756e74206e6f742076616c6964000000000000000000600082015250565b60006137a4601783612e08565b91506137af8261376e565b602082019050919050565b600060208201905081810360008301526137d381613797565b9050919050565b7f48617368656420726561736f6e206e6f742076616c6964000000000000000000600082015250565b6000613810601783612e08565b915061381b826137da565b602082019050919050565b6000602082019050818103600083015261383f81613803565b9050919050565b7f4e6f7420656e6f7567682062616c616e636520746f2077697468647261770000600082015250565b600061387c601e83612e08565b915061388782613846565b602082019050919050565b600060208201905081810360008301526138ab8161386f565b9050919050565b7f4661696c656420746f2077697468647261770000000000000000000000000000600082015250565b60006138e8601283612e08565b91506138f3826138b2565b602082019050919050565b60006020820190508181036000830152613917816138db565b9050919050565b6000819050919050565b6000819050919050565b600061394d6139486139438461391e565b613928565b6130ef565b9050919050565b61395d81613932565b82525050565b60006020820190506139786000830184613954565b92915050565b600081905092915050565b7f416363657373436f6e74726f6c3a206163636f756e7420000000000000000000600082015250565b60006139bf60178361397e565b91506139ca82613989565b601782019050919050565b600081519050919050565b60005b838110156139fe5780820151818401526020810190506139e3565b83811115613a0d576000848401525b50505050565b6000613a1e826139d5565b613a28818561397e565b9350613a388185602086016139e0565b80840191505092915050565b7f206973206d697373696e6720726f6c6520000000000000000000000000000000600082015250565b6000613a7a60118361397e565b9150613a8582613a44565b601182019050919050565b6000613a9b826139b2565b9150613aa78285613a13565b9150613ab282613a6d565b9150613abe8284613a13565b91508190509392505050565b6000613ad5826139d5565b613adf8185612e08565b9350613aef8185602086016139e0565b613af88161256c565b840191505092915050565b60006020820190508181036000830152613b1d8184613aca565b905092915050565b7f19457468657265756d205369676e6564204d6573736167653a0a333200000000600082015250565b6000613b5b601c8361397e565b9150613b6682613b25565b601c82019050919050565b6000819050919050565b613b8c613b8782612822565b613b71565b82525050565b6000613b9d82613b4e565b9150613ba98284613b7b565b60208201915081905092915050565b7f496e697469616c697a61626c653a20636f6e747261637420697320616c72656160008201527f647920696e697469616c697a6564000000000000000000000000000000000000602082015250565b6000613c14602e83612e08565b9150613c1f82613bb8565b604082019050919050565b60006020820190508181036000830152613c4381613c07565b9050919050565b6000613c558261292b565b9150613c608361292b565b9250827fffffffffffffffffffffffffffffffffffffffffffffffffffffffffffffffff03821115613c9557613c94612ef1565b5b828201905092915050565b6000613cab8261292b565b91506000821415613cbf57613cbe612ef1565b5b600182039050919050565b7f537472696e67733a20686578206c656e67746820696e73756666696369656e74600082015250565b6000613d00602083612e08565b9150613d0b82613cca565b602082019050919050565b60006020820190508181036000830152613d2f81613cf3565b9050919050565b7f4e487b7100000000000000000000000000000000000000000000000000000000600052602160045260246000fd5b7f45434453413a20696e76616c6964207369676e61747572650000000000000000600082015250565b6000613d9b601883612e08565b9150613da682613d65565b602082019050919050565b60006020820190508181036000830152613dca81613d8e565b9050919050565b7f45434453413a20696e76616c6964207369676e6174757265206c656e67746800600082015250565b6000613e07601f83612e08565b9150613e1282613dd1565b602082019050919050565b60006020820190508181036000830152613e3681613dfa565b9050919050565b7f45434453413a20696e76616c6964207369676e6174757265202773272076616c60008201527f7565000000000000000000000000000000000000000000000000000000000000602082015250565b6000613e99602283612e08565b9150613ea482613e3d565b604082019050919050565b60006020820190508181036000830152613ec881613e8c565b9050919050565b7f45434453413a20696e76616c6964207369676e6174757265202776272076616c60008201527f7565000000000000000000000000000000000000000000000000000000000000602082015250565b6000613f2b602283612e08565b9150613f3682613ecf565b604082019050919050565b60006020820190508181036000830152613f5a81613f1e565b9050919050565b7f4e487b7100000000000000000000000000000000000000000000000000000000600052603160045260246000fd5b613f99816130ef565b82525050565b6000608082019050613fb46000830187612885565b613fc16020830186613f90565b613fce6040830185612885565b613fdb6060830184612885565b9594505050505056fea26469706673582212204fca3b30ce5ca99bff15d704dd407300b37447a24164435499f5c21a2672b6ab64736f6c634300080a0033",
  "immutableReferences": {},
  "source": "// SPDX-License-Identifier: MIT\npragma solidity ^0.8.10;\n\nimport \"@openzeppelin/contracts/access/AccessControl.sol\";\nimport \"@openzeppelin/contracts/access/AccessControlEnumerable.sol\";\nimport \"@openzeppelin/contracts-upgradeable/utils/AddressUpgradeable.sol\";\nimport \"@openzeppelin/contracts/utils/cryptography/ECDSA.sol\";\nimport \"@openzeppelin/contracts-upgradeable/security/ReentrancyGuardUpgradeable.sol\";\nimport \"@openzeppelin/contracts/interfaces/IERC20.sol\";\nimport \"@openzeppelin/contracts-upgradeable/proxy/utils/Initializable.sol\";\n\n\ncontract TipBot is Initializable, AccessControlEnumerable, ReentrancyGuardUpgradeable {\n  using ECDSA for bytes32;\n  using AddressUpgradeable for address;\n\n\n  // Start of events declaration\n  event Tip ( address indexed from,  address indexed toAddress, uint256 amount );\n  event TipToken ( address indexed from,  address indexed toAddress, uint256 amount );\n  event AirDrop ( address indexed from, address indexed toAddress, uint256 amount);\n  event AirDropToken ( address indexed from, address indexed toAddress, uint256 amount);\n  event Withdraw ( uint256 amount, bytes32 indexed reason);\n\n  // Global variables used in contract\n  uint256 public feeRate;\n  uint256 public airdropRate;\n\n  mapping( bytes => mapping(address => bool)) signatureLookup;\n\n  function init(uint256 _feeRate, uint256 _airdropRate) external initializer {\n    _setupRole(DEFAULT_ADMIN_ROLE, msg.sender);\n    feeRate = _feeRate;\n    airdropRate = _airdropRate;\n  }\n\n  function setFeeRate( uint256 _feeRate ) public onlyRole(DEFAULT_ADMIN_ROLE) {\n    require( _feeRate < 1 ether, \"Invalid amount, cannot be greater than 1 ether\");\n    feeRate = _feeRate;\n  }\n\n  function setAirdropRate( uint256 _feeRate ) public onlyRole(DEFAULT_ADMIN_ROLE) {\n    require( _feeRate < 1 ether, \"Invalid amount, cannot be greater than 1 ether\");\n    airdropRate = _feeRate;\n  }\n\n  function tip( address payable toAddress ) public payable nonReentrant {\n\n    uint256 newBalance = ((1 ether - feeRate) * msg.value)/1 ether;\n    (bool success, ) = toAddress.call{value: newBalance }(\"\");\n    require(success, \"Failed to send Token\");\n\n    emit Tip( \n      msg.sender,\n      toAddress,\n      newBalance\n    );\n  }\n\n  function tipByToken(address toAddress, IERC20 token,  uint256 amount) public nonReentrant{\n\n    require(amount > 0, \"Amount must be greater than 0\");\n    \n    bool success = token.transferFrom(msg.sender, address(this), amount);\n    require(success, \"Transfer failed\");\n\n    uint256 newBalance = ((1 ether - feeRate) * amount)/1 ether;\n\n    bool successTransfer = token.transfer(toAddress,newBalance);\n    require(successTransfer, \"Transfer to recipient failed\");\n\n    emit TipToken(\n      msg.sender,\n      toAddress,\n      newBalance\n    );\n  }\n\n\n  function airDrop ( \n    address payable[] memory accountAddress\n  ) public payable nonReentrant {\n\n    require(accountAddress.length > 0, \"Addresses cannot be empty\");\n    uint256 distributedAmount = ( ((1 ether - airdropRate) * msg.value ) / 1 ether ) / accountAddress.length;\n\n    for(uint8 i = 0; i < accountAddress.length; i++){\n\n    (bool success, ) = accountAddress[i].call{value: distributedAmount }(\"\");\n    require(success, \"Failed to send Token\");\n\n      emit AirDrop(\n        msg.sender,\n        accountAddress[i],\n        distributedAmount\n      );\n    }\n  }\n  \n  function airDropToken ( \n    address[] memory accountAddress,\n    IERC20 token,  uint256 amount\n  ) public nonReentrant {\n    require(amount > 0, \"Amount must be greater than 0\");\n    require(accountAddress.length > 0, \"Addresses cannot be empty\");\n    \n    bool success = token.transferFrom(msg.sender, address(this), amount);\n    require(success, \"Transfer failed\");\n\n    uint256 distributedAmount = ( ((1 ether - airdropRate) * amount ) / 1 ether ) / accountAddress.length;\n\n\n    for(uint8 i = 0; i < accountAddress.length; i++){\n      bool successTransfer = token.transfer(accountAddress[i], distributedAmount);\n      require(successTransfer, \"Failed to send Token\");\n\n      emit AirDropToken(\n        msg.sender,\n        accountAddress[i],\n        distributedAmount\n      );\n    }\n  }\n\n  function withdraw (\n    uint256 amount, \n    bytes32 reason,\n    bytes memory data,\n    bytes[] calldata signatures\n  ) public nonReentrant {\n\n    require( getRoleMemberCount(DEFAULT_ADMIN_ROLE) == signatures.length, \"Not enough signatures\");\n\n    // Extract and verify each signature is valid\n    bytes32 message = keccak256(data);\n    bytes32 hashed = message.toEthSignedMessageHash();\n\n    uint8 validSignatures = 0;\n\n    for (uint8 i = 0; i < signatures.length; i++) {\n        bytes calldata signature = signatures[i];\n        (address signer) = hashed.recover(signature);\n\n        require(hasRole(DEFAULT_ADMIN_ROLE, signer), \"Signer is not admin\");\n        require(!signatureLookup[signature][signer], \"Repeating admin signature not valid\");\n\n        validSignatures += 1;\n        signatureLookup[signature][signer] = true;\n    }\n\n    require( validSignatures == getRoleMemberCount(DEFAULT_ADMIN_ROLE), \"Not all signatures are valid\");\n\n    (uint256 decode_amount, bytes32 decode_reason) = abi.decode(data, (uint256, bytes32) );\n\n    require( decode_amount == amount, \"Hashed amount not valid\");\n    require( decode_reason == reason, \"Hashed reason not valid\");\n    \n    //Perform withdraw action\n    uint contractAmount = address(this).balance;\n    require( amount <= contractAmount, \"Not enough balance to withdraw\" );\n\n    uint256 distributedAmount =  amount / getRoleMemberCount(DEFAULT_ADMIN_ROLE);\n\n    for(uint8 i = 0; i < getRoleMemberCount(DEFAULT_ADMIN_ROLE); i++){\n      (bool success, ) = getRoleMember(DEFAULT_ADMIN_ROLE, i).call{value: distributedAmount }(\"\");\n      require( success, \"Failed to withdraw\" );\n    }\n\n    emit Withdraw(\n      distributedAmount, \n      reason\n    );\n  }\n\n}\n",
  "sourcePath": "/Users/raphaelm/Documents/work_folder/ted/syscoin-tip-bot/solidity/contracts/TipBot.sol",
  "compiler": {
    "name": "solc",
    "version": "0.8.10+commit.fc410830.Emscripten.clang"
  },
  "schemaVersion": "3.4.3",
  "updatedAt": "2022-06-30T07:09:21.170Z",
  "devdoc": {
    "kind": "dev",
    "methods": {
      "getRoleAdmin(bytes32)": {
        "details": "Returns the admin role that controls `role`. See {grantRole} and {revokeRole}. To change a role's admin, use {_setRoleAdmin}."
      },
      "getRoleMember(bytes32,uint256)": {
        "details": "Returns one of the accounts that have `role`. `index` must be a value between 0 and {getRoleMemberCount}, non-inclusive. Role bearers are not sorted in any particular way, and their ordering may change at any point. WARNING: When using {getRoleMember} and {getRoleMemberCount}, make sure you perform all queries on the same block. See the following https://forum.openzeppelin.com/t/iterating-over-elements-on-enumerableset-in-openzeppelin-contracts/2296[forum post] for more information."
      },
      "getRoleMemberCount(bytes32)": {
        "details": "Returns the number of accounts that have `role`. Can be used together with {getRoleMember} to enumerate all bearers of a role."
      },
      "grantRole(bytes32,address)": {
        "details": "Grants `role` to `account`. If `account` had not been already granted `role`, emits a {RoleGranted} event. Requirements: - the caller must have ``role``'s admin role."
      },
      "hasRole(bytes32,address)": {
        "details": "Returns `true` if `account` has been granted `role`."
      },
      "renounceRole(bytes32,address)": {
        "details": "Revokes `role` from the calling account. Roles are often managed via {grantRole} and {revokeRole}: this function's purpose is to provide a mechanism for accounts to lose their privileges if they are compromised (such as when a trusted device is misplaced). If the calling account had been revoked `role`, emits a {RoleRevoked} event. Requirements: - the caller must be `account`."
      },
      "revokeRole(bytes32,address)": {
        "details": "Revokes `role` from `account`. If `account` had been granted `role`, emits a {RoleRevoked} event. Requirements: - the caller must have ``role``'s admin role."
      },
      "supportsInterface(bytes4)": {
        "details": "See {IERC165-supportsInterface}."
      }
    },
    "version": 1
  },
  "userdoc": {
    "kind": "user",
    "methods": {},
    "version": 1
  }
}